:020000040800F2
:10000000A8060020890100085B0B0008990A000877
:10001000590B00088F020008670B00080000000061
:100020000000000000000000000000005F0B00085E
:1000300091020008000000005D0B0008610B000841
:10004000A3010008A3010008A3010008A301000800
:10005000A3010008A3010008A3010008A3010008F0
:10006000A3010008A3010008A3010008A3010008E0
:10007000A3010008A3010008A3010008A3010008D0
:10008000A3010008A3010008A3010008A3010008C0
:10009000A3010008A3010008A3010008A3010008B0
:1000A000A3010008A3010008A3010008A3010008A0
:1000B000A3010008A3010008A3010008A301000890
:1000C000A3010008A3010008A3010008A301000880
:1000D000A3010008A3010008A3010008A301000870
:1000E000A3010008A3010008A301000800F002F822
:1000F00000F03AF80AA090E8000C82448344AAF188
:100100000107DA4501D100F02FF8AFF2090EBAE885
:100110000F0013F0010F18BFFB1A43F0010318473B
:10012000E40F000004100000103A24BF78C878C122
:10013000FAD8520724BF30C830C144BF04680C60ED
:10014000704700000023002400250026103A28BF35
:1001500078C1FBD8520728BF30C148BF0B60704739
:100160001FB51FBD10B510BD00F058F81146FFF7C0
:10017000F7FF00F085FF00F076F803B4FFF7F2FF19
:1001800003BC00F07DF8000009488047094800479B
:10019000FEE7FEE7FEE7FEE7FEE7FEE7FEE7FEE737
:1001A000FEE7FEE704480549054A064B7047000094
:1001B000650B0008ED000008A8000020A80600203C
:1001C000A8020020A80200204FF0000200B513464C
:1001D00094469646203922BFA0E80C50A0E80C5067
:1001E000B1F12001BFF4F7AF090728BFA0E80C5018
:1001F00048BF0CC05DF804EB890028BF40F8042B11
:1002000008BF704748BF20F8022B11F0804F18BF7D
:1002100000F8012B7047704770477047754600F033
:100220002BF8AE4605006946534620F00700854688
:1002300018B020B5FFF7B6FFBDE820404FF000062C
:100240004FF000074FF000084FF0000B21F00701BE
:10025000AC46ACE8C009ACE8C009ACE8C009ACE801
:10026000C0098D46704710B50446AFF300802046A4
:10027000BDE81040FFF781BF0048704748000020EC
:1002800001491820ABBEFEE7260002007047FEE7DA
:100290007047000070B5044600F008F90546601C80
:1002A00002D004480078044400F000F9401BA0424A
:1002B000FAD370BD000000202DE9F84FDFF8B891A7
:1002C0000024A9F1040B23460F2709F1040AABF11E
:1002D000040EC9E00125A5402A40AA427DD1674EFF
:1002E000D1F804C0ACEB0608B44532D014DCBCF144
:1002F000030F3AD009DCBCF1000F2AD0BCF1010F8A
:100300001CD0BCF1020F31D11DE0BCF1110F17D090
:10031000BCF1120F2AD119E0B8F5881F19D006DCFC
:10032000B8F5803F15D0B8F5801F1FD111E0B8F5A2
:10033000001F0ED0B8F5041F18D10AE0CB6815E0F5
:10034000CB681B1D12E0CB6808330FE0CB680C3381
:100350000CE08B682BB1012B4FF0080303D04561F3
:1003600004E0042302E0056100E00023FF2A01D835
:10037000064601E000F104064FEA840501D9A5F123
:100380002005D6F8008007FA05FC28EA0C0803FAD5
:1003900005F548EA0508C6F800804D68ED0062D50D
:1003A000374DAE6946F00106AE61AD6924F0030633
:1003B00005F001050095334D06EB050CDCF80850FF
:1003C000A607360F07FA06F825EA0805DFF8B88011
:1003D000404503D14FF0000817E044E0DFF8AC805F
:1003E000404502D14FF001080FE0DFF8A4804045FE
:1003F00002D14FF0020808E0DFF89880404502D1B2
:100400004FF0030801E04FF0040808FA06F848EA44
:100410000508CCF808804D68D9F80060ED024D461B
:1004200001D5164300E096432E604D68DAF800606F
:10043000AD02554601D5164300E096432E604D6847
:10044000DBF80060AD035D4601D5164300E096433E
:100450002E604D68DEF80060ED03754601D5164349
:1004600000E096432E60641C0D682A46E5407FF448
:1004700031AFBDE8F88F0000080401400000111002
:10048000001002400000014000080140000C014043
:1004900000100140001401408068084000D0012095
:1004A00070470AB1016170470904FBE701488068A1
:1004B0007047000000000020024881680278114463
:1004C0008160704700000020074810B5016841F0C6
:1004D00010010160032000F067F80F2000F006F81B
:1004E00000F024F8002010BD0020024070B50D4D32
:1004F00004464FF47A712878B1FBF0F00A49096894
:10050000B1FBF0F000F0B4FA48B9102C07D2002289
:100510002146501E00F028F800206C6070BD0120BC
:1005200070BD0000000000200C0000200C4808B541
:10053000816941F001018161816901F0010100914E
:10054000C16941F08051C161C06900F080500090E4
:100550000448416821F0E06141F00071416008BD4C
:100560000010024000000140F0B40E4B1B680C4626
:10057000C3F30223C3F10705042D00D90425191D77
:10058000072901D2002300E0DB1E012606FA05F14F
:10059000491E214099409E40761E16403143F0BCD2
:1005A00000F05EBD0CED00E0064900F007020868AF
:1005B0004FF6FF03184040EA0220034A1043086048
:1005C000704700000CED00E00000FA052DE9F0474F
:1005D0000F46050061D0434E306800F00700B84276
:1005E00009D2306820F0070038433060306800F0EE
:1005F0000700B84251D128683B4C810712D540070B
:1006000003D5606840F4E06060602878000703D597
:10061000606840F4605060606068A96820F0F00095
:10062000084360602878C00728D06868012810D087
:100630002168022810D0890700292EDA616821F08C
:10064000030101436160FFF731FF804641F28839C1
:100650000DE021688903EFE78901EDE7FFF726FF49
:10066000A0EB0801494502D90320BDE8F087606886
:10067000696800F00C00B0EB810FEFD1306800F03A
:100680000700B8420BD9306820F0070038433060CB
:10069000306800F00700B84201D00120E5E7287873
:1006A000400705D56068E96820F4E06008436060B1
:1006B0002878000706D56068296920F4605040EA70
:1006C000C100606000F01EF86168084AC1F30311C0
:1006D000515CC8400649086006480068FFF706FFFD
:1006E0000020C2E70020024000100240F210000883
:1006F0000C00002004000020014800687047000042
:100700000C0000200E4A51680E4811F00C0313D063
:10071000042B11D0082B0FD10B48C1F38343C9031D
:10072000C05C0AD55168084AC1F34041921E515C31
:10073000044A5043B0FBF1F0704704494843704706
:100740000010024000127A00E210000800093D008B
:100750002DE9F84F040070D02078C04DC00749D073
:100760006868C0F38100012807D06868C0F3810081
:10077000022809D16868C00306D52868800339D5E6
:1007800060680028E7D035E06068B0F5803F0BD0A6
:1007900010B1B0F5A02F11D0286820F48030286067
:1007A000286820F4802002E0286840F48030286027
:1007B000606890B1FFF77AFE06460AE0286840F4C8
:1007C00080202860F0E700BFFFF770FE801B6428E0
:1007D00073D828688003F7D50CE0FFF767FE06465C
:1007E00005E000BFFFF762FE801B6428F0D8286890
:1007F0008003F7D420789A4E80074FF001094FF01C
:10080000000839D5686810F00C0F07D06868C0F38D
:100810008100022809D16868C00306D428688007CF
:1008200014D52069012808D110E02069B0B1C6F8BC
:100830000090FFF73BFE074605E00AE1FFF736FEB2
:10084000C01B0228C4D828688007F7D528686169CA
:1008500020F0F80040EAC10028600DE0C6F80080F2
:10086000FFF724FE074604E0FFF720FEC01B022826
:1008700023D828688007F7D4207800072CD579483A
:10088000A169D9B1C0F80090FFF710FE074604E057
:10089000FFF70CFEC01B02280FD8686A8007F7D547
:1008A00071484FF4FA510068B0FBF1F0009000BFBE
:1008B0000098411E0091FAD20EE080E0C0F800805E
:1008C000FFF7F4FD074604E0FFF7F0FDC01B022828
:1008D00075D8686A8007F7D42078400760D5E86942
:1008E0000027C00008D4E86940F08050E861E8695A
:1008F000012700F0805000905C480168C90513D4BE
:100900000168834641F480710160FFF7CFFD8246A4
:1009100006E000BFFFF7CAFDA0EB0A0064284ED82E
:10092000DBF80000C005F5D5E06801280AD008B161
:10093000052813D0286A20F001002862286A20F0D8
:10094000040002E0286A40F001002862E06841F2F9
:10095000883B98B1FFF7AAFD82460BE0286A40F079
:1009600004002862EEE700BFFFF7A0FDA0EB0A013C
:1009700059455AD8286A8007F6D50CE0FFF796FD4E
:10098000824605E0FFF792FDA0EB0A0159454CD8DD
:10099000286A8007F6D41FB1E86920F08050E8612A
:1009A000E06988B36968C1F38101022944D0022853
:1009B000C6F8608004D0FFF779FD044638E034E0E3
:1009C000FFF774FD074604E0FFF770FDC01B022827
:1009D0002BD828688001F7D4206AB0F5803F05D174
:1009E0006868A16820F4003008436860D4E9080111
:1009F0000843696821F4741108436860C6F8609080
:100A0000FFF754FD044606E025E000BFFFF74EFD6A
:100A1000001B022809D828688001F7D51BE000BF19
:100A2000FFF744FD001B022802D90320BDE8F88F20
:100A300028688001F4D40EE00128F7D06868226AA3
:100A400000F48031914204D1616A00F47010884250
:100A500001D00120EAE70020E8E700000010024092
:100A600000004242800442420C000020007000401E
:100A700010B5401EB0F1807F01D3012010BD4FF0B2
:100A8000E02460610F21601700F0EAFA0020A06105
:100A900007202061002010BDFEE700002DE9F04393
:100AA00085B000242948009401940294039481693C
:100AB00041F010018161816901F0100104918169A7
:100AC00041F020018161816901F020010491816977
:100AD00041F004018161816901F00401049181699F
:100AE00041F0080181618069DFF8648000F008004E
:100AF0004FF400550490002229464046FFF7D1FCF0
:100B0000DFF850904FF4E077002239464846FFF76F
:100B1000C8FC0095022601250396CDE901546946DB
:100B20004046FFF7C9FB0320CDE90240CDE900753F
:100B300069464846FFF7C0FB68028DE851006946E8
:100B40004846FFF7B9FB05B0BDE8F083001002404E
:100B500000100140000C0140FEE7FEE770477047BF
:100B6000FFF7AABC7047FEE70E48016821F08071CC
:100B70000160016841F0807101600B48016821F05B
:100B800001010160016841F0010101600021416043
:100B900000BF00BF00BF406808B1002070470120BF
:100BA00070470000FCED00E0001000E02DE9FC4182
:100BB00000208DF800000127ADF80470344D0022AC
:100BC000A9882868FFF76DFCA5F10C04207800F0D7
:100BD000B1F9607800F0AEF902208DF800002D4EDA
:100BE0003EE000BFADF804702EE0294C0122083C25
:100BF000A1882068FFF755FC082000F01BFAA188A7
:100C000000222068FFF74DFC082000F013FAA188AD
:100C100001222068FFF745FC04F118008188006874
:100C2000FFF73AFC40B19DF80000BDF80410305CBD
:100C300008439DF800107054BDF804004FF6FF7192
:100C400001EA4000ADF80400BDF80400FF28CCD94B
:100C5000182000F0EFF99DF80000401C8DF800000E
:100C60009DF800000928BDD3A98801222868FFF754
:100C700018FC084900200931325C0A54401C09283C
:100C8000FADB00F009F803480930BDE8FC810000F8
:100C90001C000020340000200020044902460A54B1
:100CA000401CC0B20928FAD370470000340000206D
:100CB00010B5114C0022A1882068FFF7F2FB182024
:100CC00000F0B8F9012000F035F9422000F032F9C7
:100CD000002000F02FF9002000F02CF9002000F097
:100CE00029F9A18801222068FFF7DBFBBDE810404D
:100CF000182000F09FB900001C00002070B5184CAF
:100D00000E460546A18800222068FFF7CAFB18207E
:100D100000F090F9012000F00DF9422000F00AF9EE
:100D2000002000F007F9284600F004F9304600F0F2
:100D300001F9002000F0FEF8002000F0FBF8002090
:100D400000F0F8F8002000F0F5F8A18801222068F2
:100D5000FFF7A7FBBDE87040182000F06BB900005A
:100D60001C00002010B5174C0022A1882068FFF756
:100D700098FB182000F05EF9012000F0DBF843201A
:100D800000F0D8F8002000F0D5F8002000F0D2F8EC
:100D90005A2000F0CFF85A2000F0CCF85A2000F08A
:100DA000C9F85A2000F0C6F85A2000F0C3F8A1880C
:100DB00001222068FFF775FBBDE81040182000F005
:100DC00039B900001C00002010B5174C0022A18882
:100DD0002068FFF766FB182000F02CF9012000F0D6
:100DE000A9F8432000F0A6F8002000F0A3F80120A5
:100DF00000F0A0F8002000F09DF8002000F09AF824
:100E0000002000F097F8002000F094F8002000F097
:100E100091F8A18801222068FFF743FBBDE810404C
:100E2000182000F007B900001C00002010B5114C7C
:100E30000022A1882068FFF734FB182000F0FAF8A0
:100E4000012000F077F84D2000F074F8002000F049
:100E500071F8002000F06EF8012000F06BF8A18816
:100E600001222068FFF71DFBBDE81040182000F0AC
:100E7000E1B800001C00002030B58FB02821684682
:100E8000FFF7A2F914210AA8FFF79EF9012108042F
:100E9000CDE900100024029402250491CDE9075009
:100EA0004FF4E01009906846FFF752FC08B172B6A3
:100EB000FEE70F20CDE90A054FF48060CDE90C4034
:100EC00002210AA80E94FFF781FB002801D072B618
:100ED000FEE70FB030BD000010B5154C0022A18810
:100EE0002068FFF7DEFA012000F024F8442000F02B
:100EF00021F8002000F01EF8012000F01BF8EE2081
:100F000000F018F8002000F015F8002000F012F8AA
:100F1000002000F00FF8002000F00CF8A18801225A
:100F20002068FFF7BEFABDE81040182000F082B834
:100F30001C000020F8B507460120ADF80000234E44
:100F400000217170ADF80000214D35E0BDF80000C2
:100F5000A9883842286801D0012200E00022FFF76A
:100F6000A0FA1B4C0122103CA1882068FFF799FAD7
:100F7000082000F05FF8A18800222068FFF791FAAE
:100F8000082000F057F8A18801222068FFF789FAAD
:100F900004F1180081880068FFF77EFA20B17078AC
:100FA000BDF8001008437070BDF800004FF6FF71E7
:100FB00001EA4000ADF80000BDF80000FF28C5D9E7
:100FC000BDE8F840182000F035B8000034000020DB
:100FD000240000202DE9F047054608A80C4690E8BB
:100FE000C003FFF7C1FD114805608480083002602E
:100FF00083800830066087800830C0F80080A0F841
:101000000490FFF755FEFFF753FEFFF751FEFFF781
:10101000DBFEFFF761FFFFF709FFFFF7A3FEBDE867
:10102000F047012251030248FFF73BBA14000020A9
:101030000010014031B5084C6568FFF75DFB0749BA
:10104000B0FBF1F000994143081A00916168491B17
:101050008142FBD338BD0000001000E040420F0089
:101060000907090E002804DB00F1E02080F80014D5
:10107000704700F00F0000F1E02080F8141D704769
:101080001FB5FFF721FAFFF7F7FEFFF707FD12483C
:101090004FF400718215CDE90002CDE902018023F1
:1010A00002464021FFF796FF0C4D4FF400545021AB
:1010B0000120FFF723FEFFF779FDC079C82801D989
:1010C000002200E0012221462846FFF7EAF96420C9
:1010D000FFF7E0F8EBE70000000C014000100140D2
:1010E000010202030405060708090A0B0C0D0E0F86
:1010F00010100000000000000000010203040607B9
:10110000080900002411000800000020340000003D
:10111000280100085811000834000020740600005F
:101120004401000801000000100000000000000061
:101130000024F40001420000000000000000000054
:10114000000000000000000000000000000000009F
:08115000000000000000000097
:04000005080000ED02
:00000001FF
