:020000040800F2
:10000000D84C0020E9020008A726000813230008A6
:10001000A5260008BF0600089D2F0008000000006C
:10002000000000000000000000000000290200089D
:10003000AD0700080000000085020008F52A00084E
:100040000303000803030008030300080303000878
:100050000303000803030008030300080303000868
:100060000303000803030008030300080303000858
:100070000303000803030008030300080303000848
:100080000303000803030008030300080303000838
:10009000C1060008CD06000803030008030300089A
:1000A00003030008C52B000803030008030300082E
:1000B0000303000803030008030300080303000808
:1000C00003030008030300080303000803030008F8
:1000D00003030008712F000803030008030300084E
:1000E00003030008030300080303000803030008D8
:1000F00003030008030300080303000803030008C8
:1001000003030008030300080303000803030008B7
:1001100003030008030300080303000803030008A7
:100120000303000803030008030300080303000897
:100130000303000803030008030300080303000887
:100140000303000803030008030300080303000877
:100150000303000803030008030300087D2F0008C1
:100160000303000803030008030300080303000857
:100170000303000803030008030300080000000055
:10018000030300080303000800F002F800F03CF845
:100190000AA090E8000C82448344AAF10107DA45E2
:1001A00001D100F031F8AFF2090EBAE80F0013F0F8
:1001B000010F18BFFB1A43F0010318471C4600004B
:1001C0003C460000103A24BF78C878C1FAD85207DC
:1001D00024BF30C830C144BF04680C6070470000C1
:1001E0000023002400250026103A28BF78C1FBD840
:1001F000520728BF30C148BF0B6070471FB504F0DD
:1002000072FA1FBD10B510BD00F074F91146FFF76A
:10021000F5FF02F0A5FF00F092F903B4FFF7F2FF3B
:1002200003BC00F095F900002C4B19680868B0E891
:10023000F04F80F30988BFF36F8F4FF0000080F319
:10024000118870470000000008480068006880F3CB
:1002500008884FF0000080F3148862B661B6BFF3DF
:100260004F8FBFF36F8F00DF00BF00BF08ED00E0CE
:10027000DFF80C00016841F470010160704700BFB5
:1002800088ED00E0EFF30980BFF36F8F134B1A681E
:100290001EF0100F08BF20ED108A20E9F04F10600B
:1002A00009B44FF0500080F31188BFF34F8FBFF3B4
:1002B0006F8F03F07FFC4FF0000080F3118809BCC2
:1002C00019680868B0E8F04F1EF0100F08BFB0ECD6
:1002D000108A80F30988BFF36F8F704724000020D5
:1002E000EFF3058070470000094880470948004740
:1002F000FEE7FEE7FEE7FEE7FEE7FEE7FEE7FEE7D6
:10030000FEE7FEE704480549054A064B7047000032
:10031000B52B000889010008D8460020D84C0020E1
:10032000D8480020D848002053EA020C00F0698029
:100330002DE9F04B4FF00006002B1FBFB3FA83F5F9
:1003400003FA05F424FA05F65E4012BF1643B2FA2A
:1003500082F502FA05F4C5F120051EBF22FA05FC5C
:1003600044EA0C04203556EA044C4FEA144418BF02
:10037000641C4FF000084FF00009904271EB030C31
:1003800039D3002919BFB1FA81F701FA07F6B0FA9B
:1003900080F700FA07F6C7F120071EBF20FA07FC16
:1003A00046EA0C062037B6FBF4FCA7EB0507103F26
:1003B00007F01F0BCBF120060CFA0BFB2CFA06F60C
:1003C00044BFB3460026202FA4BF5E464FF0000B6B
:1003D0005BEA060C08BF4FF0010B19EB0B09ABFBF6
:1003E000027C48EB0608C01B06FB02CC0BFB03CCCF
:1003F00071EB0C01C1E70B46024641464846BDE899
:10040000F08B13B54FF000004FF00001AFF3008008
:10041000BDE81C40704710B5203AC0F00B80B1E831
:100420001850203AA0E81850B1E81850A0E8185029
:10043000BFF4F5AF5FEA027C24BFB1E81850A0E832
:10044000185044BF18C918C0BDE810405FEA827C4C
:1004500024BF51F8043B40F8043B08BF7047D20763
:1004600028BF31F8023B48BF11F8012B28BF20F804
:10047000023B48BF00F8012B70474FF0000200B567
:10048000134694469646203922BFA0E80C50A0E8B7
:100490000C50B1F12001BFF4F7AF090728BFA0E865
:1004A0000C5048BF0CC05DF804EB890028BF40F831
:1004B000042B08BF704748BF20F8022B11F0804F73
:1004C00018BF00F8012B704770477047704710B590
:1004D00000F008F8006810BD10B5044600F002F8FE
:1004E000046010BD00487047744600200048704703
:1004F000744600207546FFF7F9FFAE4605006946D1
:10050000534620F00700854618B020B5FFF7FAFEE5
:10051000BDE820404FF000064FF000074FF0000804
:100520004FF0000B21F00701AC46ACE8C009ACE885
:10053000C009ACE8C009ACE8C0098D46704710B5E9
:100540000446AFF300802046BDE81040FFF765BECB
:1005500001491820ABBEFEE72600020070470000EC
:10056000464910B54A6822F440324A604A684368F6
:100570001A434A6001684A6822F480724A6001683E
:100580004A68036942EA03224A6001684A6822F025
:1005900040724A6001684A6883681A434A60016889
:1005A0008A6822F400628A6001688A68C3681A4314
:1005B0008A60816A6FF07062D14201688A6822F0B5
:1005C00070628A6001688A680CD0836A1A438A6004
:1005D00001688A6822F040528A6001688A68C36AAA
:1005E0001A4301E022F040528A6001688A6822F0D2
:1005F00002028A6001688A68037E42EA43028A60D6
:1006000090F82010002901684A680FD042F4006277
:100610004A6001684A6822F460424A6001684A6898
:10062000174C436A04EB43331A4301E022F400629F
:100630004A600168CA6A22F47002CA620168CA6A22
:10064000838B104C04EB03531A43CA6201688A6817
:1006500022F400728A6001688A6890F8303042EAB9
:1006600043228A6001688A6822F480628A60016895
:100670008A68406942EA8020886010BD00230140FA
:1006800000E0FFFF0000F0FF1FB504460120CDE9A8
:100690000010002002906946204600F099F808B149
:1006A00000F08DF8204600F0FBF90A21204600F00A
:1006B000A1F9204600F032F904B080B210BDFEE787
:1006C000014800F0D4BB00009C030020014800F06A
:1006D000CEBB00009C030020F0B501F003064FEAFA
:1006E000C2044FEAC3058BB08F0744EA460445EACB
:1006F000460504D5D204CDE90024DA0403E0520112
:10070000CDE900245A01CDE90225CA08C1F38001D0
:10071000CDE9041201220021CDE906120E21099132
:100720000892694600F0A8FA0BB0F0BD10B5044677
:1007300000F0B6FD2068416941F002014161206886
:10074000416941F0100141610F492068884209D197
:1007500000231A4619462046FFF7BEFF00231A461B
:100760000C210BE0094988420DD100231A46702163
:100770002046FFF7B1FF00231A467C212046BDE842
:100780001040FFF7A9BF10BD0064004000680040A2
:1007900000B587B00091002101910291CDE90313CA
:1007A00006AB694600F0FAF907B000BD704701B525
:1007B000009801E0401E00900028FBD108BD72B6F1
:1007C000FEE720EE200AD0ED020A00EE810A704713
:1007D00078B50024009490F83C20012A19D0012219
:1007E00080F83C200A6807230568092A13D9EE68B7
:1007F0000A3A02EB420293409E43EE600B788A680D
:100800000A3B03EB43039A400368DD682A43DA603E
:1008100010E0022078BD2E6902EB420293409E4315
:100820002E610B788A6803EB43039A4003681D69C5
:100830002A431A614A681F23072A13D205686E6B80
:10084000521E02EB820293409E436E630B790A882C
:100850005B1E92B203EB83039A4003685D6B2A43ED
:100860005A6327E005680D2A12D22E6BD21F02EBC5
:10087000820293409E432E630B790A88DB1F92B25B
:1008800003EB83039A4003681D6B2A431A6311E04C
:10089000EE6A0D3A02EB820293409E43EE620B79C0
:1008A0000A880D3B92B203EB83039A400368DD6A2A
:1008B0002A43DA62164B0568144A9D4206D10D6838
:1008C000122D03D1556845F48005556005689D4299
:1008D00018D10B68102B01D0112B13D1536843F49E
:1008E00000035360096810290CD10A490A4A0968B3
:1008F000B1FBF2F101EB8101490000E0491E0091DA
:100900000029FBD180F83C40002078BD0023014045
:10091000002001402000002040420F000068C06C11
:10092000704770B504004FF0000503D0206C00261E
:1009300010B107E0012070BD204600F01DF866648C
:1009400084F83C60206CC00610D4206C20F48850E1
:1009500040F0020020642046FFF702FE6664206C2F
:1009600020F0020040F00100206400E0012584F83E
:100970003C60284670BD000010B586B004461421C6
:100980006846FFF77AFD174B2268002116489A4205
:1009900009D1016841F480710160006800F4807041
:1009A000059006B010BD114B9A42FAD1026842F48C
:1009B00080620260006800F4806005900A48143884
:1009C000026842F020020260006800F020000590FA
:1009D000181500900320CDE901016946044800F094
:1009E000EDFCDEE7002001404438024000220140D7
:1009F000001402402DE9F041044600680D4681686C
:100A00004FF0000749050BD58068C00508D5206C5C
:100A100040F02000206484F83C700120BDE8F081A3
:100A200000F0D6FD064613E0681C11D025B100F099
:100A3000CFFD801BA8420BD920680068800707D42F
:100A4000206C40F00400206484F83C700320E5E74B
:100A5000206800688007E7D521686FF01200086001
:100A6000206C40F4007020642068816811F0405FC1
:100A700013D1217E89B9C16A11F4700F02D0806848
:100A800040050AD4206C20F480702064206CC004DF
:100A900003D4206C40F0010020640020BEE7000079
:100AA00018B50021009190F83C20012A07D00122BE
:100AB00080F83C2002689368DB0702D011E0022036
:100AC00018BD936843F0010393602E4A2E4B1268C1
:100AD000B2FBF3F202EB420200E0521E0092002A47
:100AE000FBD102689368DB0742D0036C40F20164DB
:100AF000A34343F48073036453685B0505D5036C1B
:100B000023F4005343F480530364036CDB0404D5E3
:100B1000436C23F00603436400E0416480F83C101A
:100B20001A496FF02203136049680068CA06184921
:100B300006D0884224D1816811F0405F13D01FE0B5
:100B40008842F8D0134A904203D1D1F80423D20648
:100B5000F1D0114A904213D1D1F8041301F01F01D2
:100B60001029E8D30CE0816841F08041816007E002
:100B7000016C41F010010164416C41F001014164DC
:100B8000002018BD2000002040420F00002301403B
:100B9000002001400021014000220140F0B590F802
:100BA00020500468A468012D05D0022D03D0416AAD
:100BB00041F480215DE014F0406F01D1E50055D58E
:100BC000C4F30164022C03D9416A41F4000150E0EE
:100BD0000125A5401D608D684FF4C0739DB1CE689E
:100BE00035434E6845EAC605066803EB0417F55120
:100BF0004FF4C275076805EB04150E697E51097D37
:100C0000012905D009E00E88CD6845EA4655EBE795
:100C100001684E5946F480764E511179D57956794E
:100C200041EA056195792D0445EA062529434FF4EB
:100C3000C676056806EB0416A9511178D57841EA05
:100C40000561957852782D0445EA022211434FF44C
:100C5000C475026805EB04155151006803EB0411DB
:100C6000425842F0010242500020F0BD416A41F476
:100C7000001141620120F0BD10B590F82020012A3A
:100C800007D0022A05D0416A41F480214162012047
:100C900010BD3B48D0F8002242F00102C0F800220B
:100CA000D0F8002222F47C52C0F80022D0F80022B2
:100CB0004B6A42EA0322C0F800220A7D02F01F03B9
:100CC00001229A40D0F81C329343C0F81C32CB6901
:100CD000B3B9D0F80C329343C0F80C328C894B680E
:100CE00064F31F434C6900EBC404C4F840320C8920
:100CF0000B6864F31F434C6900EBC404C4F844322E
:100D0000CB69012B16D1D0F80C321343C0F80C324A
:100D10000C884B6864F31F434C6900EBC404C4F8AF
:100D200040320C89CB6864F31F434C6900EBC40468
:100D3000C4F844328B69002BD0F804320ED0134330
:100D4000C0F804320B69002BD0F8143208D01343DA
:100D5000C0F81432096A012904D008E09343EFE790
:100D60009343F5E7D0F81C121143C0F81C12D0F8D9
:100D7000001221F00101C0F80012002010BD000097
:100D800000640040704730B590F82040012C05D039
:100D9000022C03D0416A41F480215DE004680029FF
:100DA00055D02469A40754D04FF4D874056804EBD7
:100DB00001142D5915F00405956005682D594ED084
:100DC000ED08556005682C5904F00204D4604FF416
:100DD000DA74056804EB01142D5905F00F0515614F
:100DE00005682D59C5F30725956105682C59240C14
:100DF00054614FF4DC72046802EB0112A4581C70B9
:100E00000468A458240A5C700468A458240C9C70DC
:100E10000468A258120EDA704FF4DE72046802EB16
:100E20000112A4581C710468A458240A5C71046857
:100E3000A458240C9C710468A258120EDA71006840
:100E400081B1016941F020010161002030BDE468F9
:100E5000A8E7416A41F400114162012030BD6D0DE7
:100E60001560AFE7C16841F02001C160EDE72DE9F1
:100E7000F05F0546006800244669D0F80490876852
:100E8000D0F80CB0D0F810A0D0F81880F10748D0F6
:100E9000F90714D001218160B80703D5284600F076
:100EA0002CFA0CE0780702D54FF4006407E038070D
:100EB00002D54FF4805402E0284600F01DFAF805F0
:100EC00016D529684FF480708860B80503D5284688
:100ED00000F015FA0CE0780502D544F4005407E060
:100EE000380502D544F4804402E0284600F006FAB2
:100EF000F80316D529684FF480308860B80303D50D
:100F0000284600F0FEF90CE0780302D544F40044D2
:100F100007E0380302D544F4803402E0284600F0AC
:100F2000EFF9300707D55FEACB6004D529681020B8
:100F300044F40074C86070074FF0080707D55FEAF3
:100F40000B7004D52868C760284600F05FF9B00729
:100F500006D52868C068800702D0284600F058F9F6
:100F6000700607D55FEACA6004D52968102044F4EA
:100F700080640861B00607D55FEA0A7004D5286866
:100F80000761284600F066F9F00606D52868006972
:100F9000800702D0284600F05FF9B00308D55FEA69
:100FA000C96005D5296810204860284600F076F908
:100FB000F00307D55FEA097004D528684760284622
:100FC00000F0A0F9300446D55FEA497040D5F0053D
:100FD00004D55FEAC87001D044F00104B00504D51F
:100FE0005FEA887001D544F00204700504D55FEA19
:100FF000487001D544F00404300529D518F0700F6D
:1010000026D008F07000402815D006DC102809D042
:1010100020280AD0302816D10AE050280ED06028A7
:1010200011D10EE044F008040DE044F010040AE091
:1010300044F0200407E044F0400404E044F080045D
:1010400001E044F480742868816921F070018161B5
:10105000296804204860002C05D0686A2043686233
:101060002846FFF78FFEBDE8F09F70B5040003D05F
:1010700094F8200010B104E0012070BD204600F07B
:1010800081F82068016841F00101016000F0A0FAD8
:101090000546052604E000F09BFA401B0A2811D8FB
:1010A00020684068C007F6D02068016821F002017E
:1010B000016000F08DFA05460BE000F089FA401B54
:1010C0000A2806D9606A40F40030606284F8206023
:1010D000D2E7206840688007EFD4207E012820688E
:1010E00001683DD021F080010160607E0128206808
:1010F000016838D021F040010160A07E01282068FD
:10110000016833D021F020010160E07E01282068D1
:1011100001682ED041F010010160207F0128206875
:10112000016829D021F008010160607F0128206852
:10113000016824D021F004010160D4E902010843D0
:10114000D4E90412114308436168491E0843216829
:10115000C86100206062012084F82000002070BD7A
:1011600041F08001C0E741F04001C5E741F02001B6
:10117000CAE721F01001CFE741F00801D4E741F0C0
:101180000401D9E710B586B0044614216846FFF77C
:1011900074F91B49206888422FD11A48002102683F
:1011A00042F000720260006800F00070059015487F
:1011B0001038026842F0080202600068022200F063
:1011C000080005900320CDE90210CDE900020920B6
:1011D000049069460C4800F0F1F800220521142023
:1011E00000F08EFA142000F07DFA0022052115206F
:1011F00000F086FA152000F075FA06B010BD000068
:101200000064004040380240000C0240704700007B
:1012100000B589B007AB6A460021FFF7B4FD00981E
:10122000094A80B207A902F059FA0098074A80B229
:1012300007A902F053FA0098054A80B207A902F004
:101240004DFA09B000BD000084410020E0410020BB
:10125000F44100207047000000B589B007AB6A4632
:101260000121FFF790FD0098094A80B207A902F01A
:1012700035FA0098074A80B207A902F02FFA0098C1
:10128000054A80B207A902F029FA09B000BD0000A2
:1012900084410020E0410020F4410020704700001C
:1012A00070B5044690F82000012804D0606A40F42C
:1012B0000020606218E0022084F8200020680168A5
:1012C00021F00101016000F083F905460EE000BF46
:1012D00000F07EF9401B0A2808D9606A40F400300B
:1012E0006062052084F82000012070BD20684068FD
:1012F000C007EDD1606270BD70477047704770479E
:101300007047704770472DE9F0410446876D00F043
:101310005FF9064694F835000025022806D08020A3
:10132000606584F834500120BDE8F08120680168D0
:1013300021F0160101602068416921F080014161BE
:10134000206C08B9A06C20B12068016821F0080168
:1013500001602068016821F0010101600CE000F0EB
:1013600037F9801B052807D920206065032084F801
:10137000350084F83450D7E720680068C007EED104
:1013800094F85C103F208840B860012084F8350054
:1013900084F834500020C7E790F83510022903D0B4
:1013A0008021416501207047052180F835100068D3
:1013B000016821F001010160002070472DE9F84F1C
:1013C000DFF8BCA10022012503264FF00F090AF126
:1013D000040BAAF1040E00BF0B6805FA02F42340C7
:1013E000A34270D10F7907F00307012F01D0022F1C
:1013F00016D187684FEA420806FA08FC27EA0C076C
:10140000D1F80CC00CFA08FC4CEA070CC0F808C074
:101410004768A7430C79C4F3001494403C434460EC
:101420000C79E443A4070AD0C4684FEA420C06FAD8
:101430000CF7BC438F6807FA0CF72743C7600C7999
:1014400004F00304022C12D1D40800EB840CDCF865
:1014500020405707FF0E09FA07F824EA0804D1F8DC
:10146000108008FA07F848EA0408CCF820800468DD
:101470004FEA420C06FA0CF7BC430F7907F003075A
:1014800007FA0CF7274307604C6814F4403F70D00C
:101490003C4C276847F480472760246822F0030704
:1014A00004F480440094384C07EB040CDCF8084842
:1014B00097074FEA177809FA08F7BC43334FB84249
:1014C00002D1002724E054E0314FB84201D1012776
:1014D0001EE0304FB84201D1022719E02E4FB8422A
:1014E00001D1032714E02D4FB84201D104270FE0AA
:1014F0002B4FB84201D105270AE02A4FB84201D14B
:10150000062705E0284FB84201D1072700E0082749
:1015100007FA08F72743CCF80878DAF8004057466E
:10152000D1F804C09C435FEACC2C00D51C433C603E
:10153000DBF800405F46D1F804C09C435FEA8C2C86
:1015400000D51C433C60DEF800407746D1F804C06B
:101550009C435FEA8C3C00D51C433C60084F083F2D
:101560003C68D1F804C09C435FEACC3C00D51C43E6
:101570003C60521C102AFFF42FAFBDE8F88F00002A
:10158000083C014044380240003001400000024065
:101590000004024000080240000C0240001002401B
:1015A0000014024000180240001C0240006908407C
:1015B00000D001207047426921EA02030A4043EA51
:1015C0000241816170470AB1816170470904FBE7FC
:1015D00001488068704700001400002002488168BC
:1015E0000278114481607047140000200B4810B548
:1015F000016841F400710160016841F4806101609B
:10160000016841F480710160032000F099F80F2017
:1016100000F006F800F04AF8002010BD003C02403F
:1016200030B505461C4887B00024016841F001012F
:101630000160006806A900F00100009001A800F018
:101640002BF900F059F915494000B0FBF1F11548AC
:10165000134A491E026040F2E732C0E90324C0E9A0
:101660000114846100F042FB040012D10D4800F027
:101670006BFB04000DD1192000F034F8102D07D2B7
:1016800000222946192000F03BF80748056000E0D9
:10169000012407B0204630BD4438024040420F00CC
:1016A000000001404C040020180000200C4882B0CB
:1016B000016841F480410160006800F480400090BE
:1016C0000748001F016841F0805101600068002256
:1016D00000F0805000900F21901E02B000F010B872
:1016E00044380240002809DB00F01F02012191402C
:1016F0004009800000F1E020C0F8001170470000B0
:10170000F0B40E4B1B680C46C3F30223C3F107056C
:10171000042D00D90425191D072901D2002300E05A
:10172000DB1E012606FA05F1491E214099409E4024
:10173000761E16403143F0BC01F050BC0CED00E0C9
:10174000064900F0070208684FF6FF03184040EA18
:101750000220034A10430860704700000CED00E0CF
:101760000000FA052DE9F0470E46050065D0DFF8C8
:101770001481D8F80000F7B200F00700B04207D299
:1017800088F80070D8F8000000F00700B04254D18B
:1017900028683D4C810712D5400703D5206840F4E6
:1017A000E05020602878000703D5206840F46040AE
:1017B00020602068A96820F0F000084320602878A5
:1017C000C0072DD0304968680839012812D0022896
:1017D00013D0032811D00968890700292DDA216860
:1017E00021F0030101432160FFF7F2FE814641F23F
:1017F000883A0EE009688903EFE709688901ECE798
:10180000FFF7E6FEA0EB0901514502D90320BDE830
:10181000F0872068696800F00C00B0EB810FEFD111
:10182000D8F80010404601F00701B14207D907700F
:10183000006800F00700B04201D00120E7E72878F7
:10184000400705D52068E96820F4E050084320608F
:101850002878000706D52068296920F4604040EA0E
:10186000C100206000F058F82168084AC1F3031154
:10187000515CC8400649086006480068FFF7D0FE82
:101880000020C4E7003C02400838024088470008B6
:1018900020000020180000200F2202600C4A13686C
:1018A00003F003034360136803F0F00383601368DD
:1018B00003F4E053C36012684FF4E05303EAD2022A
:1018C00002610448006800F00700086070470000EB
:1018D00008380240003C0240044805490068096895
:1018E000044AC1F38221515CC840704720000020A7
:1018F000083802409847000804480549006809680C
:10190000044AC1F34231515CC840704720000020B6
:101910000838024098470008154810B5006810F0D4
:101920000C02144813D01449042A0FD0082A0ED1EF
:101930000F4C241F2268236802F03F025B0207D588
:101940002068C0F38810A0FB010106E0084610BD26
:101950002168C1F38811A1FB00010023FEF7E4FC1C
:101960002168C1F30141491C4900B0FBF1F010BDF1
:10197000083802400024F400001BB7002DE9F84F9E
:1019800004006ED02078DFF84C93C007A9F104055D
:101990004AD009F104000168C1F38101012908D08E
:1019A0000068C0F3810002280AD1D9F80000400283
:1019B00006D52868800337D560680028E1D033E079
:1019C0006068B0F5803F10D0B0F5A02F286810D027
:1019D00020F480302860286820F480202860606827
:1019E000A8B1FFF7F5FD06460DE0286840F4803009
:1019F000F4E740F480202860F7E700BFFFF7E8FD38
:101A0000801B642873D828688003F7D50CE0FFF7A3
:101A1000DFFD064605E000BFFFF7DAFD801B642806
:101A2000F0D828688003F7D42078DFF8AC828007EC
:101A30004FF0000A3ED5A748001D016811F00C0FB9
:101A400008D00068C0F3810002280BD1D9F800004B
:101A5000400207D42868800716D5E068012800D125
:101A600012E033E1E068B8B10120C8F80000FFF7E8
:101A7000AFFD064605E000BFFFF7AAFD801B022868
:101A8000C0D828688007F7D52868216920F0F800B9
:101A900040EAC10028600DE0C8F800A0FFF798FDFB
:101AA000064604E0FFF794FD801B02281FD8286833
:101AB0008007F7D42078000722D5864F87486169D0
:101AC000703771B101210160FFF782FD064604E025
:101AD000FFF77EFD801B022809D838688007F7D5FC
:101AE0000EE0C0F800A0FFF773FD064605E082E0B7
:101AF000FFF76EFD801B02287DD838688007F7D479
:101B00002078400768D5DFF8CCB100270BF13C0BFB
:101B1000DBF80000C0000BD4DBF8001041F080516E
:101B2000CBF80010DBF80000012700F08050009097
:101B30006B4E3068C00510D4306840F4807030605F
:101B4000FFF746FD009005E0FFF742FD0099401ABF
:101B5000022850D83068C005F6D55E4EA0686C36B5
:101B600001280FD00528306810D020F00100306027
:101B7000306820F004003060A068B8B1FFF728FD9D
:101B800000900FE0306840F00100F4E740F00400FE
:101B90003060F7E7FFF71CFD0099411A41F28830E9
:101BA000814266D830688007F4D50EE0FFF710FD5B
:101BB000009007E0FFF70CFD0099411A41F28830D0
:101BC000814256D830688007F4D42FB1DBF800107A
:101BD00021F08051CBF80010A069C8B33D49091D20
:101BE0000968C1F3810102294AD00228504607D072
:101BF000C8F8600000E03CE0FFF7EAFC04463BE088
:101C00004746C8F86000FFF7E3FC064605E000BF62
:101C1000FFF7DEFC801B02282BD828688001F7D450
:101C2000D4E907010843A16A2E4A490802EB0141A1
:101C3000626A41EA8211084394F82C1040EA01617B
:101C4000C9F8001001203866FFF7C2FC044606E020
:101C50003EE000BFFFF7BCFC001B022809D8286843
:101C60008001F7D534E000BFFFF7B2FC001B02286B
:101C700002D90320BDE8F88F28688001F4D427E05A
:101C80000128F7D0D9F80000E26900F48001914200
:101C90001CD1226A00F03F01914217D147F6C07172
:101CA000626A0140B1EB821F10D1A26A4FF0FF338C
:101CB00000F4403103EB5202B1EB024F06D194F82D
:101CC0002C1000F07060B0EB016F01D00120D1E763
:101CD0000020CFE70438024000004742800E474210
:101CE000007000400000FFFF7047704710B504000F
:101CF00003D094F83D0010B107E0012010BD002092
:101D000084F83C00204600F01EF8022084F83D00D4
:101D1000211D206800F05CFF012084F8460084F853
:101D20003E0084F83F0084F8400084F8410084F8C5
:101D3000420084F8430084F8440084F8450084F8A5
:101D40003D00002010BD704790F83D10012901D0E2
:101D500001207047022180F83D100168CA6842F0F6
:101D60000102CA6000681149884214D0B0F1804F66
:101D700011D00F4988420ED00E4988420BD00E492F
:101D8000884208D00D49884205D00D49884202D0CA
:101D90000C49884204D1816801F00701062903D06B
:101DA000016841F00101016000207047000001401E
:101DB0000004004000080040000C00400004014006
:101DC0000040014000180040704770B504460068AC
:101DD00001694FF00005C943890715D4C168C9439B
:101DE000890711D4E91E01610120207720688069EC
:101DF0008007204602D0FFF7E7FF04E000F098F8E4
:101E0000204600F096F8257720680169C943490704
:101E100017D4C168C943490713D46FF004010161A5
:101E2000022020772068806910F4407F204602D08D
:101E3000FFF7CAFF04E000F07BF8204600F079F8D5
:101E4000257720680169C943090716D4C168C943C9
:101E5000090712D46FF0080101610420207720687F
:101E6000C0698007204602D0FFF7AEFF04E000F013
:101E70005FF8204600F05DF8257720680169C943C6
:101E8000C90617D4C168C943C90613D46FF010013D
:101E90000161082020772068C06910F4407F204647
:101EA00002D0FFF791FF04E000F042F8204600F076
:101EB00040F8257720680169C943C90708D1C1687E
:101EC000C943C90704D1891E0161204600F032F8D8
:101ED00020680169C943090609D4C168C9430906D4
:101EE00005D46FF0800101612046FFF7FDFE2068F8
:101EF0000169C943490609D4C168C943490605D4E3
:101F00006FF040010161204600F01EF82068016971
:101F1000C94389060BD4C168C943890607D46FF049
:101F2000200101612046BDE87040FFF7DEBE70BDB4
:101F30007047704700680349884201D1FFF74EBBE4
:101F40007047000000000140704770477047000074
:101F5000F8B5016804460868CA684B6910F00F0FAD
:101F60004FF0000559D003F0010602F49077374393
:101F700065D0C10705D0D10503D5216C41F0010121
:101F80002164410705D5D90703D0216C41F0020136
:101F90002164810705D5D90703D0216C41F00401E4
:101FA0002164010707D502F02001314303D0216CE1
:101FB00041F008012164216C00293AD0800604D543
:101FC000900602D5204600F0CEFE20684069216CC4
:101FD000C0F38010090700D460B3204600F09CFED7
:101FE00020684069400621D52068143050E8001F61
:101FF00021F0400140E80012002AF5D1A06BA8B101
:102000006C490165A06BFFF7C7F9002811D0A06BE0
:10201000016D01B0BDE8F040084783060FD5930677
:102020000DD52046BDE8F84000F09DBE2046FFF7E4
:102030008DFFF8BD2046FFF789FF2564F8BD266BAC
:102040002023012E79D1C60677D5D60675D5086826
:10205000486800904869400640D5A16B0868406810
:102060000004000CEAD0A28D8242E7D9E085C8695D
:10207000B0F5807F2DD020680C3050E8001F21F48F
:10208000807140E80012002AF5D12068143050E831
:10209000001F21F0010140E80012002AF5D120685C
:1020A000143050E8001F21F0400140E80012002ADF
:1020B000F5D184F83E30256320680C3050E8001FCD
:1020C00021F0100140E80012002AF5D1A06BFFF7C3
:1020D0001AF9A08DE18D401A81B229E0A08DE18D21
:1020E000401A81B2E08D0028A8D00029A6D020682F
:1020F0000C3050E8002F22F4907240E80026002EA9
:10210000F5D12068143050E8002F22F0010240E899
:102110000026002EF5D184F83E30256320680C306F
:1021200050E8002F22F0100240E80023002BF5D1E8
:102130002046FFF70AFFF8BDFFE705062BD5150679
:1021400029D594F83D002128F5D1A068B0F5805F2D
:1021500001D12069B0B1206A411C21622168007858
:102160004860E08C401E0004000CE084E3D120684D
:10217000C16821F08001C1602068C16841F0400160
:10218000C160D8E7206A0088C0F308004860206A70
:10219000801C2062E5E74006CDD55006CBD5CA6845
:1021A000204622F04002CA6084F83D3000F0B0F8CA
:1021B000C1E70000092D000870B5040004D094F8B0
:1021C0003D00002510B106E0012070BD84F83C50B0
:1021D000204600F023F8242084F83D002068C168E0
:1021E00021F40051C160204600F01EFE2068016904
:1021F00021F4904101612068416921F02A01416187
:102200002068C16841F40051C1602564202084F831
:102210003D0084F83E00002070BD000070B586B01F
:10222000044614216846FEF728F92A48284E2568F6
:1022300000242849143802220323B54220D10D6816
:1022400045F010050D60096801F010010591016865
:1022500041F0020101600068694600F0020005904B
:10226000C0208DE815000720CDE903301A48FFF79C
:10227000A5F8002205212520FFF742FA252023E0BA
:10228000164EB54222D10D6845F020050D60096853
:1022900001F020010591016841F0400101600068F2
:1022A000694600F0400005904FF484408DE8150029
:1022B0000820CDE903300A48FFF780F800220A2100
:1022C0004720FFF71DFA4720FFF70CFA06B070BD54
:1022D0000010014044380240000402400014014054
:1022E0000018024090F83E30202B0ED159B152B167
:1022F00090F83C30012B08D0012380F83C300023BB
:10230000036300F017BE012070470220704770473A
:102310007047FEE72DE9F04786B014216846FEF7C6
:10232000ACF800254FF430400124022603958DE8D7
:102330005100DFF87CA069465046FFF73FF8CDE931
:1023400000641C4FCDE9026569463846FFF736F850
:102350004FF48058012241465046FFF734F94FF4BC
:102360000059012249465046FFF72DF9A603009671
:10237000CDE9015469465046FFF720F8CDE9004504
:10238000694638460294FFF719F801223146504653
:10239000FFF719F9002241465046FFF714F90122D0
:1023A00049465046FFF70FF906B0BDE8F087000038
:1023B00000040240001402407FB500241548009438
:1023C000019402941249039401604FF48031C0E9F2
:1023D00001140461047680F820400F49C0E90A1412
:1023E0000125C561C46080F830404561FEF799FA67
:1023F00008B1FEF7E4F91020CDE900056946029422
:102400000448FEF7E5F9002801D0FEF7D8F97FBDB2
:10241000002001400C0300200100000F7FB50024C4
:1024200015480094019402941249039401604FF4FA
:102430008031C0E901140461047680F820400F491E
:10244000C0E90A140125C561C46080F830404561C7
:10245000FEF767FA08B1FEF7B2F90820CDE90005EA
:10246000694602940448FEF7B3F9002801D0FEF74C
:10247000A6F97FBD00220140540300200100000F97
:102480000F4810B50D4901600621416000214FF44D
:1024900000328160C0E90312120142610176417687
:1024A0008176C17601774177FEF7DFFD002803D002
:1024B000BDE81040FEF783B910BD00000064004085
:1024C0009C03002010B5A4B01C221C496846FDF7EF
:1024D000A2FF0021684600F0ADFE194C17491C22EE
:1024E00020601C3107A8FDF796FF002107A800F027
:1024F000A1FE124960601C2238310EA8FDF78BFF47
:1025000000210EA800F096FE0C49A0601C22543158
:1025100015A8FDF780FF002115A800F08BFE0749E4
:10252000E0601C2270311CA8FDF775FF00211CA87B
:1025300000F080FE206124B010BD0000FC460008C1
:10254000000000202DE9F04186B014216846FDF717
:1025500094FF34480024016841F0400101600168A3
:1025600001F040010591016841F00101016001683D
:1025700001F001010591016841F00201016001686B
:1025800001F002010591016841F008010160016854
:1025900001F008010591016841F020010160016826
:1025A00001F020010591016841F08001016000689F
:1025B0001D4F00F080004FF4E055059000222946A1
:1025C0003846FFF700F8DFF86480EE00002231465D
:1025D0004046FEF7F8FF0320CDE9000469461448A1
:1025E0000294FEF7EBFE00950125CDE90154694602
:1025F00038460394FEF7E2FE280300904FF488105B
:10260000CDE9010469464046FEF7D8FE0096CDE9C3
:102610000154694640460394FEF7D0FE06B0BDE87B
:10262000F081000030380240001C024000040240EB
:10263000001402400C4810B50A4901604FF4E13122
:102640004160002181600C22C160C0E904128161F7
:10265000C161FFF7B1FD002803D0BDE81040FEF7CF
:10266000AEB810BD00100140C40300200C4810B5E6
:102670000A4901604FF4E1314160002181600C2280
:10268000C160C0E904128161C161FFF795FD0028B6
:1026900003D0BDE81040FEF792B810BD0014014011
:1026A00008040020FEE7FEE71FB50FA10522D1E9CF
:1026B0000001CDE9020102A9302000F085F80522D1
:1026C0006946102000F014F8002069460A5CA52A2B
:1026D00003D1401CC0B20528F8D3052802D0012040
:1026E00004B010BD0020FBE7A5A5A5A5A50000002E
:1026F0002DE9F047DFF8409015460F4604464FF4A9
:102700000058002241464846FEF75DFF204600F093
:102710007FF90646002405E0002000F079F93855DD
:10272000641CE4B2AC42F7D3012241464846FEF7AE
:102730004AFF3046BDE8F0870004024070B50B4EFA
:1027400004464FF40055002229463046FEF73BFF71
:10275000204600F05DF9002000F05AF904460122FD
:1027600029463046FEF72FFF204670BD0004024088
:1027700070B5144E04464FF4805500222946304669
:10278000FEF721FF20222146A02000F01DF80122A3
:1027900029463046FEF717FF0720FFF7CFFF044614
:1027A0000146272000F036F8E00605D5FF21E1209C
:1027B00000F030F8102070BDA00601D5202070BDBB
:1027C000FF2070BD000402402DE9F047DFF8409083
:1027D00016460D4604464FF400580022414648462E
:1027E000FEF7F1FE204600F013F90746002405E04D
:1027F00015F8010B00F00CF9641CE4B2B442F7D3F5
:10280000012241464846FEF7DEFE3846BDE8F08725
:10281000000402402DE9F0410C4E0F4604464FF4EF
:102820000055002229463046FEF7CDFE204600F036
:10283000EFF80446384600F0EBF80122294630460E
:10284000FEF7C1FE2046BDE8F08100000004024012
:1028500040B3D0ED101A524AC0ED111A90ED0F1A84
:1028600080ED101AC0ED060A80ED070A30EEC00AAE
:1028700010EE101A80ED0F0ADFED4A0A914203D3E1
:1028800030EE200A80ED0F0A10EE101A464A9142EF
:1028900003DB30EE600A80ED0F0A017829B10A29C6
:1028A0003CD079E09FED410A704790ED010AD0EDF0
:1028B0000F0A60EE201AC0ED091A90ED0A0A90ED99
:1028C000022A02EE200A70EEC10A80ED0A0A90ED9B
:1028D0000D2A80ED0E2A90ED0C2A80ED0D2AC0ED18
:1028E0000C0A90ED031A21EE201A80ED0B1AD0EDA0
:1028F000050AB4EEE00AF1EE10FA06DCF1EE600A29
:10290000B4EEE00AF1EE10FA01D2C0ED0A0A90ED41
:102910000A0A31EE800A30EE010A2BE070EE410A1D
:1029200090ED012A60EE820AC0ED090A90ED022ABC
:1029300022EE002A80ED0A2AD0ED0D2A70EE820ADE
:10294000C0ED0E2AD0ED0C2AC0ED0D2AF0EE002AC3
:1029500001EE620A30EE210A80ED0C0A90ED031AB6
:1029600021EE000A80ED0B0A30EE800AD0ED080A55
:1029700030EE200A80ED080AD0ED040AB4EEE00A39
:10298000F1EE10FA06DCF1EE600AB4EEE00AF1EEC8
:1029900010FA01D2C0ED080A90ED080A7047000055
:1029A00000F07FC500F8FF4500F07F450000000003
:1029B000002819D000F8041BA0EC050A9FED0B0AB3
:1029C00080ED080A80ED070A80ED060A80ED020A14
:1029D00080ED050A80ED040A80ED030A80ED0B0A04
:1029E00080ED0A0A80ED090A70470000000000002F
:1029F0009FED060A80ED000A80ED010A80ED020AD3
:102A000080ED030A0182428270470000000000004E
:102A10002DE9F041DFF85C80174F044600254FF4A4
:102A20000046200601D5012200E000220221404696
:102A3000FEF7C9FD6006040E012231463846FEF756
:102A4000C2FDFF20FDF7B3FE01214046FEF7AEFDBB
:102A500008B144F00104002231463846FEF7B3FDC8
:102A6000FF20FDF7A4FE6D1CADB2082DD9D3204682
:102A7000BDE8F081001402400004024000F048FB71
:102A800000F014FB012000F0C9FBF9E700F0AAFBFD
:102A900000F082FB642000F0C1FBF9E701220C4C3E
:102AA000950229462046FEF78EFDE614A714294616
:102AB0002046FEF780FD31462046FEF77CFD394674
:102AC0002046FEF778FD642000F0A8FBEFE7000049
:102AD000001C024000F018FF00F04AFE012000F048
:102AE0009DFBF9E701F09EF801F092F8012000F05B
:102AF00095FBF9E710B5502080F31188BFF34F8F95
:102B0000BFF36F8F01F062F918B104494FF08050A4
:102B10000860002080F3118810BD000004ED00E083
:102B200030B593B030216846FDF7A7FC14210CA8FE
:102B3000FDF7A3FC1D480025016841F080510160AC
:102B4000006800F0805011901948016841F48041FC
:102B500001600068022400F480401190012003907D
:102B600010200490009406940820CDE90750A82076
:102B7000CDE9090404200B906846FEF7FFFE08B17A
:102B800072B6FEE70CA90F2081E831004FF4A05087
:102B90000F904FF48050109005210CA8FEF7E2FD35
:102BA000002801D072B6FEE713B030BD40380240B5
:102BB000007000400248016841F4700101607047F4
:102BC00088ED00E00148FFF700B900004C04002048
:102BD000F0B50268254C264D264E274F274B4FF067
:102BE000804CA04209D0604507D0A84205D0B04231
:102BF00003D0B84201D0984204D122F0700E4A6846
:102C000042EA0E02A0421BD0604519D0A84217D05C
:102C1000B04215D0B84213D0984211D0184DA842F6
:102C20000ED0184DA8420BD0174DA84208D0174D12
:102C3000A84205D0164DA84202D0164DA84203D195
:102C400022F44075CA682A434D6922F080022A4363
:102C500002608A68C2620A688262A04201D0984219
:102C600001D10969016301214161F0BD000001400A
:102C70000004004000080040000C00400004014037
:102C8000004001400044014000480140001800405D
:102C9000001C00400020004070B5194D4FF48054D6
:102CA000002221462846FEF78EFC052215493020D9
:102CB000FFF78AFD13490522491D2A20FFF784FDED
:102CC00000212120FFF7A6FD00212220FFF7A2FD11
:102CD00000212420FFF79EFD28212520FFF79AFDE3
:102CE0000F212620FFF796FD0E212020FFF792FDF1
:102CF00021462846BDE870400122FEF764BC000072
:102D000000040240A047000810B5806B0021C18577
:102D1000C184FFF71BF910BD01680C3151E8002F89
:102D200022F4907241E80023002BF5D101681431A0
:102D300051E8002F22F0010241E80023002BF5D1D9
:102D4000016B012909D101680C3151E8002F22F0F3
:102D5000100241E80023002BF5D1202180F83E101D
:102D600000210163704708B590F83E10222901D078
:102D7000022008BD82684FF480539A4201D1016954
:102D800021B1816A9A421BD04AB10AE00268816A85
:102D90005268C2F308020A80816A891C08E002694D
:102DA00072B10268526802F07F020A70816A491C9F
:102DB0008162C18D491E0904090CC18503D019E047
:102DC00002685268F1E70168CA6822F02002CA600E
:102DD0000168CA6822F48072CA6001684A6922F0F8
:102DE00001024A61202180F83E10016B012903D0C5
:102DF000FFF78DFA002008BD0021016301680C3146
:102E000051E8002F22F0100241E80023002BF5D1F9
:102E100001680A68D20602D50A6849680091818D66
:102E2000FFF793F8E6E7000070B504460068016913
:102E3000E26821F44051114301612169A068E2690F
:102E400008436169114308432168CA6849F20C6369
:102E50009A430243CA6020684169A26921F4407123
:102E60001143416131492068884202D0304988428B
:102E700002D1FEF741FD01E0FEF72EFDE2690023DD
:102E8000192164253226B2F5004F626828D0A0FBD4
:102E90000101930F9200FDF747FA0146B0FBF5F0F0
:102EA0006FF01802504301EB800006EB0010B0FBFE
:102EB000F5F000F0F002B1FBF5F002EB0012B1FB0F
:102EC000F5F06FF01803584301EB800006EB00109B
:102ED000B0FBF5F000F00F0021681044886070BD71
:102EE000A0FB010192185B41FDF71EFA0146B0FB01
:102EF000F5F00201B1FBF5F06FF01803584301EB58
:102F0000800006EBC000B0FBF5F000F0F80002EB2B
:102F10004002B1FBF5F0584301EB800006EBC00026
:102F2000B0FBF5F000F00700D6E70000001001400C
:102F30000014014081628285C28500210164222241
:102F400080F83E2080F83C10016921B10168CA6810
:102F500042F48072CA6001684A6942F001024A6123
:102F60000068C16841F02001C16000207047000086
:102F70000148FEF7EDBF0000C403002010B5112288
:102F800004490548FFF7AEF9BDE810400248FEF7D6
:102F9000DFBF00002842002008040020FEE70000F8
:102FA00070B500252C4611210948FDF76DFB6D1CFD
:102FB000EDB20444C82DF6D300EE104ADFED050A49
:102FC0000548B8EE400A80EE801A80ED001A70BD08
:102FD0000C03002001007043940000200907090E33
:102FE000002804DB00F1E02080F80014704700F0B6
:102FF0000F0000F1E02080F8141D704700B52DEDA2
:10300000048BB0EE409AF0EE609A83B051EC190B4D
:1030100001F02CFA41EC180B18EE100A18EE901A79
:103020008DED008B002818BF0120084320F00040E0
:10303000C0F17F6000F1E040C00F14D019EE101A0B
:1030400019EE900A8DED009B002918BF012108435D
:1030500020F00040C0F17F6000F1E040C00F04BFED
:103060000120FDF739FAB0EE480A03B0F0EE680A25
:10307000BDEC048B00BD000010B508210848FDF729
:1030800003FB00EE100A0748B8EE400AD0ED000A34
:1030900020EE200ADFED040A20EE200A10BD000019
:1030A00054030020940000205D7421411CB5124897
:1030B000124CD0ED000A1248C4ED010A90ED000A4E
:1030C0001430FFF7C5FB9FED0F1ADFED0F0A0C4818
:1030D000FDF777FB84ED000A0C49BDEEC00A40F213
:1030E000FF10CDE9000110EE100A00231A46194620
:1030F00000B200F01EFB1CBDE04100208C0000204F
:103100008441002048E19A3F0000A0429C03002037
:1031100010B50D48FDF70AFB40F20522911F0B4840
:10312000FFF766FCDFED0C0A08480021BDE81040FF
:103130009FED072ADFED071AB0EE601A9FED070A30
:103140001430FFF735BC00009C03002084410020B0
:103150000000C8420000964300000000CDCCCC3DEA
:10316000FEF744FAFFF7DCFCFFF7ECF9FFF724F970
:10317000FFF754F9FFF784F9FFF75CFAFFF776FAE7
:10318000FFF7A0F900F051F8FEE70146002084297E
:1031900000D0C81C7047000070B50F48FFF7E8FA70
:1031A000202804D10E489FED0D0A80ED000A0A4B3D
:1031B0000021203303F57A74002004EB810200BF64
:1031C00000EB81051D446D781554401C0428F7DB85
:1031D000491C1929F0DB70BD0842002000802644FC
:1031E000B400002010B5112208490948FFF77AF809
:1031F000FFF790F8FFF758FA20B107489FED050A4E
:1032000080ED000ABDE81040FFF746BD28420020CF
:10321000080400200000DE42B400002010B500B910
:10322000012000F063FC002010BD10B500F084FC0C
:10323000002010BD7FB50D4604464169B0F9080075
:1032400081B1A16971B1FFF7A0FFD4E905128DE842
:103250000700D4E900102B46226900F08CFD039092
:1032600004B070BDFFF791FF03A9CDE90001208AEA
:103270002B4682B2D4E9001000F050FD012801D0A5
:103280000020EDE70398EBE72DE9F041184C0F46DD
:103290000546E6682068001D00F060FB38B920682C
:1032A00090F82C1001208840216981432161681C1D
:1032B00007D137B12168BDE8F0410E48091D00F083
:1032C00091BB20683544B5424560216805D2A06BAA
:1032D000BDE8F041091D00F06DBB606B091D00F0F9
:1032E00069FBA06A854200D2A562BDE8F0810000BA
:1032F00024000020700500202DE9F041054600F073
:103300007DFB2E4CA068401CA06020682C4F10B1A3
:10331000606940B32DE02560A068012829D100260E
:1033200006EB860007EB800000F036FB761C072ECC
:10333000F6D323488C3000F02FFB2148A03000F05A
:103340002BFB1F48B43000F027FB1D48C83000F0AD
:1033500023FB1B48DC3000F01FFB19488C306063F6
:103360001430A06305E02068E96AC06A884200D88A
:103370002560606A401C6062E96A01202269884019
:103380001043206101EB810007EB8000291D00F054
:1033900029FB00F053FB606900280CD02068E96A23
:1033A000C06A884207D207494FF080500860BFF3D7
:1033B0004F8FBFF36F8FBDE8F08100002400002025
:1033C0009404002004ED00E010B5044690F851008C
:1033D00058B101280CD002280FD0502080F311885A
:1033E000BFF34F8FBFF36F8FFEE7206B00F03AFB08
:1033F0002046BDE8104000F035BB10BD10484FF42A
:103400007051420706D0C01D0D4920F00700411A37
:10341000C1F570510B4A00230144C2E90003083989
:10342000183A21F0070111604B600B600B1AC0E9DC
:10343000001393604FF000405360506170470000EC
:103440008405002078000020144E154CA6F1C80712
:103450004FF08058DFF84C9012E000BF00F0CEFA39
:10346000F068C568281D00F079FAA068401EA060C9
:103470006068401E606000F0E1FA2846FFF7A4FF94
:1034800060680028EAD138680128F9D9C9F80080B5
:10349000BFF34F8FBFF36F8FF2E700005C05002092
:1034A0002400002004ED00E02DE9F0479A46DDE914
:1034B000098481466FF00303206B03EB8202104402
:1034C000089E20F00707780707D0502080F3118866
:1034D000BFF34F8FBFF36F8FFEE7002561B1002070
:1034E00023180A5C83F834200A5C12B1401C1028AF
:1034F000F6D384F8435001E084F83450072E00D30B
:103500000626E662C4E91165201D00F050FA04F1B8
:10351000180000F04CFA2461C6F107006462A06153
:10352000E56484F8505052464946384600F0C0F8E9
:103530002060B8F1000F01D0C8F80040BDE8F08766
:1035400030B5114900E011460A688242FBD34B684E
:103550005C18844203D140681844486008464368B8
:103560001C18944209D1084C183C2468A24209D086
:1035700052681A4442600A6812680260814200D0B0
:10358000086030BD0460F9E7780000200648416B10
:10359000096829B1416BC968C96849688162704787
:1035A0004FF0FF31FAE7000024000020084840688F
:1035B000401C4FF0500080F3118804D0BFF34F8FB0
:1035C000BFF36F8FFEE7BFF34F8FBFF36F8FFEE741
:1035D000800000202DE9F0410546002700F0E2FAC6
:1035E000324E306808B9FFF709FF706905424ED1C5
:1035F000C5B3083568070ED005F00700C0F1080014
:103600000544680707D0502080F31188BFF34F8F1F
:10361000BFF36F8FFEE72DB37068854237D823481C
:10362000183001460C6801E020460C466168A9424A
:1036300002D221680029F7D131688C4227D007686F
:103640002168016060680837411B10290FD9601993
:10365000420708D0502080F31188BFF34F8FBFF38B
:103660006F8FFEE713E041606560FFF769FF6168F7
:103670007068401A7060B268904200D2B0607069A1
:1036800001430020C4E90001F068401CF06000F034
:1036900003FC780707D0502080F31188BFF34F8FC9
:1036A000BFF36F8FFEE73846BDE8F0816000002071
:1036B00010B5031F4FF080741C601B1F21F0010127
:1036C0001960191F044B0B6014390A60091F6FF051
:1036D000020244380A6010BDAD350008538A8342A7
:1036E00026D148780B7800EB032000EE100AB8EEE4
:1036F000400A82ED000AC8788B7800EB032000B204
:1037000000EE100AB8EEC00A82ED010A48790B7982
:1037100000EB032000B200EE100AB8EEC00A82ED02
:10372000020AC87900EE100AB8EE400A82ED030AD8
:1037300070477CB5060A8DF800608DF80100080A14
:10374000DDE906458DF80200100A8DF804008DF8B9
:103750000520180A8DF806008DF803108DF8073043
:1037600008236A4621462846FDF712F87CBD000072
:1037700010B55C485C4C2DED068B82B090ED001AC4
:10378000D4ED000A30EEC10A9FED589B9FED598B96
:103790009FED5AABB5EEC00AF1EE10FA0EDD10EE59
:1037A000100A00F02FFF53EC182B00F009FC41EC3D
:1037B000100BFFF723FC53EC192B0FE031EE600ADE
:1037C00010EE100A00F01EFF53EC182B00F0F8FB6F
:1037D00041EC100BFFF712FC53EC1A2B51EC100BC1
:1037E00000F046FD00F0BAFB00EE100A6060B5EE96
:1037F000C00AF1EE10FA04DDD4ED020A30EE200A20
:1038000008E0B5EEC00AF1EE10FA05D2D4ED020AD6
:1038100030EE600A84ED010A324894ED031A143048
:10382000D0ED000A31EE600AB5EEC00AF1EE10FAF2
:103830000EDD10EE100A00F0E5FE53EC182B00F040
:10384000BFFB41EC100BFFF7D9FB53EC192B0FE03A
:1038500030EEC10A10EE100A00F0D4FE53EC182B23
:1038600000F0AEFB41EC100BFFF7C8FB53EC1A2B3A
:1038700051EC100B00F0FCFC00F070FB00EE100AA5
:103880002061B5EEC00AF1EE10FA04DDD4ED050AB0
:1038900030EE200A08E0B5EEC00AF1EE10FA05D2CB
:1038A000D4ED050A30EE600A84ED040A15494FF4A0
:1038B0000070CDE9000194ED010A00231A46BDEE27
:1038C000C00A10EE100A94ED040A01B2BDEEC00A5F
:1038D00010EE100A00B2FFF72CFF02B0BDEC068B11
:1038E00010BD0000E04100209C000020000000000E
:1038F00000E085400000000000408F400000000014
:1039000000E085C09C030020104810B59FED0E0A12
:1039100080ED000A80ED030A9FED0D0A80ED020A9A
:1039200080ED050A0B48FCF701FF40F20222941ECD
:1039300021460948FFF75CF8621C21460648BDE8AD
:1039400010401430FFF754B8000080459C00002060
:1039500000007AC39C030020E0410020D0E901323E
:1039600001699A60D0E901235A604A68824201D114
:1039700082684A60002202610868401E0860086888
:1039800070470000034B036003F15400086080207F
:1039900010607047B800002000F108014FF0FF32BE
:1039A000C0E90112C160016100210160704700217E
:1039B0000161704730B50B685A1C02D000F1080253
:1039C00002E0026904E02246546825689D42FAD963
:1039D00053684B6099608A60516008610168491CB6
:1039E000016030BD42684A6093688B60936859609B
:1039F000916008610168491C01607047502080F3A4
:103A00001188BFF34F8FBFF36F8F0A494868401C7E
:103A1000486001280CD10848006810F0FF0F07D05B
:103A2000502080F31188BFF34F8FBFF36F8FFEE7F5
:103A3000704700008000002004ED00E0084948685D
:103A400028B1401E486001D180F311887047502092
:103A500080F31188BFF34F8FBFF36F8FFEE7000035
:103A60008000002070B500282AD0164DA0F108046F
:103A700060686969084207D1502080F31188BFF35C
:103A80004F8FBFF36F8FFEE722683AB1502080F36B
:103A90001188BFF34F8FBFF36F8FFEE788436060DD
:103AA00000F080F860686968084468602046FFF7A5
:103AB00047FD2869401C2861BDE8704000F0ECB962
:103AC00070BD0000600000204FF0E0200021016187
:103AD000816105494FF47A720968B1FBF2F1491E20
:103AE00041610721016170472000002010B50200EC
:103AF00014D00F48006B38B1502080F31188BFF309
:103B00004F8FBFF36F8FFEE700F04CF80021104697
:103B1000FFF7BAFB00F0C0F9002807D105494FF0C4
:103B200080500860BFF34F8FBFF36F8F10BD000050
:103B30002400002004ED00E010B586B000240394BA
:103B400005AA04A903A80494FFF71CFFDDE90301FB
:103B50000094CDE9011000230EA11048059A00F051
:103B60000AF90F490028C86211D0502080F311884B
:103B7000BFF34F8FBFF36F8F4FF0FF30886201208C
:103B80004861CC6006B0BDE8104000F04DB806B00A
:103B900010BD000049444C450000000049340008B5
:103BA000240000200248016B491C0163704700009B
:103BB000240000201448016B11B10121C16170473C
:103BC0000021C1610169B1FA81F1C1F11F0101EB6D
:103BD00081020E4951F822306BB101EB820101F1F3
:103BE00008034A6852684A609A4201D152684A60A2
:103BF000D16801607047502080F31188BFF34F8F68
:103C0000BFF36F8FFEE70000240000209404002023
:103C100010B5FFF731FA024880ED000A10BD000030
:103C200098000020FFF7BCB91CB537480168374A37
:103C3000914207D1502080F31188BFF34F8FBFF31B
:103C40006F8FFEE700683149491E884207D1502036
:103C500080F31188BFF34F8FBFF36F8FFEE72C49BE
:103C600008780190FF20087008788DF800009DF812
:103C700000009DF8002000F0F000904207D0502096
:103C800080F31188BFF34F8FBFF36F8FFEE79DF86E
:103C90000000204C00F0500020700720A06005E0DC
:103CA0009DF8002052008DF80020401E9DF8002055
:103CB0001206F5D4A060032807D0502080F31188A5
:103CC000BFF34F8FBFF36F8FFEE74FF44070A060DC
:103CD000019808700C482030016841F470010160BF
:103CE000016841F070410160FFF7EEFE0020606066
:103CF000FCF7BEFA0848016841F040410160FCF75A
:103D0000A3FA00201CBD000000ED00E071C20F41CD
:103D100000E400E08000002034EF00E02DE9FF5FC8
:103D20008346DDE90E87994616468A469000FFF7DE
:103D300051FC05001CD05420FFF74CFC040014D0AB
:103D40000020256384F85100CDE90240CDE90087C9
:103D50004B46324651465846FFF7A6FB2046FFF732
:103D6000CBFA012004B0BDE8F09F2846FFF77AFEA9
:103D70004FF0FF30F6E7F0B585B0DDE90B640A9D42
:103D8000A6B1DCB1542700972663022684F851605F
:103D9000002604AFCDE90246CDE90057FFF784FBCA
:103DA0002046FFF7A9FA049805B0F0BD502080F333
:103DB0001188BFF34F8FBFF36F8FFEE7502080F362
:103DC0001188BFF34F8FBFF36F8FFEE72DE9F041EE
:103DD0002F4C0026206B28B1A069401CA061304602
:103DE000BDE8F081E5686D1CE56013D1606B00688B
:103DF00038B1502080F31188BFF34F8FBFF36F8F1E
:103E0000FEE7606BA16B6163A063206A401C2062C7
:103E1000FFF7BCFBA06ADFF87C80854209D3606BAA
:103E20000068A0B1606BC068C7687868854211D22D
:103E3000A0622068C06A00EB800158F821000128C8
:103E400000D90126E0690028C9D00126C7E74FF054
:103E5000FF30EDE7381DFFF781FDB86A18B107F1B3
:103E60001800FFF77BFDF96A0120226988401043A2
:103E7000206101EB810108EB8100391DFFF7B2FDE4
:103E8000F86A2168C96A8842C9D30126C7E70000D9
:103E900024000020940400202DE9F0472C4D00243C
:103EA0002746286B38B1FFF7A9FD286B401E286311
:103EB000286B40B146E0502080F31188BFF34F8F4C
:103EC000BFF36F8FFEE7A968224E0120D1B3A6F1A0
:103ED000B40980463068E8B1F068C46804F118009D
:103EE000FFF73CFD201DFFF739FDE06A2A6908FA5B
:103EF00000F11143296100EB800109EB8100211DD4
:103F0000FFF770FDE06A2968C96A8842E2D3C5F804
:103F10001C80DFE70CB1FFF739FBAC6944B14646C2
:103F2000FFF754FF00B1EE61641EF9D10020A861D3
:103F3000E86938B10849012738070860BFF34F8F97
:103F4000BFF36F8FFFF77AFD3846BDE8F0870000BA
:103F5000240000204805002004ED00E021F000428C
:103F6000A2F16052B2F5801F01F0004328BFD2F1E8
:103F70007F6C0BD95FEA001C43EAC20242EB50702F
:103F800018BF704728BF20F001007047B2F5801FAE
:103F9000BCBF184670474FEA410C1CF5001F02D207
:103FA000084600F0A5BB70B500F00CFA00000089CF
:103FB000FFF7F6BF4FF00040A0F58000704700000B
:103FC0002DE9C04130B4DFF8A0C23CEA111418BF9B
:103FD0003CEA131400F0EC8081EA03051CEA11149A
:103FE00044EAD57418BF1CEA131500F0C780A4EB8F
:103FF00005044FF0004545EAC12145EAC32341EAE3
:10400000505143EA525304F17F74994204F500344D
:104010004FEAC0204FEAC22208BF904200F09C80C5
:104020004FEA13650FF24016765D4FEA134506FB23
:1040300005F7C7F1807706FB07F74FEAD737A7FBED
:1040400003687642C8F58038A7FB06CE38BFA8F1D2
:10405000010807FB08E64FF0000EA6FB028CE6FB0A
:1040600003CEDCF1000CCEF1004E38BFAEF1010EF4
:10407000A6FB0C584FF000074FF00005E6FB0E873B
:10408000A1FB08C6A0FB07CE16EB0E0645F1000506
:10409000E1FB076515F1E04E7EBFA4F580345FEAD1
:1040A00046066D4116F1800745F100054FEA1727D6
:1040B0004FEA066647EA0567A6F1DE46B6F1805F7D
:1040C0004FEA15251FD9384624F0010C05EBC471C1
:1040D000BCF1FE6F01EB0C1102D8F0BCBDE8008111
:1040E00024425CBF01F5801E9EEAC47F02D4F0BC6E
:1040F000BDE80081244238D4F0BCA1F1C041BDE844
:10410000004100F0ADB94FEAD22242EA43524FEAF1
:10411000D323A7FB02864FEAD02040EA415007FB99
:1041200003661EEA0E0F4FEAD12105FB026658BF57
:10413000A6EB0056B6EB00564FEA520E4EEAC37E8F
:1041400018EB0E0E56EB530EBDD518EB02085E4170
:104150007F1C55F10005B6E74FF480154FF00007BE
:104160004FF000064FF00008ADE7F0BC4FF0000044
:1041700001F1C04101F00041BDE8008111EA0C1FCE
:104180000CEA131500D00CE013EA0C1F00F0258098
:104190004FF00000F0BC81EA030101F00041BDE8EE
:1041A0000081F0BCBDE8004181EA030100F058B98C
:1041B000F0BCBDE8004170B500F004F9097EFC3E9A
:1041C00000F007B881EA03014FF0000001F0004160
:1041D000704781EA030100F043B9F0BCBDE800413B
:1041E0004FF0000021497047FFFDFBF9F7F5F4F2AD
:1041F000F0EEEDEBE9E8E6E4E3E1E0DEDDDBDAD882
:10420000D7D5D4D3D1D0CFCDCCCBCAC8C7C6C5C4DF
:10421000C2C1C0BFBEBDBCBBBAB9B8B7B6B5B4B3F6
:10422000B2B1B0AFAEADACABAAA9A8A8A7A6A5A4E1
:10423000A3A3A2A1A09F9F9E9D9C9C9B9A999998A5
:104240009797969595949393929191908F8F8E8E48
:104250008D8C8C8B8B8A89898888878786858584D5
:1042600084838382828181800000FF070000F87FC1
:10427000DFF848C170B51CEA111E1EBF1CEA1315F9
:104280009EEA0C0F95EA0C0F00F06F8081EA0304A0
:1042900023EA4C134EEAD47E21EA4C1141F48011FA
:1042A00043F48013AE44A1FB024CA0FB0365AEF1C6
:1042B0007F7E361955EB0C05A1FB034C4CF1000336
:1042C000A0FB021C16EB0C06654153F100030942EA
:1042D00018BF46F0010613F4007F0BD14FEA0331FB
:1042E0004FEA0530340341EA155140EA16506FF0A9
:1042F00003020AE04FEAC3214FEAC520F40241EA73
:10430000555140EA56506FF0020202EB2E4201EB8B
:10431000025585EACE710AD05FEA440C18BF24F03A
:10432000004450F1000041F1000120EAD47040F255
:10433000FE7C624500D270BDA84214BF4FF080449D
:104340004FF04044002E08BF0024BEF1806FA8BF8C
:10435000A1F1C041BDE8704080F282804FF00000C2
:1043600001F1C04101F0004170479EEA0C0F0CEAD8
:10437000131518BF95EA0C0F06D04FF0000081EA24
:10438000030E0EF0004170BD00F01CF88900013EE4
:1043900000F007B800F009B84FEA430C5FEA5C5C34
:1043A00008D081EA030100F05BB84FEA410C5FEAF4
:1043B0005C5CF6D14FF00000014970470000FF0738
:1043C0000000F87F0EF1020E2EF0030E5EF8046B73
:1043D000364205D4012A43EB030515F5001F12D818
:1043E000012841EB010C1CF5001F0CD80ED14FEA3F
:1043F000D17C15F5001F0CEB4C0C0CF1020C08BF26
:104400004CEBD37C04E04FF0080C01E04FEAD37C86
:104410000CEB4C0526FA05F606F00706B6F1040C7F
:1044200006D20EEB860CBDE870404CF0010C6047E4
:10443000DFE80CF0090B02024FF000414FF00000E2
:10444000A1F5002170BD19461046012851EB010469
:1044500018BFD4F5001484BF002001F0004170BDE6
:104460000808A0F500114FEA310170472DE9F0412D
:1044700001F5801CBCF5001FC0F2A9804FEA115C59
:1044800021EA0C510CF1FD0C41F480115FEA5C0C47
:104490000CF5C07C01D34000494130A4890241EAB7
:1044A000905187028E0E0A0CA45D04FB04F602FBF9
:1044B00006F6C6F14046A4FB0662F60D46EA422621
:1044C00006FB06F4A4FB01235242C3F1404338BF6C
:1044D0005B1EA6FB02420024E6FB0324D20B42EA49
:1044E0004446A6FB0623A1FB02E2A3FB07E4E3FB91
:1044F00061426442C2F1404E38BFAEF1010EA6FBEC
:1045000004234FF00002E6FB0E32A2FB0346340008
:10451000E2FB6264A1FB06E6A4FB07E8E4FB61683A
:104520007642C8F1405838BFA8F10108A2FB06E462
:10453000A3FB08E5E2FB6854A1FB05E6A7FB04E842
:10454000E1FB648618F1200556F10006A809A8F1E0
:104550001B08B10908F03F08B8F10A0F40EA86606D
:104560001CD901EB0C51BDE8F08100BFFCF5EEE871
:10457000E2DDD8D3CFCBC7C3C0BDB9B6B4B1AEAC02
:10458000A9A7A5A3A19F9D9B9A9896959392908F7A
:104590008D8C8B898887868584838281A0FB0068C7
:1045A00000FB01F208EB4208B8EB872807D5341866
:1045B00058EB0104D5D5401C51F10001D1E7341A64
:1045C00078EB0104CDD4401E71F10001C9E75FEA28
:1045D0004C0C5FEA9C5C0DD105D34FF0000001F05C
:1045E0000041BDE8F081BDE8F04170B5FFF7EAFE9B
:1045F0006DDBFFBEBDE8F0414FF0000000497047A1
:104600000000F87F43004FEAD30C4FEA3C0C4340D4
:104610001FBF40070CF1605113F0FE4F70471CF0B4
:10462000006F03D100200CF0004170470CF00043F4
:1046300043EA507010B540EACC0000F00EF800BF1D
:10464000000000924FEA0001FFF70ABF4FF000415F
:104650004FF00000A1F5002170470EF1020E2EF080
:10466000030E5EF8044B244204D44FEA4102B2F137
:104670007F4F11D84FEA4003B3F17F4F0CD80ED1D2
:104680004FEAD07CB2F17F4F0CEB4C0C0CF1020CDA
:1046900008BF4CEBD17C04E04FF0080C01E04FEA7E
:1046A000D17C0CEB4C0324FA03F404F00704B4F1BE
:1046B000040C06D20EEB840CBDE810404CF0010C4B
:1046C0006047DFE80CF0070802024FF00040A0F559
:1046D000800010BD0846420018BFD2F1807288BF2A
:1046E00000F0004010BD4FF04070E1EE100A70473E
:1046F000FF2141EAD050C00570470000C0470008C4
:104700007D2A00080000000000000000800000007A
:104710000000000000000000B8470008E52A00087B
:10472000FEFF00000000000080000000000000000C
:1047300000000000AC4700089D2A0008FDFF0000B3
:1047400000000000800000000000000000000000E9
:10475000C8470008D52A000801000000000000003A
:10476000800000000000000000000000B0470008CA
:104770008D2A0008020000000000000080000000F8
:104780000000000000000000000000000000000029
:1047900001020304060708090000000001020304E7
:1047A00034431010013443101001000052474200FE
:1047B0006D65737361676500766F6C746167650022
:1047C00067696D62616C0000737072696E675F6D1E
:1047D0006F746F7200000000F847000800000020AE
:1047E000B8000000C4010008B0480008B80000206C
:1047F000204C0000E0010008000000000000000064
:1048000000000000000000000000000001000000A7
:1048100010000000000000000024F4000000000070
:104820000000000000000000000000000000000088
:104830000000000000000000000000000000000078
:104840000000000000000000000000000000000068
:104850000000000000000000000000000000000058
:104860000000000000000000000000000000000048
:10487000000000000000000000000000AAAAAAAA90
:104880000000000000000000000000006740533AF4
:104890000000000000000000000000000000000018
:1048A0000000000000000000000000000000000008
:040000050800018965
:00000001FF
