:020000040800F2
:10000000400F00202D02000817310008D12C0008F5
:1000100015310008AB04000805330008000000009B
:100020000000000000000000000000001B3100087C
:10003000E904000800000000193100081D31000823
:10004000470200084702000847020008470200086C
:10005000470200084702000847020008470200085C
:1000600047020008EB0400084702000847020008A6
:10007000470200084702000847020008470200083C
:10008000470200084702000847020008470200082C
:10009000AD040008B9040008470200084702000840
:1000A000470200084702000847020008470200080C
:1000B00047020008470200084702000847020008FC
:1000C00047020008470200084702000847020008EC
:1000D00047020008470200084702000847020008DC
:1000E00047020008470200084702000847020008CC
:1000F00047020008470200084702000847020008BC
:1001000047020008470200084702000847020008AB
:10011000470200084702000847020008470200089B
:1001200047020008C5040008D1040008DD040008E7
:10013000470200084702000847020008470200087B
:10014000470200084702000847020008470200086B
:10015000470200084702000847020008F932000879
:10016000470200084702000847020008470200084B
:10017000470200084702000847020008000000008C
:10018000470200084702000800F002F800F03EF8BD
:100190000AA090E8000C82448344AAF10107DA45E2
:1001A00001D100F033F8AFF2090EBAE80F0013F0F6
:1001B000010F18BFFB1A43F0010318479C6A0000A7
:1001C000BC6A0000103A24BF78C878C1FAD8520738
:1001D00024BF30C830C144BF04680C6070470000C1
:1001E0000023002400250026103A28BF78C1FBD840
:1001F000520728BF30C148BF0B6070471FB505F0DC
:1002000016F800F007F91FBD10B510BD00F014F985
:100210001146FFF7F3FF04F0EFFF00F032F903B4EB
:10022000FFF7F2FF03BC00F039F9000009488047EE
:1002300009480047FEE7FEE7FEE7FEE7FEE7FEE7C8
:10024000FEE7FEE7FEE7FEE704480549054A064BE0
:100250007047000021310008890100084009002092
:10026000400F0020400B0020400B002053EA020CFE
:1002700000F069802DE9F04B4FF00006002B1FBF06
:10028000B3FA83F503FA05F424FA05F65E4012BFCB
:100290001643B2FA82F502FA05F4C5F120051EBF35
:1002A00022FA05FC44EA0C04203556EA044C4FEAD5
:1002B000144418BF641C4FF000084FF0000990422E
:1002C00071EB030C39D3002919BFB1FA81F701FA98
:1002D00007F6B0FA80F700FA07F6C7F120071EBF4D
:1002E00020FA07FC46EA0C062037B6FBF4FCA7EB25
:1002F0000507103F07F01F0BCBF120060CFA0BFB94
:100300002CFA06F644BFB3460026202FA4BF5E4653
:100310004FF0000B5BEA060C08BF4FF0010B19EB26
:100320000B09ABFB027C48EB0608C01B06FB02CCAA
:100330000BFB03CC71EB0C01C1E70B4602464146B7
:100340004846BDE8F08B13B54FF000004FF00001B8
:10035000AFF30080BDE81C40704710B5203AC0F0F4
:100360000B80B1E81850203AA0E81850B1E81850B6
:10037000A0E81850BFF4F5AF5FEA027C24BFB1E8F3
:100380001850A0E8185044BF18C918C0BDE8104064
:100390005FEA827C24BF51F8043B40F8043B08BF6D
:1003A0007047D20728BF31F8023B48BF11F8012B34
:1003B00028BF20F8023B48BF00F8012B70474FF0E0
:1003C000000200B5134694469646203922BFA0E8A5
:1003D0000C50A0E80C50B1F12001BFF4F7AF0907B1
:1003E00028BFA0E80C5048BF0CC05DF804EB8900A2
:1003F00028BF40F8042B08BF704748BF20F8022BE5
:1004000011F0804F18BF00F8012B704770477047FC
:100410007047000070B5064C7C44064D7D4403E0F7
:10042000206820448047241DAC42F9D170BD0000F3
:100430005C6800005C680000754600F02BF8AE4672
:1004400005006946534620F00700854618B020B5E0
:10045000FFF7FAFEBDE820404FF000064FF000071E
:100460004FF000084FF0000B21F00701AC46ACE85C
:10047000C009ACE8C009ACE8C009ACE8C0098D46C9
:10048000704710B50446AFF300802046BDE8104029
:10049000FFF7C5BE00487047E0080020014918205A
:1004A000ABBEFEE7260002007047FEE7014800F001
:1004B00070BB000024010020014800F06ABB00006E
:1004C00024010020014800F0EBBD0000980300204B
:1004D000014800F0E5BD0000AC020020014800F03A
:1004E000DFBD00004C0200207047082000F06ABF0A
:1004F00072B6FEE778B50024009490F83C20012AFB
:1005000019D0012280F83C200A6807230568092ACF
:1005100013D9EE680A3A02EB420293409E43EE6022
:100520000B788A680A3B03EB43039A400368DD6853
:100530002A43DA6010E0022078BD2E6902EB420205
:1005400093409E432E610B788A6803EB43039A40E5
:1005500003681D692A431A614A681F23072A13D2B8
:1005600005686E6B521E02EB820293409E436E63DF
:100570000B790A885B1E92B203EB83039A400368EF
:100580005D6B2A435A6327E005680D2A12D22E6B51
:10059000D21F02EB820293409E432E630B790A889E
:1005A000DB1F92B203EB83039A4003681D6B2A435F
:1005B0001A6311E0EE6A0D3A02EB820293409E4309
:1005C000EE620B790A880D3B92B203EB83039A40EB
:1005D0000368DD6A2A43DA62164B0568144A9D42B5
:1005E00006D10D68122D03D1556845F4800555607C
:1005F00005689D4218D10B68102B01D0112B13D127
:10060000536843F400035360096810290CD10A4968
:100610000A4A0968B1FBF2F101EB8101490000E0EF
:10062000491E00910029FBD180F83C40002078BD94
:1006300000230140002001400C00002040420F0038
:100640000068C06C704770B504004FF0000503D01F
:10065000206C002610B107E0012070BD204600F09C
:100660001DF8666484F83C60206CC00610D4206CD1
:1006700020F4885040F002002064204603F078FF08
:100680006664206C20F0020040F00100206400E06D
:10069000012584F83C60284670BD000010B586B086
:1006A000044614216846FFF78AFE174B2268002192
:1006B00016489A4209D1016841F4807101600068CE
:1006C00000F48070059006B010BD114B9A42FAD12B
:1006D000026842F480620260006800F48060059065
:1006E0000A481438026842F020020260006800F0F4
:1006F00020000590181500900320CDE901016946FE
:10070000044800F06BFEDEE7002001404438024060
:1007100000220140001402402DE9F0410446006827
:100720000D4681684FF0000749050BD58068C0056C
:1007300008D5206C40F02000206484F83C70012033
:10074000BDE8F08100F04CFF064613E0681C11D0B4
:1007500025B100F045FF801BA8420BD92068006836
:10076000800707D4206C40F00400206484F83C70BB
:100770000320E5E7206800688007E7D521686FF06F
:1007800012000860206C40F40070206420688168CA
:1007900011F0405F13D1217E89B9C16A11F4700F45
:1007A00002D0806840050AD4206C20F48070206458
:1007B000206CC00403D4206C40F0010020640020B1
:1007C000BEE7000018B50021009190F83C20012AF6
:1007D00007D0012280F83C2002689368DB0702D032
:1007E00011E0022018BD936843F0010393602E4A84
:1007F0002E4B1268B2FBF3F202EB420200E0521EF3
:100800000092002AFBD102689368DB0742D0036C98
:1008100040F20164A34343F48073036453685B05AF
:1008200005D5036C23F4005343F480530364036C35
:10083000DB0404D5436C23F00603436400E0416409
:1008400080F83C101A496FF0220313604968006871
:10085000CA06184906D0884224D1816811F0405F49
:1008600013D01FE08842F8D0134A904203D1D1F848
:100870000423D206F1D0114A904213D1D1F80413C7
:1008800001F01F011029E8D30CE0816841F080419C
:10089000816007E0016C41F010010164416C41F09E
:1008A00001014164002018BD0C00002040420F00EF
:1008B00000230140002001400021014000220140AE
:1008C000F0B590F820500468A468012D05D0022DE1
:1008D00003D0416A41F480215DE014F0406F01D102
:1008E000E50055D5C4F30164022C03D9416A41F4F3
:1008F000000150E00125A5401D608D684FF4C073D4
:100900009DB1CE6835434E6845EAC605066803EBDF
:100910000417F5514FF4C275076805EB04150E690D
:100920007E51097D012905D009E00E88CD6845EA90
:100930004655EBE701684E5946F480764E511179E1
:10094000D579567941EA056195792D0445EA062560
:1009500029434FF4C676056806EB0416A9511178B1
:10096000D57841EA0561957852782D0445EA02224E
:1009700011434FF4C475026805EB0415515100682A
:1009800003EB0411425842F0010242500020F0BD36
:10099000416A41F4001141620120F0BD10B590F8A8
:1009A0002020012A07D0022A05D0416A41F4802183
:1009B0004162012010BD3B48D0F8002242F0010204
:1009C000C0F80022D0F8002222F47C52C0F80022A5
:1009D000D0F800224B6A42EA0322C0F800220A7DC6
:1009E00002F01F0301229A40D0F81C329343C0F852
:1009F0001C32CB69B3B9D0F80C329343C0F80C3237
:100A00008C894B6864F31F434C6900EBC404C4F841
:100A100040320C890B6864F31F434C6900EBC4043B
:100A2000C4F84432CB69012B16D1D0F80C321343F1
:100A3000C0F80C320C884B6864F31F434C6900EB20
:100A4000C404C4F840320C89CB6864F31F434C697A
:100A500000EBC404C4F844328B69002BD0F8043294
:100A60000ED01343C0F804320B69002BD0F81432B7
:100A700008D01343C0F81432096A012904D008E0F1
:100A80009343EFE79343F5E7D0F81C121143C0F806
:100A90001C12D0F8001221F00101C0F80012002051
:100AA00010BD000000640040704730B590F8204051
:100AB000012C05D0022C03D0416A41F480215DE075
:100AC0000468002955D02469A40754D04FF4D87481
:100AD000056804EB01142D5915F0040595600568AF
:100AE0002D594ED0ED08556005682C5904F00204CC
:100AF000D4604FF4DA74056804EB01142D5905F045
:100B00000F05156105682D59C5F307259561056821
:100B10002C59240C54614FF4DC72046802EB01126E
:100B2000A4581C700468A458240A5C700468A45873
:100B3000240C9C700468A258120EDA704FF4DE7216
:100B4000046802EB0112A4581C710468A458240A1A
:100B50005C710468A458240C9C710468A258120E9D
:100B6000DA71006881B1016941F020010161002062
:100B700030BDE468A8E7416A41F4001141620120F8
:100B800030BD6D0D1560AFE7C16841F02001C16057
:100B9000EDE72DE9F05F0546006800244669D0F8CE
:100BA00004908768D0F80CB0D0F810A0D0F8188066
:100BB000F10748D0F90714D001218160B80703D5A7
:100BC000284600F00CFA0CE0780702D54FF40064D8
:100BD00007E0380702D54FF4805402E0284600F0C1
:100BE000FDF9F80516D529684FF480708860B805BE
:100BF00003D5284600F0F5F90CE0780502D544F459
:100C0000005407E0380502D544F4804402E0284649
:100C100000F0E6F9F80316D529684FF480308860B3
:100C2000B80303D5284600F0DEF90CE0780302D5BE
:100C300044F4004407E0380302D544F4803402E071
:100C4000284600F0CFF9300707D55FEACB6004D51E
:100C50002968102044F40074C86070074FF008073A
:100C600007D55FEA0B7004D52868C760284600F0F6
:100C70005FF9B00706D52868C068800702D028460B
:100C800000F058F9700607D55FEACA6004D52968F4
:100C9000102044F480640861B00607D55FEA0A704A
:100CA00004D528680761284600F056F9F00606D5F5
:100CB00028680069800702D0284600F04FF9B00389
:100CC00008D55FEAC96005D5296810204860284624
:100CD00000F056F9F00307D55FEA097004D52868DB
:100CE0004760284600F080F9300446D55FEA497035
:100CF00040D5F00504D55FEAC87001D044F0010486
:100D0000B00504D55FEA887001D544F0020470058F
:100D100004D55FEA487001D544F00404300529D5B4
:100D200018F0700F26D008F07000402815D006DCAF
:100D3000102809D020280AD0302816D10AE05028DF
:100D40000ED0602811D10EE044F008040DE044F00C
:100D500010040AE044F0200407E044F0400404E0FA
:100D600044F0800401E044F480742868816921F033
:100D700070018161296804204860002C05D0686AF0
:100D8000204368622846FFF78FFEBDE8F09F70B5EC
:100D9000040003D094F8200010B104E0012070BDDD
:100DA000204600F081F82068016841F001010160EF
:100DB00000F016FC0546052604E000F011FC401B7F
:100DC0000A2811D820684068C007F6D0206801685A
:100DD00021F00201016000F003FC05460BE000F089
:100DE000FFFB401B0A2806D9606A40F400306062AD
:100DF00084F82060D2E7206840688007EFD4207E26
:100E00000128206801683DD021F080010160607EEA
:100E100001282068016838D021F040010160A07EDF
:100E200001282068016833D021F020010160E07EB4
:100E30000128206801682ED041F010010160207F58
:100E400001282068016829D021F008010160607F35
:100E500001282068016824D021F004010160D4E950
:100E600002010843D4E90412114308436168491E92
:100E700008432168C86100206062012084F82000D6
:100E8000002070BD41F08001C0E741F04001C5E79E
:100E900041F02001CAE721F01001CFE741F008013D
:100EA000D4E741F00401D9E710B586B00446142117
:100EB0006846FFF784FA1B49206888422FD11A48F8
:100EC0000021026842F000720260006800F00070C9
:100ED000059015481038026842F008020260006868
:100EE000022200F0080005900320CDE90210CDE9B0
:100EF00000020920049069460C4800F06FFA0022B5
:100F00001146142000F0A6FE142000F095FE0022E9
:100F10001146152000F09EFE152000F08DFE06B053
:100F200010BD00000064004040380240000C024048
:100F30007047000000B589B007AB6A460021FFF793
:100F4000B4FD009807AA81B2024804F0D6F809B0AF
:100F500000BD0000980800207047000000B589B06F
:100F600007AB6A460121FFF7A0FD009807AA81B2EE
:100F7000024804F0C2F809B000BD00009808002043
:100F80007047000070B5044690F82000012804D096
:100F9000606A40F40020606218E0022084F82000BB
:100FA0002068016821F00101016000F019FB05468D
:100FB0000EE000BF00F014FB401B0A2808D9606A4D
:100FC00040F400306062052084F82000012070BDEC
:100FD00020684068C007EDD1606270BD70477047FF
:100FE000704770477047704770472DE9F0410446DD
:100FF000876D00F0F5FA064694F8350000250228C2
:1010000006D08020606584F834500120BDE8F0816E
:101010002068016821F0160101602068416921F013
:1010200080014161206C08B9A06C20B12068016882
:1010300021F0080101602068016821F001010160D0
:101040000CE000F0CDFA801B052807D92020606550
:10105000032084F8350084F83450D7E7206800680E
:10106000C007EED194F85C103F208840B8600120A2
:1010700084F8350084F834500020C7E790F8351024
:10108000022903D08021416501207047052180F8A5
:1010900035100068016821F00101016000207047EF
:1010A0002DE9F84304464FF00009CDF8009063485D
:1010B0004FF41651A56D0068B0FBF1F72E6894F857
:1010C0005C10082000FA01F131420FD021680A6853
:1010D00052070BD50A6822F004020A6094F85C10EB
:1010E0008840A860606D40F00100606594F85C1075
:1010F0004FF0010808FA01F0304208D02168496930
:10110000090604D5A860606D40F00200606594F89F
:101110005C1004208840304208D0216809688907A3
:1011200004D5A860606D40F00400606594F85C1020
:1011300010208840304218D021680968090714D56A
:10114000A86020680168490304D50068000308D539
:10115000A16C07E00168C90503D4016821F008010A
:101160000160216C09B12046884794F85C1020206A
:101170008840304231D021680968C9062DD5A86061
:1011800094F8350005282068016806D0490347D542
:10119000006800031DD4616C1CE021F016010160A1
:1011A0002068416921F080014161206C08B9A06C80
:1011B00020B12068016821F00801016094F85C10FA
:1011C0003F208840A86084F8358084F83490216DF1
:1011D0001FE0E16B09B120468847606D00282BD0E5
:1011E000606DC00714D0052084F8350020680168C0
:1011F00021F0010101600098401C0090B84203D822
:1012000020680068C007F6D184F8358084F83490EF
:10121000E16C002910D001B02046BDE8F04308473A
:101220000168C905D5D4016821F01001016084F876
:10123000358084F83490CCE7BDE8F8830C000020BA
:101240002DE9F041044600F0CBF906465CB10220DE
:1012500084F83500002584F834502068016821F0B6
:10126000010101600DE00120BDE8F08100F0B8F956
:10127000801B052805D920206065032084F83500EF
:10128000F2E720680068C007F0D1226811682048A2
:101290000140D4E901031843D4E90336334318432A
:1012A00063691843A3691843E3691843236A184321
:1012B0000843616A042903D1D4E90B131943084395
:1012C000106020684069666A20F0070130460E43CE
:1012D000012704280CD1A06A0643E06A40B12046E9
:1012E00003F0EEF920B14020606584F83570BAE76C
:1012F00020684661204603F00DFA94F85C203F21F7
:1013000091408160656584F835700020ACE700008D
:101310003F8010F02DE9F0410446866D90F83400CE
:10132000002501280DD0012084F8340094F8357090
:101330000020012F07D084F8340002252846BDE89C
:10134000F0810220FBE7022784F8357060652046B3
:1013500003F0A2F994F85C103F208840B060206848
:10136000016841F016010160206C20B1206801681D
:1013700041F0080101602068016841F0010101604D
:10138000DCE7000070B5044600F02AF90546601C51
:1013900002D004480078044400F022F9401BA04227
:1013A000FAD370BD00000020044910B5898881423D
:1013B00003D102F091F90249886110BD1C000020A0
:1013C00074000020044910B50A68024202D0086087
:1013D000FFF7EAFF10BD0000143C01402DE9F84F73
:1013E000DFF8BCA10022012503264FF00F090AF106
:1013F000040BAAF1040E00BF0B6805FA02F42340A7
:10140000A34270D10F7907F00307012F01D0022FFB
:1014100016D187684FEA420806FA08FC27EA0C074B
:10142000D1F80CC00CFA08FC4CEA070CC0F808C054
:101430004768A7430C79C4F3001494403C434460CC
:101440000C79E443A4070AD0C4684FEA420C06FAB8
:101450000CF7BC438F6807FA0CF72743C7600C7979
:1014600004F00304022C12D1D40800EB840CDCF845
:1014700020405707FF0E09FA07F824EA0804D1F8BC
:10148000108008FA07F848EA0408CCF820800468BD
:101490004FEA420C06FA0CF7BC430F7907F003073A
:1014A00007FA0CF7274307604C6814F4403F70D0EC
:1014B0003C4C276847F480472760246822F00307E4
:1014C00004F480440094384C07EB040CDCF8084822
:1014D00097074FEA177809FA08F7BC43334FB84229
:1014E00002D1002724E054E0314FB84201D1012756
:1014F0001EE0304FB84201D1022719E02E4FB8420A
:1015000001D1032714E02D4FB84201D104270FE089
:101510002B4FB84201D105270AE02A4FB84201D12A
:10152000062705E0284FB84201D1072700E0082729
:1015300007FA08F72743CCF80878DAF8004057464E
:10154000D1F804C09C435FEACC2C00D51C433C601E
:10155000DBF800405F46D1F804C09C435FEA8C2C66
:1015600000D51C433C60DEF800407746D1F804C04B
:101570009C435FEA8C3C00D51C433C60084F083F0D
:101580003C68D1F804C09C435FEACC3C00D51C43C6
:101590003C60521C102AFFF42FAFBDE8F88F00000A
:1015A000083C014044380240003001400000024045
:1015B0000004024000080240000C024000100240FB
:1015C0000014024000180240001C0240006908405C
:1015D00000D0012070470AB1816170470904FBE720
:1015E00001488068704700000000002070B50400CA
:1015F00025D094F83D00002520B984F83C502046C1
:1016000000F04CFA242084F83D002068016821F0A5
:10161000010101602068016841F400410160206817
:10162000016821F40041016000F0E6FB4D4A616869
:10163000914201D84C4900E04C49884201D2012036
:1016400070BD4B492368B0FBF1F15E6826F03F06A0
:101650000E435E606368934206D94FF49673594314
:101660004FF47A73B1FBF3F12368491C1E6A26F02C
:101670003F06314319626168914210D84900401E0B
:10168000B0FBF1F2521CC2F30B02042A01D2042077
:1016900022E0B0FBF1F0401CC0F30B001CE0A2689C
:1016A000F2B301EBC10303EB0116431EB3FBF6F3E8
:1016B0005B1C43F480431B0549D092B301EBC1028C
:1016C00002EB0111401EB0FBF1F0401CC0F30B0017
:1016D00040F4804040F400402168CA694CF6FF7332
:1016E0009A431043C861D4E9071001432068026897
:1016F00022F0C00211430160D4E9030101432068D4
:10170000826848F2FF339A4311438160D4E90501AE
:1017100008432168CA6822F0FF021043C86001E054
:101720000EE016E02068016841F0010101602564C7
:10173000202084F83D00256384F83E50002070BDD1
:1017400001EB4106431EB3FBF6F35B1CB3E701203C
:10175000C2E701EB4101401EB0FBF1F0401CC0F3B9
:101760000B00B7E7A086010080841E0000093D0041
:1017700040420F002DE9FF4F83B09A46DDE91197F3
:1017800093460446DDF84080FFF72AFF054694F8AB
:101790003D00202870D1192301227149204600956F
:1017A00003F0B5F80028F5D194F83C00012863D087
:1017B000012084F83C0020680168C90703D1016852
:1017C00041F0010101602068016821F400610160BD
:1017D000222084F83D00402084F83E000026266444
:1017E000C4F82480A4F82A90608D20855D48E062CA
:1017F000CDE9007553465A462046049902F09EFFF3
:1018000000287CD1208DD0B1012821D00228206869
:1018100024D0416980690090208D032869D801286F
:101820002BD0514902283B464FF00002009559D079
:101830008846204603F06BF8002860D13CE0206821
:10184000416981690091016841F40071016077E0AC
:101850002068016821F480610160F0E7016821F4EB
:10186000806101602068016841F4006101602068C6
:1018700041698069009063E06FE02A46394620465E
:1018800003F0C5F898BB20680069616A08704EE0F3
:101890002068016841F40071016020680069616A94
:1018A0000870606A401C6062218D491E2185618D2F
:1018B000491E6185216838E02068016821F4806153
:1018C000016020680069616A0870606A401C60629B
:1018D000208D401E2085608D401E60853B46002285
:1018E00041460095204603F012F800B9D0E706E023
:1018F000FFE72A463946204603F089F818B101204F
:1019000007B0BDE8F08F20680069616A0870606AFE
:10191000401C6062218D491E2185618D491E6185B3
:1019200021684A69D24352070AD409690170606A82
:10193000401C6062208D401E2085608D401E6085A9
:10194000208D00287FF468AF202084F83D0084F8C3
:101950003E6084F83C600020D2E70220D0E700001F
:10196000020010000000FFFF040001002DE9FF4FFE
:1019700083B09A46DDE9119793460446DDF840802E
:10198000FFF72EFE054694F83D0020287FD119234D
:10199000012240492046009502F0B9FF002876D187
:1019A00094F83C00012872D0012084F83C002068A3
:1019B0000168C90703D1016841F001010160206895
:1019C000016821F400610160212084F83D0040207D
:1019D00084F83E0000262664C4F82480A4F82A90E7
:1019E000608D20852C48E062CDE9007553465A464B
:1019F0002046049902F020FF70B930E02A463946AB
:101A0000204602F0DEFF58B1206C042804D1206883
:101A1000016841F400710160012007B0BDE8F08F5A
:101A2000606A216800780861606A401C6062218DEC
:101A3000491E89B22185628D521E628522685369D2
:101A4000DB435B070BD469B100781061606A401C0E
:101A50006062208D401E2085608D401E6085208D37
:101A60000028CBD12A463946204602F084FF0028C0
:101A7000CAD154F83D0B016841F400710160202087
:101A800004F81E09E67766770020C6E7FFE7022024
:101A9000C3E70000020010000000FFFF2DE9F04145
:101AA00086B0044614216846FEF789FC2F4A216857
:101AB000DFF8BC8000252E4803241226042708F1F5
:101AC000100891421BD1016841F0200101600068BB
:101AD000CDE9004600F02000CDE90470CDE90254C4
:101AE00069462448FFF77AFCD8F8001041F48001D9
:101AF000C8F80010D8F8000000F4800031E01E4A59
:101B000091422FD1016841F004010160016801F0A8
:101B100004010591016841F0010101600068CDE90F
:101B2000025400F0010005905015CDE90006694609
:101B300004971248FFF752FC4FF48070CDE900067D
:101B4000CDE90254694604970D48FFF747FCD8F8E1
:101B5000001041F40001C8F80010D8F8000000F4AB
:101B60000000059006B0BDE8F0810000005800407C
:101B70003038024000140240005C0040000802407F
:101B80000000024002488168027811448160704779
:101B9000000000200B4810B5016841F4007101609D
:101BA000016841F480610160016841F48071016065
:101BB000032000F06FF80F2000F006F800F024F882
:101BC000002010BD003C024070B50D4D04464FF49E
:101BD0007A712878B1FBF0F00A490968B1FBF0F09E
:101BE00000F0E1FC48B9102C07D200222146501E1B
:101BF00000F030F800206C6070BD012070BD000066
:101C0000000000200C0000200A4808B5016841F4DB
:101C100080410160006800F4804000900548001F8A
:101C2000016841F080510160006800F08050009030
:101C300008BD000044380240002809DB00F01F0204
:101C4000012191404009800000F1E020C0F800111E
:101C500070470000F0B40E4B1B680C46C3F3022320
:101C6000C3F10705042D00D90425191D072901D248
:101C7000002300E0DB1E012606FA05F1491E214083
:101C800099409E40761E16403143F0BC03F025BAC1
:101C90000CED00E0064900F0070208684FF6FF036C
:101CA000184040EA0220034A1043086070470000D1
:101CB0000CED00E00000FA052DE9F0470E460500A6
:101CC00065D0DFF81481D8F80000F7B200F0070003
:101CD000B04207D288F80070D8F8000000F0070082
:101CE000B04254D128683D4C810712D5400703D536
:101CF000206840F4E05020602878000703D5206871
:101D000040F4604020602068A96820F0F00008439B
:101D100020602878C0072DD030496868083901282C
:101D200012D0022813D0032811D00968890700298E
:101D30002DDA216821F0030101432160FFF750FCF7
:101D4000814641F2883A0EE009688903EFE70968A5
:101D50008901ECE7FFF744FCA0EB0901514502D9EA
:101D60000320BDE8F0872068696800F00C00B0EB44
:101D7000810FEFD1D8F80010404601F00701B142C1
:101D800007D90770006800F00700B04201D00120B9
:101D9000E7E72878400705D52068E96820F4E05097
:101DA000084320602878000706D52068296920F4B8
:101DB000604040EAC100206000F03EF82168084A17
:101DC000C1F30311515CC840064908600648006829
:101DD000FFF7FAFE0020C4E7003C0240083802404A
:101DE000405200080C000020040000200148006858
:101DF000704700000C00002004480549006809688D
:101E0000044AC1F38221515CC84070470C00002095
:101E10000838024050520008044805490068096823
:101E2000044AC1F34231515CC84070470C000020A5
:101E30000838024050520008154810B5006810F0EC
:101E40000C02144813D01449042A0FD0082A0ED1CA
:101E50000F4C241F2268236802F03F025B0207D563
:101E60002068C0F38810A0FB010106E0084610BD01
:101E70002168C1F38811A1FB00010023FEF7F6F9E8
:101E80002168C1F30141491C4900B0FBF1F010BDCC
:101E9000083802400024F400001BB7002DE9F84F79
:101EA00004006ED02078DFF84C93C007A9F1040538
:101EB0004AD009F104000168C1F38101012908D069
:101EC0000068C0F3810002280AD1D9F8000040025E
:101ED00006D52868800337D560680028E1D033E054
:101EE0006068B0F5803F10D0B0F5A02F286810D002
:101EF00020F480302860286820F480202860606802
:101F0000A8B1FFF76DFB06460DE0286840F480306D
:101F1000F4E740F480202860F7E700BFFFF760FB9C
:101F2000801B642873D828688003F7D50CE0FFF77E
:101F300057FB064605E000BFFFF752FB801B6428F5
:101F4000F0D828688003F7D42078DFF8AC828007C7
:101F50004FF0000A3ED5A748001D016811F00C0F94
:101F600008D00068C0F3810002280BD1D9F8000026
:101F7000400207D42868800716D5E068012800D100
:101F800012E033E1E068B8B10120C8F80000FFF7C3
:101F900027FB064605E000BFFFF722FB801B022857
:101FA000C0D828688007F7D52868216920F0F80094
:101FB00040EAC10028600DE0C8F800A0FFF710FB60
:101FC000064604E0FFF70CFB801B02281FD8286898
:101FD0008007F7D42078000722D5864F87486169AB
:101FE000703771B101210160FFF7FAFA064604E08B
:101FF000FFF7F6FA801B022809D838688007F7D562
:102000000EE0C0F800A0FFF7EBFA064605E082E01C
:10201000FFF7E6FA801B02287DD838688007F7D4DE
:102020002078400768D5DFF8CCB100270BF13C0BD6
:10203000DBF80000C0000BD4DBF8001041F0805149
:10204000CBF80010DBF80000012700F08050009072
:102050006B4E3068C00510D4306840F4807030603A
:10206000FFF7BEFA009005E0FFF7BAFA0099401AB0
:10207000022850D83068C005F6D55E4EA0686C3690
:1020800001280FD00528306810D020F00100306002
:10209000306820F004003060A068B8B1FFF7A0FA03
:1020A00000900FE0306840F00100F4E740F00400D9
:1020B0003060F7E7FFF794FA0099411A41F288304F
:1020C000814266D830688007F4D50EE0FFF788FAC1
:1020D000009007E0FFF784FA0099411A41F2883036
:1020E000814256D830688007F4D42FB1DBF8001055
:1020F00021F08051CBF80010A069C8B33D49091DFB
:102100000968C1F3810102294AD00228504607D04C
:10211000C8F8600000E03CE0FFF762FA04463BE0EC
:102120004746C8F86000FFF75BFA064605E000BFC7
:10213000FFF756FA801B02282BD828688001F7D4B5
:10214000D4E907010843A16A2E4A490802EB01417C
:10215000626A41EA8211084394F82C1040EA016156
:10216000C9F8001001203866FFF73AFA044606E085
:102170003EE000BFFFF734FA001B022809D82868A8
:102180008001F7D534E000BFFFF72AFA001B0228D0
:1021900002D90320BDE8F88F28688001F4D427E035
:1021A0000128F7D0D9F80000E26900F480019142DB
:1021B0001CD1226A00F03F01914217D147F6C0714D
:1021C000626A0140B1EB821F10D1A26A4FF0FF3367
:1021D00000F4403103EB5202B1EB024F06D194F808
:1021E0002C1000F07060B0EB016F01D00120D1E73E
:1021F0000020CFE70438024000004742800E4742EB
:10220000007000400000FFFF70B5040009D0606A54
:10221000002540B125616561A56294F8510040B187
:102220000CE0012070BD6068B0F5827FF4D0E561FC
:10223000F2E784F85050204600F044F8022084F879
:1022400051002068016821F040010160A0882189C7
:1022500000F4827001F404410843A18901F4006193
:102260000843217C01F002010843217D01F00101B6
:102270000843218B01F400710843217F01F03801EC
:10228000084394F8201001F080010843218D01F4E7
:102290000051084321680860A069042101EA104048
:1022A00094F8241001F01001084321684860206868
:1022B000C16921F40061C1616565012084F85100A4
:1022C000002070BD2DE9F04186B006461421684615
:1022D000FEF775F835493068884264D134480024E7
:1022E000016841F480510160006800F4805005905D
:1022F0002F481438016841F002010160016801F0C3
:1023000002010591016841F00101016000680225A8
:1023100000F0010005901820CDE9000502AA03276E
:102320004FF0050882E8900169462248FFF756F809
:102330008020CDE9000502AA694682E890011E4886
:10234000FFF74CF81E4D1D487F06E5E802074020C8
:102350004FF48068A5E81101C00245F81449AC614A
:10236000C5E9074016486C62FEF76AFF08B1FEF740
:10237000BFF8B564AE63124D104860351838286058
:10238000C5E90174C5E903486C614FF44030AC61A4
:10239000C5E9074028466C62FEF752FF08B1FEF718
:1023A000A7F8F564AE6306B0BDE8F08100300140E7
:1023B00044380240000402400000024058640240D9
:1023C0004C0200202DE9F84F044690F850000027F9
:1023D0000A9E1D4692468B464FF0010901280ED0F9
:1023E000012084F85000FFF7FBF8804694F8510074
:1023F000616801280CD0B1F5827F07D102E002208C
:10240000BDE8F88FA16809B9042801D00227C2E00D
:10241000BBF1000F27D0BAF1000F24D01DB394F800
:102420005100042802D0052084F851000020606586
:10243000C4F838A0E587A587C4F830B0E586A5863E
:102440002064606420680168490603D4016841F093
:1024500040010160E068B0F5006F606805D0E8B346
:10246000012D46D07FE0012795E008B1012D39D13B
:10247000206B21680088C860206B801C2063E08E80
:10248000401EE0862EE02068816889070FD5E18E26
:1024900069B1B9F1010F0AD1216B0988C160206BC4
:1024A000801C2063E08E401EE0864FF0000920680B
:1024B0008168C9070CD0E18F51B1C068A16B088059
:1024C000A06B801CA063E08F401EE0874FF00109E5
:1024D000FFF786F8A0EB0800B04200E009E001D366
:1024E000701C50D1E08E0028CDD1E08F0028CAD1D9
:1024F0003FE0206B216800780873206B401C20634C
:10250000E08E401EE0862EE02068816889070FD5A6
:10251000E18E69B1B9F1010F0AD1216B097801731C
:10252000206B401C2063E08E401EE0864FF00009C7
:1025300020688168C9070CD0E18F51B1C068A16BD8
:102540000870A06B401CA063E08F401EE0874FF036
:102550000109FFF745F8A0EB0800B04202D3701C58
:1025600001D010E07EB1E08E0028CDD1E08F0028B0
:10257000CAD142463146204602F0C8FA28B10127A6
:102580002020606507E0032705E0A06818B92068EF
:10259000C16880680090012084F85100002084F810
:1025A000500038462CE710B5401EB0F1807F01D3B3
:1025B000012010BD4FF0E02460610F21601702F090
:1025C0008CFD0020A06107202061002010BD10B507
:1025D000040003D094F83D0010B107E0012010BDC5
:1025E000002084F83C00204600F01EF8022084F809
:1025F0003D00211D206800F09BFD012084F846006D
:1026000084F83E0084F83F0084F8400084F84100DC
:1026100084F8420084F8430084F8440084F84500BC
:1026200084F83D00002010BD08B5006806498842C6
:1026300008D10648016841F400310160006800F4E7
:102640000030009008BD00000044014044380240C2
:1026500010B586B0044614216846FDF7B0FE0E4959
:102660002068884215D10D480021026842F02002FE
:102670000260006800F020000590402000900220D9
:10268000CDE901010320CDE9031069460448FEF7B6
:10269000A5FE06B010BD00000044014030380240E5
:1026A0000014024070B5044690F83C0000260D4628
:1026B00001280FD0012084F83C006AB1042A1DD003
:1026C000082A2FD00C2A3FD00126002084F83C0095
:1026D000304670BD022070BD206802F09FFA20686D
:1026E000816941F0080181612068816921F004015C
:1026F0008161206881692A69114311E0206800F036
:102700007BFD2068816941F40061816120688169F5
:1027100021F480618161206881692A6941EA02218E
:102720008161D2E7206802F0A9FA2068C16941F00E
:102730000801C1612068C16921F00401C1612068FC
:10274000C1692A69114311E0206802F0CBFA2068C0
:10275000C16941F40061C1612068C16921F48061EF
:10276000C1612068C1692A6941EA0221C161ACE7FF
:1027700010B5040003D094F83D0010B107E001202B
:1027800010BD002084F83C00204600F01EF8022016
:1027900084F83D00211D206800F0CAFC012084F867
:1027A000460084F83E0084F83F0084F8400084F836
:1027B000410084F8420084F8430084F8440084F81F
:1027C000450084F83D00002010BD704770477047F9
:1027D000F8B5016804460868CA684B6910F00F0F25
:1027E0004FF0000559D003F0010602F4907737430B
:1027F00065D0C10705D0D10503D5216C41F0010199
:102800002164410705D5D90703D0216C41F00201AD
:102810002164810705D5D90703D0216C41F004015B
:102820002164010707D502F02001314303D0216C58
:1028300041F008012164216C00293AD0800604D5BA
:10284000900602D5204602F021FB20684069216CE9
:10285000C0F38010090700D460B3204602F083FB68
:1028600020684069400621D52068143050E8001FD8
:1028700021F0400140E80012002AF5D1A06BA8B178
:102880006C490165A06BFEF7F9FB002811D0A06B25
:10289000016D01B0BDE8F040084783060FD59306EF
:1028A0000DD52046BDE8F84002F0F0BA2046FFF70B
:1028B0008EFFF8BD2046FFF78AFF2564F8BD266B22
:1028C0002023012E79D1C60677D5D60675D508689E
:1028D000486800904869400640D5A16B0868406888
:1028E0000004000CEAD0A28D8242E7D9E085C869D5
:1028F000B0F5807F2DD020680C3050E8001F21F407
:10290000807140E80012002AF5D12068143050E8A8
:10291000001F21F0010140E80012002AF5D12068D3
:10292000143050E8001F21F0400140E80012002A56
:10293000F5D184F83E30256320680C3050E8001F44
:1029400021F0100140E80012002AF5D1A06BFEF73B
:102950004CFBA08DE18D401A81B229E0A08DE18D64
:10296000401A81B2E08D0028A8D00029A6D02068A6
:102970000C3050E8002F22F4907240E80026002E20
:10298000F5D12068143050E8002F22F0010240E811
:102990000026002EF5D184F83E30256320680C30E7
:1029A00050E8002F22F0100240E80023002BF5D160
:1029B0002046FFF70BFFF8BDFFE705062BD51506F0
:1029C00029D594F83D002128F5D1A068B0F5805FA5
:1029D00001D12069B0B1206A411C216221680078D0
:1029E0004860E08C401E0004000CE084E3D12068C5
:1029F000C16821F08001C1602068C16841F04001D8
:102A0000C160D8E7206A0088C0F308004860206AE7
:102A1000801C2062E5E74006CDD55006CBD5CA68BC
:102A2000204622F04002CA6084F83D3000F04FF9A1
:102A3000C1E700005350000870B5040004D094F8BA
:102A40003D00002510B106E0012070BD84F83C5027
:102A5000204600F023F8242084F83D002068C16857
:102A600021F40051C160204602F08AF92068016912
:102A700021F4904101612068416921F02A014161FE
:102A80002068C16841F40051C1602564202084F8A9
:102A90003D0084F83E00002070BD000070B586B097
:102AA000064614216846FDF78AFC244930688842AE
:102AB00041D123480025016841F0200101600068F0
:102AC00000F0200005901E481438016841F04001D4
:102AD00001600068694600F0400005904FF48440B2
:102AE00000900220CDE90105032003900820049006
:102AF0001448FEF773FC154C134820608005C4E9A8
:102B000001054FF48060C4E9035080106561C4E999
:102B10000650256220466562FEF792FB08B1FDF77C
:102B2000E7FCB463002211464720A663FFF792F842
:102B30004720FFF781F806B070BD00000014014087
:102B400044380240001802402864024098030020E4
:102B500090F83E30202B0ED159B152B190F83C3054
:102B6000012B08D0012380F83C300023036300F0E0
:102B700079BB012070470220704700002249087885
:102B8000302819D031281AD00A46B7EE000AD2ED03
:102B9000020A702818D092ED031A692817D0D2EDD6
:102BA000041A642816D0502817D049281AD044286F
:102BB0001DD0712820D021E09FED140A01E09FED87
:102BC000140A81ED010A19E030EE800A07E031EEC7
:102BD000000A09E031EE800A0BE030EEC00A81ED18
:102BE000020A0BE031EE400A81ED030A06E031EE05
:102BF000C00A81ED040A01E081ED050A01220249C3
:102C00000448FFF7A5BF000074000020000000008A
:102C10000000C84254030020704700002DE9F8432B
:102C2000044690F83D001F4616460D4620284CD11C
:102C3000C5B1BEB194F83C00012846D0012084F80B
:102C40003C004FF00008C4F84080212084F83D008B
:102C5000FEF7C6FCA6848146E684A068B0F5805FD6
:102C600003D004E00120BDE8F883206928B12E4696
:102C70005FF0000584F83C800EE00026FAE7802132
:102C8000204602F0EEF9A0B9AEB116F8010B2168AA
:102C90004860E08C401EE084E08C4B464FF0000220
:102CA00000970028EBD14FF04001204602F0D9F9FF
:102CB00030B10320D7E735F8020BC0F30800E6E790
:102CC000202084F83D000020CDE70220CBE77047AC
:102CD000FEE700007FB5002415480094019402949B
:102CE0001249039401604FF48031C0E9011404617A
:102CF000047680F820400F49C0E90A140125C56117
:102D0000C46080F830404561FDF79DFC08B1FDF7D7
:102D1000EFFB1020CDE90005694602940448FDF759
:102D2000E9FB002801D0FDF7E3FB7FBD0020014057
:102D3000940000200100000F7FB500241548009486
:102D4000019402941249039401604FF48031C0E968
:102D500001140461047680F820400F49C0E90A1488
:102D60000125C561C46080F830404561FDF76BFC0A
:102D700008B1FDF7BDFB0820CDE9000569460294C6
:102D80000448FDF7B7FB002801D0FDF7B1FB7FBD7C
:102D900000220140DC0000200100000F0F4810B5A8
:102DA0000D4901600621416000214FF4003281602D
:102DB000C0E9031212014261017641768176C17643
:102DC00001774177FDF7E3FF002803D0BDE810400D
:102DD000FDF78EBB10BD0000006400402401002000
:102DE000114808B5016841F48001016000680022C3
:102DF00000F48000009011463920FEF72BFF3920A7
:102E0000FEF71AFF002211463A20FEF723FF3A2070
:102E1000FEF712FF002211463B20FEF71BFFBDE824
:102E200008403B20FEF708BF303802402DE9F04F44
:102E300087B014216846FDF7C2FA5748002601689A
:102E400041F040010160016801F040010591016815
:102E500041F002010160016801F002010591016881
:102E600041F001010160016801F001010591016873
:102E700041F008010160016801F008010591016855
:102E800041F020010160016801F020010591016815
:102E900041F004010160016801F00401059101683D
:102EA00041F0800101600068DFF8F09000F08000E0
:102EB0000590012240214846FEF78DFBDFF8E0A097
:102EC0004FF48065002229465046FEF784FBDFF868
:102ED000D4B0012210215846FEF77DFB4FF4504834
:102EE000002241463048FEF776FB012211462E486B
:102EF000FEF771FB01244020CDE9000402946946ED
:102F000048460394FEF76AFA08204FF40417CDE907
:102F10000007694602944846FEF760FA0095CDE93D
:102F20000146694650460396FEF758FA1020CDE94F
:102F30000004022569465846CDE90245FEF74EFADF
:102F40002020CDE90007694602941848FEF746FAAA
:102F5000CDF80080CDE90145694613480395FEF799
:102F60003DFA6003CDE90006694602950E48FEF77A
:102F700035FA009469460C480194CDE90245FEF704
:102F80002DFA002211460920FEF764FE0920FEF703
:102F900053FE07B0BDE8F08F303802400018024001
:102FA000001C0240000002400004024000080240F1
:102FB0000D4810B50B4901600C49416000214FF4E8
:102FC00080428160C0E9031241618161C161016297
:102FD000FEF70CFB002803D0BDE81040FDF788BACF
:102FE00010BD0000005800404C010020A0860100E8
:102FF0000D4810B50B4901600C49416000214FF4A8
:1030000080428160C0E9031241618161C161016256
:10301000FEF7ECFA002803D0BDE81040FDF768BACF
:1030200010BD0000005C0040A0010020801A0600D6
:10303000104810B50E4901604FF4827141600021C3
:1030400002228160C0E903120122426152028261C0
:103050003822C0E90721416281620A21C162FFF77B
:10306000D3F8002803D0BDE81040FDF741BA10BDE9
:1030700000300140F401002010B588B01C216846E2
:10308000FDF79DF9144813490024C0E900144FF6D8
:10309000FF71C0E9024104618461FFF798FA08B149
:1030A000FDF726FA0C48FFF763FB08B1FDF720FA9D
:1030B0006020CDE900040294002269460648049489
:1030C000FFF7F0FA08B1FDF713FA0348FFF7C0FA6B
:1030D00008B010BD004401400C0300200C4810B59E
:1030E0000A4901604FF4E1314160002181600C2206
:1030F000C160C0E904128161C161FFF79DFC002835
:1031000003D0BDE81040FDF7F3B910BD0014014035
:1031100054030020FEE7FEE770477047FEF732BD1C
:103120000248016841F470010160704788ED00E0D9
:10313000F0B50268254C264D264E274F274B4FF001
:10314000804CA04209D0604507D0A84205D0B042CB
:1031500003D0B84201D0984204D122F0700E4A68E0
:1031600042EA0E02A0421BD0604519D0A84217D0F7
:10317000B04215D0B84213D0984211D0184DA84291
:103180000ED0184DA8420BD0174DA84208D0174DAD
:10319000A84205D0164DA84202D0164DA84203D130
:1031A00022F44075CA682A434D6922F080022A43FE
:1031B00002608A68C2620A688262A04201D09842B4
:1031C00001D10969016301214161F0BD00000140A5
:1031D0000004004000080040000C004000040140D2
:1031E00000400140004401400048014000180040F8
:1031F000001C004000200040F0B5026A22F01002DE
:103200000262026A436884690D6824F4E64444EA71
:1032100005248D6822F0200242EA05120F4D104E5F
:10322000A84201D0B04206D1CF6822F0800242EA23
:10323000071222F04002A84201D0B04207D14D69E6
:1032400023F4406343EA85038D6943EA85034360C1
:103250008461496881630262F0BD000000000140A2
:103260000004014038B5816282850025134604467A
:103270000564222084F83E00A26B1C48D063A26B38
:103280001B481064A26B1B48D064A06B0A460565FE
:103290002168A06B091DFEF73DF8206801684068B1
:1032A000009084F83C50206948B120680C3050E808
:1032B000001F41F4807140E80012002AF5D1206817
:1032C000143050E8001F41F0010140E80012002ACC
:1032D000F5D12068143050E8001F41F0400140E86B
:1032E0000012002AF5D1002038BD0000D14F00089F
:1032F0004D4F0008354D00080148FFF769BA00003E
:1033000054030020FEE7000030B40021084B0A46B9
:103310005FF0000003EBC004401CC0B26254802880
:10332000F8D3491CC9B20829F2D330BC00F0BCB8AC
:10333000160400200F4810B5016821F0807101606B
:10334000016841F0807101600B48016821F00101C2
:103350000160016841F0010101600021416000BF8E
:1033600000BF00BF406800F09FFB044600F004FB74
:10337000204310BDFCED00E0001000E07CB50546E8
:10338000002016460C460090019006226946122045
:1033900000F01EFD9DF801009DF80010000200B233
:1033A000084300EE100A0822F8EEC00A9FED3C0A1E
:1033B00060EE800AC5ED000A9DF803009DF802103A
:1033C000000200B2084300EE900AF8EEE00A60EE58
:1033D000800AC5ED010A9DF805009DF80410000261
:1033E00000B2084300EE900A69460020F8EEE00AB9
:1033F00020EE800A85ED020A00F0D0FC9DF8000066
:103400000F282ED19DF803009DF80210000200B293
:10341000084300EE100AF8EEC00A9FED220A60EEA3
:10342000800AC4ED000A9DF805009DF80410000212
:1034300000B2084300EE900AF8EEE00A60EE800A5F
:10344000C4ED010A9DF807009DF80610000200B2C5
:10345000084300EE900AF8EEE00A20EE800A84EDC0
:10346000020A02226946222000F0B2FC9DF8000008
:103470009DF80110C00040EA5110B0F5806F01DBEB
:10348000A0F5006000EE100AB4EE001AF8EEC00AD3
:10349000B3EE070A00EE810A86ED000A7CBD00004B
:1034A000E7416B3A58A08B3A70B5A4B0174E002490
:1034B0000DF10C0504F1B000C0B2002100F062F87B
:1034C0000021022000F05EF80021102000F05AF8E0
:1034D0005FF0000006EBC001095D2954401CC0B23A
:1034E0008028F7D34FF4807080210095CDE901103A
:1034F00007480123402278210068FEF737FA641C50
:10350000E4B2082CD6D324B070BD0000160400200D
:10351000480000202DE9F84F0025DDE90A691F4623
:1035200092468B468046082E00D1022500241CE0DE
:10353000381B401EC1B20A2000F0B0FEBAFBF0F00A
:103540000A21B0FBF1F201FB1200CDF8009080B12E
:103550003030C2B205EB560101FB0480C0B23346E5
:10356000594600F0FFF8641CE4B2BC42E0D3BDE869
:10357000F88F05EB560101FB0480C0B233463022C0
:10358000EEE7000013B5094884B004AC00684FF4BE
:10359000807201230094CDE9013209B1402200E09C
:1035A00000227821FEF7E2F906B010BD48000020A5
:1035B00070B500252C461121094800F0A7FF6D1CAD
:1035C000EDB20444C82DF6D300EE104ADFED050A33
:1035D0000548B8EE400A80EE801A80ED001A70BDF2
:1035E0009400002001007043700000202DE9F0439A
:1035F00087B0354D0E9E05F108042860A980226031
:10360000A3800C3C314A2660136823F0807313605A
:10361000136843F0807313602D4A136823F001038D
:103620001360136843F0010313600026566000BF67
:1036300000BF00BF52680022FDF7CDFF3220FDF72A
:10364000A1FEA98801222868FDF7C5FF3220FDF7F9
:1036500099FE012703A88DF80C60CDE900070A2622
:1036600002963B4600221C212068FEF783F8DFF813
:10367000648000250DF1140905EB450000EB0802FC
:10368000012352788DF8102004AACDE90027029674
:1036900018F800201C212068FEF768F9962000F039
:1036A00051FFCDF80090CDE90176012300221C21C5
:1036B0002068FEF75FF8962000F044FF6D1C042D93
:1036C000DADB07B0BDE8F08314000020FCED00E079
:1036D000001000E05852000800B585B00A2206210B
:1036E00003A88DE807001548012303221C21006868
:1036F000FEF740F8BDF90C0000EE100A1148F8EE94
:10370000C00A9FED0F0A60EE800AC0ED000ABDF905
:103710000E1000EE901AF8EEE00A60EE800AC0ED9E
:10372000010ABDF9101000EE901AF8EEE00A20EE42
:10373000800A80ED020A05B000BD000010000020E4
:103740009A99993EF803002000B587B000910021B6
:1037500001910291CDE9031306AB6946FDF7B0F87C
:1037600007B000BD2DE9FC4F1C460E4682468B4635
:103770000190082B0ED0600700D0012000EBD40090
:10378000610810FB01F0C0B28146203AD0B200902F
:1037900000204AE00620F7E7082C12D00C2C17D0A6
:1037A000102C1AD0182C43D10098234900EBC000EC
:1037B00001EB8001002711F80850E80712D00B9A9E
:1037C00013E000981D4900EB400001EB4001F1E7D8
:1037D00000981B4900EB4000EAE71A49009801EB0A
:1037E0000011E7E70B9828B300223146504600F05D
:1037F0005DF8761C7F1C6D08FFB2F6B2082FDCD393
:103800000AF1010000F0FF0A082C0AD00199AAEB86
:103810000100B0EB540F04D10BF108008A4600F010
:10382000FF0B08F101005E46C0B280464845B3D3A5
:10383000BDE8FC8F0122D8E7F05E00086452000862
:103840008C5400080059000810B5114C0022A188C2
:103850002068FDF7C0FE182000F0F0FD012000F008
:103860006BFB422000F068FB002000F065FB0020AD
:1038700000F062FB002000F05FFBA18801222068BD
:10388000FDF7A9FEBDE81040182000F0D7BD0000EC
:103890003000002030B1012807D100215FF0A700DF
:1038A000FFF770BE0021A620FAE7704730B5CC08BC
:1038B00001F0070301259D40EBB2064D05EBC00565
:1038C000C808285C0AB1184302E063EA0000C0435C
:1038D000285530BD160400207CB5060A8DF800601E
:1038E0008DF80100080ADDE906458DF80200100A8E
:1038F0008DF804008DF80520180A8DF806008DF863
:1039000003108DF8073008236A4621462846FFF742
:103910001BFF7CBD10B5174C0022A1882068FDF765
:103920005AFE182000F08AFD012000F005FB43201C
:1039300000F002FB002000F0FFFA002000F0FCFA8B
:103940005A2000F0F9FA5A2000F0F6FA5A2000F056
:10395000F3FA5A2000F0F0FA5A2000F0EDFAA188AC
:1039600001222068FDF737FEBDE81040182000F066
:1039700065BD0000300000202DE9F041002000F07E
:103980004DFA962000F0ACFD002000F047FA044606
:10399000962000F0A5FDB621142000F0A1FA5020D9
:1039A00000F09EFD002000F039FA962000F098FD0E
:1039B000002000F033FA962000F092FD0F2C02D088
:1039C000FF20BDE8F081DFF84C80002408F11205EB
:1039D00004EB440606EB08004178A85D00F080FA8D
:1039E000962000F07DFDA85D00F018FA07469620AD
:1039F00000F076FD70194078B84204D004EB440022
:103A000028448078DDE7641CE4B2062CE0D3002073
:103A1000D7E700004C00002010B558B1012810D1A4
:103A20000021C020FFF7AEFD0021A020BDE810401E
:103A3000FFF7A8BD0021C820FFF7A4FD0021A120A9
:103A4000F4E710BD10B5174C0022A1882068FDF7DF
:103A5000C2FD182000F0F2FC012000F06DFA4320B6
:103A600000F06AFA002000F067FA012000F064FA22
:103A7000002000F061FA002000F05EFA002000F063
:103A80005BFA002000F058FA002000F055FAA188F7
:103A900001222068FDF79FFDBDE81040182000F0CE
:103AA000CDBC0000300000202DE9F041002000F0E6
:103AB000E3F9962000F014FD002000F0DDF9044643
:103AC000962000F00DFDB6217E2000F01FFA502058
:103AD00000F006FD002000F0CFF9962000F000FD78
:103AE000002000F0C9F9962000F0FAFC1E2C02D04C
:103AF000FF20BDE8F081114D002400BF04EB440617
:103B00007719A85D797800F001FA962000F0E8FCBA
:103B1000A85D00F0B1F90646962000F0E1FC787847
:103B2000B04204D004EB440028448078E1E7641CF0
:103B3000E4B2062CE2D30020DBE700004C000020BA
:103B400010B5114C0022A1882068FDF744FD182013
:103B500000F074FC012000F0EFF94D2000F0ECF9CA
:103B6000002000F0E9F9002000F0E6F9012000F063
:103B7000E3F9A18801222068FDF72DFDBDE8104082
:103B8000182000F05BBC00003000002030B593B07E
:103B900030216846FCF713FC14210CA8FCF70FFC3D
:103BA0001D480025016841F080510160006800F067
:103BB000805011901948016841F48041016000680B
:103BC000022400F480401190012003901020049002
:103BD000009406940820CDE90750A820CDE90904F7
:103BE00004200B906846FEF759F908B172B6FEE75B
:103BF0000CA90F2081E831004FF4A0500F904FF432
:103C00008050109005210CA8FEF756F8002801D02E
:103C100072B6FEE713B030BD40380240007000407D
:103C200010B50821084800F071FC00EE100A0748A2
:103C3000B8EE400AD0ED000A20EE200ADFED040ABB
:103C400020EE200A10BD0000DC00002070000020E3
:103C50005D74214110B5154C0022A1882068FDF744
:103C6000BAFC012000F068F9442000F065F900205A
:103C700000F062F9012000F05FF9EE2000F05CF93D
:103C8000002000F059F9002000F056F9002000F063
:103C900053F9002000F050F9A18801222068FDF7B7
:103CA0009AFCBDE81040182000F0C8BB300000208E
:103CB0000FB4FC212DED020B10B5C0B06C4601A86D
:103CC000FCF77DFB0F4801210068009042A84218D4
:103CD00012F8012C6254491C0529F8DB052143A880
:103CE000421812F8052C6254491C0929F8DB0A23F2
:103CF0000922694644A8FEF791FF40B010BC5DF868
:103D00001CFB00004C6C00082DE9FC439846DDE9E3
:103D100009751600894600F108043B46009506D453
:103D20002B22FFF71FFDE0B24346324605E02D226D
:103D3000FFF718FD7242E0B24346CDE900754946EF
:103D4000FFF7E8FBBDE8FC83F0B501F003064FEA9E
:103D5000C2044FEAC3058BB08F0744EA460445EA24
:103D6000460504D5D204CDE90024DA0403E052016B
:103D7000CDE900245A01CDE90225CA08C1F380012A
:103D8000CDE9041201220021CDE906120E2109918C
:103D900008926946FCF702FE0BB0F0BD2DE9F04138
:103DA0000A4C15460E460746002201212046FDF723
:103DB00012FC2A463146384600F056FB2046BDE844
:103DC000F04101221146FDF706BC0000000402404C
:103DD000FEB5104D16460F46044600221021284617
:103DE000FDF7F9FB44F080008DF804004FF47A7081
:103DF0000090012302AA01A90748FEF7E3FA324620
:103E00003946204600F030FB012210212846FDF7FC
:103E1000E2FBFEBD00000240F401002030B5144D6D
:103E2000044685B0002201212846FDF7D4FB44F06A
:103E300080008DF808004FF47A74012304AA02A9C7
:103E40000C480094FEF7BEFA55208DF80C000123B3
:103E500001AA03A907480094FEF7B4FA012211460B
:103E60002846FDF7B8FB9DF8040005B030BD000002
:103E700000040240F401002030B5174D044685B01F
:103E8000002210212846FDF7A6FB44F080008DF8A3
:103E900010004FF47A74012303AA04A90F48009478
:103EA000FEF790FA55208DF80400012303AA01A91A
:103EB0000A480094FEF786FA012302AA01A90748DE
:103EC0000094FEF77FFA012210212846FDF783FBBC
:103ED0009DF8080005B030BD00000240F40100204C
:103EE00070B5094C0D460646002201212046FDF71B
:103EF00072FB2946304600F0DDFA2046BDE87040EE
:103F000001221146FDF767BB0004024070B5094C61
:103F10000D460646002210212046FDF75CFB29468F
:103F2000304600F0C7FA2046BDE87040012210215B
:103F3000FDF751BB00000240F8B507460120ADF87F
:103F40000000234E00217170ADF80000214D35E0D6
:103F5000BDF80000A9883842286801D0012200E09D
:103F60000022FDF738FB1B4C0122103CA188206881
:103F7000FDF731FB082000F061FAA18800222068DB
:103F8000FDF729FB082000F059FAA18801222068DA
:103F9000FDF721FB04F1180081880068FDF716FB8E
:103FA00020B17078BDF8001008437070BDF80000B3
:103FB0004FF6FF7101EA4000ADF80000BDF80000C7
:103FC000FF28C5D9BDE8F840182000F037BA000036
:103FD00004040020380000202DED028BA2B08A4896
:103FE00000908A48082302464021FFF7FFFA4FF469
:103FF000005187488A00CDE900024B00CDE902015B
:104000000246811400F052F9824800F09BF9FFF754
:1040100091F9814D814C00BFFFF78CF97F4A8049AF
:104020001C32A1F10C00FFF7A9F9E069A842F3D016
:104030007C4800F001F9FFF7BBFA012277497A4882
:10404000FEF786FDDFF8E0811AA908F13400CDE91A
:104050001E10734FDFF8CCB1012511A83C3F9FED36
:10406000738ADFED738A40F2FF1A4FF01009209037
:1040700026226D490DA8FCF770F9B8F826004646CF
:10408000ADF85A00D8F828001790B8F82C00ADF811
:104090006000B8F82E00ADF86200D8F83000199032
:1040A000DDE91E010922FCF758F996F83D008DF86C
:1040B000710096F83E008DF87200306C1D9034222D
:1040C00068462099FCF749F90DF1340CD7ED010A47
:1040D0009CE80F0094ED010AFFF7EAFD04F10802E5
:1040E0004F48D7ED010A002192EC031AB0EE483A8E
:1040F000F0EE682A94ED010A3C3801F029F8BDEE93
:10410000C00A00231A4610EE100A1946CDE900AB8A
:1041100000B2FFF7E1FBCDE9009597ED000A002121
:104120004E46BDEEC00A0623084610EE102AFFF7E1
:10413000EBFDCDE9006597ED010A06231021BDEEE8
:10414000C00A002010EE102AFFF7DEFDCDE9006561
:1041500097ED020A06232021BDEEC00A002010EED2
:10416000102AFFF7D1FDCDE9006597ED030A06237C
:104170003021BDEEC00A002010EE102AFFF7C4FD6A
:10418000FFF74EFDBDEEC00ACDE9006510EE102A26
:10419000062300214020FFF7B7FDCDE9006594ED2F
:1041A000020A06231021BDEEC00A402010EE102A9C
:1041B000FFF7AAFDCDE9006594ED030A062320214F
:1041C000BDEEC00A402010EE102AFFF79DFDCDE99C
:1041D000006594ED040A06233021BDEEC00A40209C
:1041E00010EE102AFFF790FD94ED050AB5EEC00A17
:1041F000F1EE10FA3FF43CAFFFF756F99FED0D0AD0
:1042000084ED050A34E70000A001002000180240F8
:10421000000402404C0100200000D2C274000020C3
:10422000D408002024010020540300200050C3467D
:1042300000007A440000000010B50446FCF7A2FE1E
:104240002068416941F0020141612068416941F003
:10425000100141610F492068884209D100231A46A4
:1042600019462046FFF770FD00231A460C210BE08B
:10427000094988420DD100231A4670212046FFF7D4
:1042800063FD00231A467C212046BDE81040FFF75D
:104290005BBD10BD00640040006800400246012084
:1042A00000E05043491EC9B2FBD270472DE9F041EE
:1042B00006AC94E8E010204CD4F800E02EF0807EAC
:1042C000C4F800E0D4F800E04EF0807EC4F800E0CE
:1042D0001A4CD4F800E02EF0010EC4F800E0D4F837
:1042E00000E04EF0010EC4F800E04FF0000EC4F8FC
:1042F00004E000BF00BF00BF6468114C206004F1FF
:104300000800A18002608380083005608680083044
:104310000760A0F804C0FFF797FAFFF795FAFFF7D8
:1043200093FAFFF78FFBFFF795FCFFF709FCBDE859
:10433000F041FFF7EFBA0000FCED00E0001000E0F4
:10434000280000203C4910B508604FF47A70FDF752
:1043500019F80021AE20FFF715F900210220FFF720
:1043600011F900211020FFF70DF900214020FFF77F
:1043700009F90021B020FFF705F900218120FFF79E
:1043800001F90021CF20FFF7FDF80021A120FFF760
:10439000F9F80021A620FFF7F5F80021A820FFF783
:1043A000F1F800213F20FFF7EDF80021AD20FFF7E5
:1043B000E9F800218B20FFF7E5F800213320FFF713
:1043C000E1F80021C820FFF7DDF80021D320FFF736
:1043D000D9F800210846FFF7D5F80021D520FFF7CE
:1043E000D1F800218020FFF7CDF80021D920FFF778
:1043F000C9F800211F20FFF7C5F80021DA20FFF7D8
:10440000C1F800211220FFF7BDF80021DB20FFF7E3
:10441000B9F800214020FFF7B5F8FEF775FF00213D
:10442000AF20FFF7AFF80020FFF734FABDE81040E7
:104430000020FFF7F1BA00004800002031B5084C19
:104440006568FDF7D3FC0749B0FBF1F000994143E3
:10445000081A00916168491B8142FBD338BD0000F6
:10446000001000E040420F002DE9FF4140F08000C5
:1044700017460D468DF804004FF47A76012303AAFF
:1044800001A90B480096FDF79DFF55208DF8080007
:10449000002409E001232A4602A905480096FDF7F9
:1044A00091FF641CE4B26D1CBC42F3D3BDE8FF81F4
:1044B000F401002013B582B04FF47A74012301AAED
:1044C00002A906480094FDF77DFF012301AA03A974
:1044D00002480094FDF776FF1FBD0000F4010020A4
:1044E00031B5084C6568FDF781FC0749B0FBF1F078
:1044F00000994143081A00916168491B8142FBD32E
:1045000038BD0000001000E040420F001FB5044617
:104510000120CDE900100020029069462046FBF7FB
:10452000E9FF08B1FBF7E4FF2046FCF74BF90A214D
:104530002046FCF7F1F82046FCF782F804B080B280
:1045400010BD000031B5084C6568FDF74FFC074908
:10455000B0FBF1F000994143081A00916168491BD2
:104560008142FBD338BD0000001000E040420F0044
:10457000464910B54A6822F440324A604A684368A6
:104580001A434A6001684A6822F480724A600168EE
:104590004A68036942EA03224A6001684A6822F0D5
:1045A00040724A6001684A6883681A434A60016839
:1045B0008A6822F400628A6001688A68C3681A43C4
:1045C0008A60816A6FF07062D14201688A6822F065
:1045D00070628A6001688A680CD0836A1A438A60B4
:1045E00001688A6822F040528A6001688A68C36A5A
:1045F0001A4301E022F040528A6001688A6822F082
:1046000002028A6001688A68037E42EA43028A6085
:1046100090F82010002901684A680FD042F4006227
:104620004A6001684A6822F460424A6001684A6848
:10463000174C436A04EB43331A4301E022F400624F
:104640004A600168CA6A22F47002CA620168CA6AD2
:10465000838B104C04EB03531A43CA6201688A68C7
:1046600022F400728A6001688A6890F8303042EA69
:1046700043228A6001688A6822F480628A60016845
:104680008A68406942EA8020886010BD00230140AA
:1046900000E0FFFF0000F0FF30B50468256825F456
:1046A00080252560046863608368402B036803D01D
:1046B00099600068C26030BD9A600068C16030BD1A
:1046C00010B5014600208B698A6A4FF0C07453B15F
:1046D000B3F5005F15D072B1012A0CD0022A0AD0BE
:1046E000032A09D104E01AB1012A06D0022A03D113
:1046F000C96AC90100D5012010BDC96AA142FAD01A
:1047000010BD002AF7D0012AF2D0022AF3D0032AE2
:10471000F3D010BD01681823CAB2103AB2FBF3F20D
:10472000054B6FF30901032A9B5CC36500D9091D82
:104730008165084670470000385200082DE9F84F9F
:104740000446006889460B9D01689846174641F467
:10475000806101602068016841F48071016000950A
:104760004FF0011B0022594620460A9B00F0CFF86B
:104770004FF4007A40B120680068C00501D5C4F844
:1047800040A00320BDE8F88F216809F0FE00086111
:104790002B46284920460A9A00F06CF9F0BB2068A5
:1047A0004169806900902A4620460A9900F009F97B
:1047B00040B1206C04283AD12068016841F40071AE
:1047C000016034E0FEB2B8F1010F09D02168380A67
:1047D00008612A4620460A9900F0F3F80028E8D13B
:1047E000206806612A4620460A9900F0EAF8002867
:1047F000DFD12068016841F48071016000950022DA
:10480000594620460A9B00F082F80028B3D121685F
:1048100009F0FF0040F00100086100E007E02B46CE
:10482000044920460A9A00F025F90028AAD0012060
:10483000A8E70000020001002DE9F84304460068E3
:104840000D46DDE9089701689846164641F48071E7
:1048500001604B4600224FF001112046009700F006
:1048600056F848B120680068C00502D54FF40070C2
:1048700020640320BDE8F883216805F0FE0008618C
:104880003B464A461549204600F0F4F888B92068AE
:104890004169806900903A464946204600F091F807
:1048A00048B1206C042804D12068016841F40071EB
:1048B00001600120DEE7F5B2B8F1010F09D02168EF
:1048C000300A08613A464946204600F07AF8002846
:1048D000E7D1206805610020CCE70000020001005C
:1048E00001684A69D24352050FD46FF480624A616D
:1048F000002140F8301F202242738173026942F088
:1049000004020261017301207047002070472DE905
:10491000F0471E4690460D460446C1F30747DDF8B2
:10492000209008E0701C06D0FCF75AFEA0EB0900AE
:10493000B0420FD876B12068012F18D0806925EADF
:1049400000000004000C14D000214145EAD00020F2
:10495000BDE8F087002044F8300F20216173A07378
:10496000216941F02001216120730120F0E74069B5
:10497000E5E70121E9E770B516460D4604460DE06E
:104980002046FFF7ADFF08B1012070BD681C05D0BF
:10499000FCF726FE801BA84207D835B12068406985
:1049A000C0434007ECD4002070BD002044F8300F15
:1049B00020216173A073216941F0200121612073DE
:1049C000E2E770B516460D4604460DE02046FFF7B7
:1049D00087FF08B1012070BD681C05D0FCF700FE00
:1049E000801BA84207D835B120684069C043000643
:1049F000ECD4002070BD002044F8300F20216173FA
:104A0000A073216941F0200121612073E2E72DE9C3
:104A1000F041002590460E460446202717E04069E5
:104A2000C043C0060CD454F8301B6FF0100048612E
:104A300044F810596777A577206A2062257717E038
:104A4000FCF7CEFDA0EB0800B04208D83EB12068CC
:104A50004169C9434906E2D40020BDE8F08144F829
:104A6000305F6773A573206940F0200020612573D3
:104A70000120F2E72DE9F0479A4691460E4604469A
:104A800000254FF02008C1F3074725E02068406962
:104A9000C043400514D42068016841F400710160EE
:104AA00021686FF480604861256384F83D8084F854
:104AB0003E50206C40F00400206484F83C501FE01D
:104AC000B9F1FF3F08D0FCF78BFDA0EB0A01494587
:104AD0000CD8B9F1000F09D02068012F13D08069DC
:104AE00026EA00000004000C0BD0CFE744F8305F4A
:104AF00084F80D80A573206940F0200020612573A3
:104B00000120BDE8F0874069EAE7000038B50446B7
:104B10001248134B0068B0FBF3F04FF47A7358431C
:104B200000906068B0F5827F0DD10B4600920022A4
:104B30008021204600F016F870B1606D40F0200032
:104B40006065032038BD009830B1401E0090206899
:104B50008068C0430006F6D5002038BD0C00002058
:104B600000366E012DE9F8431E46914688460446FC
:104B7000089DFCF735FD401B351AFCF731FD074653
:104B800025480068C0F3CB30684338E0701C37D04C
:104B9000FCF726FDC01BA84203D215B1009860B3F4
:104BA0002CE02068416821F0E00141606068B0F5C8
:104BB000827F0BD1A068B0F5004F02D0B0F5806FB6
:104BC00004D12068016821F040010160A06AB0F5BD
:104BD000005F09D12068016821F40051016020685C
:104BE000016841F400510160012084F85100002067
:104BF00084F850000320BDE8F8830025401E009093
:104C00002068816838EA010004D000214945BDD1FF
:104C10000020F0E70121F9E70C000020F0B5026A5E
:104C200022F001020262036A42688469124E24F093
:104C300073050C682C4323F002058B682B430D4D44
:104C4000A84201D0B04205D123F00807CB683B430E
:104C500023F00403A84201D0B04205D14D6922F4EB
:104C6000407215438A692A434260846149684163FE
:104C70000362F0BD0000014000040140F0B5026A8B
:104C800022F480720262026A4368C46922F40072EC
:104C900024F073050C68124E2C438D6842EA0522FD
:104CA0000E4DA84201D0B04206D1CF6822F4006276
:104CB00042EA072222F48062A84201D0B04207D122
:104CC0004D6923F4405343EA05138D6943EA051304
:104CD0004360C4614968C1630262F0BD00000140E5
:104CE0000004014030B5026A22F480520262046A74
:104CF0004268C3690D6823F4E64343EA05238D68DF
:104D000024F4005444EA0534084DA84202D0084D6A
:104D1000A84204D14D6922F4804242EA85124260E1
:104D2000C36149680164046230BD000000000140B5
:104D30000004014070B5846B2068406994F83D1010
:104D4000C0F3C0100025212904D118B1E584204604
:104D500000F030F92068406994F83E10C0F38010EC
:104D6000222904D118B1E585204600F0FCF8206C1A
:104D700040F0100020642046FDF729FD70BD0000C2
:104D800070B5044600680169E26821F4405111439E
:104D900001612169A068E269084361691143084320
:104DA0002168CA6849F20C639A430243CA602068CA
:104DB0004169A26921F44071114341613149206880
:104DC000884202D03049884202D1FDF725F801E03F
:104DD000FDF712F8E2690023192164253226B2F5A5
:104DE000004F626828D0A0FB0101930F9200FBF7EF
:104DF0003DFA0146B0FBF5F06FF01802504301EBAD
:104E0000800006EB0010B0FBF5F000F0F002B1FB03
:104E1000F5F002EB0012B1FBF5F06FF01803584308
:104E200001EB800006EB0010B0FBF5F000F00F0086
:104E300021681044886070BDA0FB010192185B419D
:104E4000FBF714FA0146B0FBF5F00201B1FBF5F0F7
:104E50006FF01803584301EB800006EBC000B0FB75
:104E6000F5F000F0F80002EB4002B1FBF5F058431A
:104E700001EB800006EBC000B0FBF5F000F007008E
:104E8000D6E70000001001400014014008B590F87A
:104E90003E10222901D0022008BD82684FF48053C1
:104EA0009A4201D1016921B1816A9A421BD04AB16B
:104EB0000AE00268816A5268C2F308020A80816AC5
:104EC000891C08E0026972B10268526802F07F0230
:104ED0000A70816A491C8162C18D491E0904090C4E
:104EE000C18503D019E002685268F1E70168CA6819
:104EF00022F02002CA600168CA6822F48072CA6087
:104F000001684A6922F001024A61202180F83E10BE
:104F1000016B012903D0FDF731FE002008BD0021FF
:104F2000016301680C3151E8002F22F0100241E8C2
:104F30000023002BF5D101680A68D20602D50A6861
:104F400049680091818DFDF741FCE6E710B5806B63
:104F5000016B012902D0FDF75FFE10BD818D49086C
:104F6000FDF734FC10BD01680C3151E8002F22F42C
:104F7000907241E80023002BF5D10168143151E80B
:104F8000002F22F0010241E80023002BF5D1016B34
:104F9000012909D101680C3151E8002F22F01002DB
:104FA00041E80023002BF5D1202180F83E1000219C
:104FB0000163704701680C3151E8002F22F0C002F4
:104FC00041E80023002BF5D1202180F83D107047E7
:104FD00010B50146806B09680968C9052FD4002106
:104FE000C18501680C3151E8002F22F4807241E83C
:104FF0000023002BF5D10168143151E8002F22F075
:10500000010241E80023002BF5D10168143151E879
:10501000002F22F0400241E80023002BF5D120218F
:1050200080F83E10016B012909D101680C3151E86B
:10503000002F22F0100241E80023002BF5D1016B74
:10504000012902D0FDF79AFD10BD818DFDF7BEFB51
:1050500010BD10B5806B0021C185C184FDF7B7FB81
:1050600010BD2DE9F041984617460E460446069DB0
:1050700027E0681C25D02DB1FCF7B2FAA0EB0800A0
:10508000A8421ED920680C3050E8001F21F4D071CE
:1050900040E80012002AF5D12068143050E8001FC3
:1050A00021F0010140E80012002AF5D1202084F807
:1050B0003D0084F83E00002084F83C000320BDE859
:1050C000F0812068006836EA000004D00020B84271
:1050D000CFD00020F3E70120F9E70907090E0028E7
:1050E00004DB00F1E02080F80014704700F00F00AE
:1050F00000F1E02080F8141D7047C38D8B4226D14B
:105100005178137801EB032100EE101AB8EE400A33
:1051100080ED000AD178937801EB032109B200EE0B
:10512000101AB8EEC00A80ED010A5179137901EB2B
:10513000032109B200EE101AB8EEC00A80ED020A8F
:10514000D17900EE101AB8EE400A80ED030A7047DC
:1051500070EE600AC0ED040AB1B920EE810A80ED5C
:10516000080A90ED090A01EEA00A80ED090AB4EEE2
:10517000E20AF1EE10FA01DBC0ED092A90ED060A11
:1051800020EE020A80ED0A0AC0ED060A90ED080A38
:10519000D0ED090A30EE200AD0ED0A0A30EE200ADE
:1051A000B4EEC30AF1EE10FA01DDB0EE430A704727
:1051B0000F489FED100A40F2FF1180ED000A80EDCC
:1051C000010A80ED020A80ED030A80ED040A80EDF9
:1051D000050A80ED060A80ED070A80ED080A80EDD9
:1051E000090A80ED0A0A8A1D8185C2857047000080
:1051F0009808002000000000FCF7CCFCFEF7C6FC7D
:10520000FDF714FEFDF7ECFDFDF7D2FEFDF7F0FE15
:10521000FDF7C4FDFDF70CFFFDF72EFFFDF75AFD6E
:10522000FDF78AFDFDF75AFFFEF7D6FEFEE74FF0C9
:105230004070E1EE100A70470006101600061016C6
:105240000000000000000000010203040607080936
:1052500000000000010203040B080141090242C0E2
:10526000030A0B040000000000000000002F0000F3
:1052700000000700070000147F147F1400242A7F19
:105280002A12006264081323003649552250000098
:105290000503000000001C224100000041221C0008
:1052A0000014083E08140008083E0808000000A08A
:1052B0006000000808080808000060600000002086
:1052C00010080402003E5149453E0000427F400064
:1052D000004261514946002141454B3100181412EA
:1052E0007F10002745454539003C4A4949300001B7
:1052F0007109050300364949493600064949291E06
:105300000000363600000000563600000008142267
:105310004100001414141414000041221408000267
:105320000151090600324959513E007C1211127C8C
:10533000007F49494936003E41414122007F4141B9
:10534000221C007F49494941007F09090901003EAB
:105350004149497A007F0808087F0000417F4100E9
:10536000002040413F01007F08142241007F40405F
:105370004040007F020C027F007F0408107F003E47
:105380004141413E007F09090906003E4151215E2D
:10539000007F091929460046494949310001017F2A
:1053A0000101003F4040403F001F2040201F003FC0
:1053B0004038403F00631408146300070870080772
:1053C00000615149454300007F41410000552A5585
:1053D0002A55000041417F00000402010204004000
:1053E0004040404000000102040000205454547822
:1053F000007F484444380038444444200038444442
:10540000487F00385454541800087E0901020018DF
:10541000A4A4A47C007F080404780000447D40001C
:10542000004080847D00007F102844000000417F00
:105430004000007C04180478007C080404780038DC
:105440004444443800FC242424180018242418FC64
:10545000007C0804040800485454542000043F44CD
:105460004020003C4040207C001C2040201C003C90
:105470004030403C004428102844001CA0A0A07CE0
:10548000004464544C441414141414140000000018
:1054900000000000000000000000FC000000000010
:1054A00002000000000C020C0200000000000000DE
:1054B00090D0BCD0BC900003000300001824FE4430
:1054C0008C000302070201001824D8B04C800003AE
:1054D00000010201C038E438E000010202010202CA
:1054E000080600000000000000000000000000F8B6
:1054F0000402000000010204000204F8000000049D
:10550000020100009060F8609000000001000000BF
:105510002020FC202000000001000000000000000E
:1055200000000806000000002020202020000000CD
:105530000000000000000000000000020000000069
:105540000080601C0200040300000000F804040452
:10555000F8000102020201000008FC000000000245
:10556000030200001884442418000302020202000F
:1055700008042424D80001020202010040B088FC83
:1055800080000000000302003C242424C400010227
:1055900002020100F824242CC000010202020100D2
:1055A0000C04E41C0400000003000000D8242424A0
:1055B000D80001020202010038444444F80000030C
:1055C00002020100000010000000000002000000C4
:1055D00000002000000000000600000000205088AD
:1055E00004020000000001029090909090000000E2
:1055F00000000000000204885020000201000000AA
:105600001804C4241800000002000000F804E49408
:10561000F80001020202020000E09CF08000020398
:105620000000030204FC2424D8000203020201004B
:10563000F80404040C0001020202010004FC04044A
:10564000F80002030202010004FC24740C000203AF
:105650000202030004FC24740C0002030200000098
:10566000F0080444CC4000010202010004FC2020A8
:10567000FC040203000003020404FC040400020210
:1056800003020200000404FC0404060404030000F6
:1056900004FC24D00C0402030200030204FC0400F6
:1056A0000000020302020203FC3CC03CFC000300B9
:1056B0000300030004FC30C4FC04020302000300E6
:1056C000F8040404F80001020202010004FC24248E
:1056D0001800020302000000F8848404F8000102AC
:1056E0000207050004FC2464980002030200030280
:1056F000182424448C000302020201000C04FC0460
:105700000C0000020302000004FC0000FC04000185
:1057100002020100047C80E01C0400000300000081
:105720001CE03CE01C00000300030000049C609CA3
:105730000400020300030200041CE01C0400000239
:10574000030200000C84641C040002030202030034
:105750000000FE020200000007040400000E30C03A
:105760000000000000010200000202FE0000000430
:105770000407000000040204000000000000000014
:1057800000000000000008080808080800000200E7
:1057900000000000000000000040A0A0C0000001C8
:1057A0000202030204FC2020C000000302020100E8
:1057B00000C02020600000010202020000C020247E
:1057C000FC0000010202030200C0A0A0C000000112
:1057D000020202000020F824240400020302020056
:1057E0000040A0A0602000070A0A0A0404FC202050
:1057F000C0000203020003020020E40000000002D7
:1058000003020000000020E4000008080807000070
:1058100004FC80E020200203020003020404FC00D8
:105820000000020203020200E020E020C0000300AA
:105830000300030020E02020C00002030200030256
:1058400000C02020C00000010202010020E0202052
:10585000C000080F0A02010000C02020E000000183
:10586000020A0F0820E0402020000203020000008E
:105870000060A0A020000002020203000020F82027
:10588000000000000102020020E00020E000000112
:105890000202030220E020806020000003010000DB
:1058A0006080E080600000030003000020608060F2
:1058B000200002030003020020E02080602008088E
:1058C000070100000020A060200000020302020087
:1058D000000020DE0200000000070400000000FFBE
:1058E00000000000000F00000002DE2000000004A5
:1058F0000700000002010204040200000000000092
:105900000000000000000000000000000000000097
:10591000000000F80000000000000033300000002C
:1059200000100C06100C0600000000000000000033
:1059300040C07840C0784000043F04043F040400A5
:10594000007088FC08300000001820FF211E0000B5
:10595000F008F000E018000000211C031E211E00CA
:1059600000F00888700000001E2123241927211050
:1059700010160E00000000000000000000000000F3
:10598000000000E01804020000000007182040009A
:1059900000020418E000000000402018070000008A
:1059A000404080F0804040000202010F01020200EE
:1059B000000000F0000000000101011F01010100D2
:1059C000000000000000000080B070000000000037
:1059D00000000000000000000001010101010101C0
:1059E0000000000000000000003030000000000057
:1059F000000000008060180400601806010000002C
:105A000000E010080810E000000F102020100F0028
:105A1000001010F8000000000020203F20200000AF
:105A20000070080808887000003028242221300007
:105A300000300888884830000018202020110E000F
:105A40000000C02010F8000000070424243F2400B8
:105A500000F80888880808000019212020110E008D
:105A600000E0108888180000000F112020110E009F
:105A700000380808C83808000000003F0000000097
:105A80000070880808887000001C222121221C0058
:105A900000E010080810E0000000312222110F0081
:105AA000000000C0C0000000000000303000000016
:105AB0000000008000000000000080600000000086
:105AC000000080402010080000010204081020009F
:105AD00040404040404040000404040404040400EA
