:020000040800F2
:10000000600E002029020008572A0008592600081F
:10001000552A00081F040008A52B00080000000056
:100020000000000000000000000000005B2A000843
:100030005104000800000000592A00085D2A000849
:10004000430200084302000843020008430200087C
:10005000430200084302000843020008430200086C
:10006000430200085304000843020008430200084A
:10007000430200084302000843020008430200084C
:10008000430200084302000843020008430200083C
:10009000210400082D040008430200084302000860
:1000A000430200084302000843020008430200081C
:1000B000430200084302000843020008430200080C
:1000C00043020008430200084302000843020008FC
:1000D00043020008430200084302000843020008EC
:1000E00043020008430200084302000843020008DC
:1000F00043020008430200084302000843020008CC
:1001000043020008430200084302000843020008BB
:1001100043020008430200084302000843020008AB
:10012000430200084302000839040008450400089F
:10013000430200084302000843020008430200088B
:10014000430200084302000843020008430200087B
:10015000430200084302000843020008430200086B
:10016000430200084302000843020008430200085B
:100170004302000843020008430200080000000098
:10018000430200084302000800F002F800F03CF8C7
:100190000AA090E8000C82448344AAF10107DA45E2
:1001A00001D100F031F8AFF2090EBAE80F0013F0F8
:1001B000010F18BFFB1A43F0010318479C5C0000B5
:1001C000BC5C0000103A24BF78C878C1FAD8520746
:1001D00024BF30C830C144BF04680C6070470000C1
:1001E0000023002400250026103A28BF78C1FBD840
:1001F000520728BF30C148BF0B6070471FB504F0DD
:100200001CF91FBD10B510BD00F0CFF81146FFF767
:10021000F5FF04F0F9F800F0EDF803B4FFF7F2FF92
:1002200003BC00F0F5F80000094880470948004782
:10023000FEE7FEE7FEE7FEE7FEE7FEE7FEE7FEE796
:10024000FEE7FEE704480549054A064B70470000F3
:10025000612A00088901000860080020600E002063
:10026000600A0020600A002053EA020C00F0698056
:100270002DE9F04B4FF00006002B1FBFB3FA83F5BA
:1002800003FA05F424FA05F65E4012BF1643B2FAEB
:1002900082F502FA05F4C5F120051EBF22FA05FC1D
:1002A00044EA0C04203556EA044C4FEA144418BFC3
:1002B000641C4FF000084FF00009904271EB030CF2
:1002C00039D3002919BFB1FA81F701FA07F6B0FA5C
:1002D00080F700FA07F6C7F120071EBF20FA07FCD7
:1002E00046EA0C062037B6FBF4FCA7EB0507103FE7
:1002F00007F01F0BCBF120060CFA0BFB2CFA06F6CD
:1003000044BFB3460026202FA4BF5E464FF0000B2B
:100310005BEA060C08BF4FF0010B19EB0B09ABFBB6
:10032000027C48EB0608C01B06FB02CC0BFB03CC8F
:1003300071EB0C01C1E70B46024641464846BDE859
:10034000F08B13B54FF000004FF00001AFF30080C9
:10035000BDE81C4070474FF0000200B513469446BC
:100360009646203922BFA0E80C50A0E80C50B1F10D
:100370002001BFF4F7AF090728BFA0E80C5048BF21
:100380000CC05DF804EB890028BF40F8042B08BFBF
:10039000704748BF20F8022B11F0804F18BF00F8BB
:1003A000012B7047704770477047754600F02CF876
:1003B000AE4605006946534620F00700854618B052
:1003C00020B5FFF73FFFBDE820404FF000064FF09B
:1003D00000074FF000084FF0000B21F00701AC467A
:1003E000ACE8C009ACE8C009ACE8C009ACE8C00999
:1003F0008D46704710B50446AFF300802046BDE837
:100400001040FFF70ABF000000487047FC070020BB
:1004100001491820ABBEFEE7260002007047FEE748
:10042000014800F06ABB000014010020014800F000
:1004300064BB000014010020014800F0BFBD0000B3
:100440009C020020014800F0B9BD00003C020020E1
:100450007047082000F00CBF72B6FEE778B50024A4
:10046000009490F83C20012A19D0012280F83C2009
:100470000A6807230568092A13D9EE680A3A02EBCD
:10048000420293409E43EE600B788A680A3B03EB7E
:1004900043039A400368DD682A43DA6010E00220D3
:1004A00078BD2E6902EB420293409E432E610B7889
:1004B0008A6803EB43039A4003681D692A431A6163
:1004C0004A681F23072A13D205686E6B521E02EB7F
:1004D000820293409E436E630B790A885B1E92B240
:1004E00003EB83039A4003685D6B2A435A6327E05A
:1004F00005680D2A12D22E6BD21F02EB82029340A6
:100500009E432E630B790A88DB1F92B203EB8303B1
:100510009A4003681D6B2A431A6311E0EE6A0D3A94
:1005200002EB820293409E43EE620B790A880D3BF8
:1005300092B203EB83039A400368DD6A2A43DA62CE
:10054000164B0568144A9D4206D10D68122D03D141
:10055000556845F48005556005689D4218D10B68C3
:10056000102B01D0112B13D1536843F400035360B7
:10057000096810290CD10A490A4A0968B1FBF2F14D
:1005800001EB8101490000E0491E00910029FBD1E7
:1005900080F83C40002078BD00230140002001404D
:1005A0000C00002040420F000068C06C704770B51E
:1005B00004004FF0000503D0206C002610B107E0C6
:1005C000012070BD204600F01DF8666484F83C6090
:1005D000206CC00610D4206C20F4885040F002003B
:1005E0002064204603F032FB6664206C20F0020099
:1005F00040F00100206400E0012584F83C602846BA
:1006000070BD000010B586B0044614216846FFF79F
:10061000A2FE174B2268002116489A4209D10168B0
:1006200041F480710160006800F48070059006B0AC
:1006300010BD114B9A42FAD1026842F48062026006
:10064000006800F4806005900A481438026842F09F
:1006500020020260006800F020000590181500904C
:100660000320CDE901016946044800F00DFEDEE7F4
:1006700000200140443802400022014000140240A2
:100680002DE9F041044600680D4681684FF00007EF
:1006900049050BD58068C00508D5206C40F02000C6
:1006A000206484F83C700120BDE8F08100F0EEFE8B
:1006B000064613E0681C11D025B100F0E7FE801B50
:1006C000A8420BD920680068800707D4206C40F04E
:1006D0000400206484F83C700320E5E7206800688B
:1006E0008007E7D521686FF012000860206C40F4A5
:1006F000007020642068816811F0405F13D1217E72
:1007000089B9C16A11F4700F02D0806840050AD41B
:10071000206C20F480702064206CC00403D4206C12
:1007200040F0010020640020BEE7000018B5002161
:10073000009190F83C20012A07D0012280F83C204B
:1007400002689368DB0702D011E0022018BD9368AD
:1007500043F0010393602E4A2E4B1268B2FBF3F272
:1007600002EB420200E0521E0092002AFBD1026816
:100770009368DB0742D0036C40F20164A34343F467
:100780008073036453685B0505D5036C23F4005341
:1007900043F480530364036CDB0404D5436C23F0FF
:1007A0000603436400E0416480F83C101A496FF08E
:1007B0002203136049680068CA06184906D08842B7
:1007C00024D1816811F0405F13D01FE08842F8D037
:1007D000134A904203D1D1F80423D206F1D0114A32
:1007E000904213D1D1F8041301F01F011029E8D36E
:1007F0000CE0816841F08041816007E0016C41F0CC
:1008000010010164416C41F001014164002018BDF8
:100810000C00002040420F00002301400020014056
:100820000021014000220140F0B590F820500468FA
:10083000A468012D05D0022D03D0416A41F4802126
:100840005DE014F0406F01D1E50055D5C4F30164BB
:10085000022C03D9416A41F4000150E00125A54072
:100860001D608D684FF4C0739DB1CE6835434E68EE
:1008700045EAC605066803EB0417F5514FF4C27547
:10088000076805EB04150E697E51097D012905D025
:1008900009E00E88CD6845EA4655EBE701684E59F8
:1008A00046F480764E511179D579567941EA056141
:1008B00095792D0445EA062529434FF4C676056847
:1008C00006EB0416A9511178D57841EA05619578AF
:1008D00052782D0445EA022211434FF4C475026890
:1008E00005EB04155151006803EB0411425842F026
:1008F000010242500020F0BD416A41F40011416202
:100900000120F0BD10B590F82020012A07D0022A5E
:1009100005D0416A41F480214162012010BD3B486D
:10092000D0F8002242F00102C0F80022D0F80022E4
:1009300022F47C52C0F80022D0F800224B6A42EA2E
:100940000322C0F800220A7D02F01F0301229A4010
:10095000D0F81C329343C0F81C32CB69B3B9D0F83D
:100960000C329343C0F80C328C894B6864F31F43FC
:100970004C6900EBC404C4F840320C890B6864F382
:100980001F434C6900EBC404C4F84432CB69012B0B
:1009900016D1D0F80C321343C0F80C320C884B68D7
:1009A00064F31F434C6900EBC404C4F840320C8963
:1009B000CB6864F31F434C6900EBC404C4F84432B1
:1009C0008B69002BD0F804320ED01343C0F80432E8
:1009D0000B69002BD0F8143208D01343C0F814323E
:1009E000096A012904D008E09343EFE79343F5E750
:1009F000D0F81C121143C0F81C12D0F8001221F0DC
:100A00000101C0F80012002010BD00000064004089
:100A1000704730B590F82040012C05D0022C03D04F
:100A2000416A41F480215DE00468002955D02469C1
:100A3000A40754D04FF4D874056804EB01142D5961
:100A400015F00405956005682D594ED0ED085560E8
:100A500005682C5904F00204D4604FF4DA74056878
:100A600004EB01142D5905F00F05156105682D598A
:100A7000C5F30725956105682C59240C54614FF482
:100A8000DC72046802EB0112A4581C700468A458BC
:100A9000240A5C700468A458240C9C700468A25852
:100AA000120EDA704FF4DE72046802EB0112A458E1
:100AB0001C710468A458240A5C710468A458240CAE
:100AC0009C710468A258120EDA71006881B1016944
:100AD00041F020010161002030BDE468A8E7416ACF
:100AE00041F400114162012030BD6D0D1560AFE78A
:100AF000C16841F02001C160EDE72DE9F05F0546D6
:100B0000006800244669D0F804908768D0F80CB0DB
:100B1000D0F810A0D0F81880F10748D0F90714D009
:100B200001218160B80703D5284600F040FA0CE0A7
:100B3000780702D54FF4006407E0380702D54FF478
:100B4000805402E0284600F031FAF80516D52968ED
:100B50004FF480708860B80503D5284600F029FA64
:100B60000CE0780502D544F4005407E0380502D5BE
:100B700044F4804402E0284600F01AFAF80316D53F
:100B800029684FF480308860B80303D5284600F008
:100B900012FA0CE0780302D544F4004407E038036D
:100BA00002D544F4803402E0284600F003FA30070E
:100BB00007D55FEACB6004D52968102044F400749F
:100BC000C86070074FF0080707D55FEA0B7004D5BF
:100BD0002868C760284600F05FF9B00706D5286886
:100BE000C068800702D0284600F058F9700607D583
:100BF0005FEACA6004D52968102044F48064086163
:100C0000B00607D55FEA0A7004D528680761284650
:100C100000F070F9F00606D528680069800702D058
:100C2000284600F069F9B00308D55FEAC96005D528
:100C3000296810204860284600F08AF9F00307D59B
:100C40005FEA097004D528684760284600F0B4F9C7
:100C5000300446D55FEA497040D5F00504D55FEA17
:100C6000C87001D044F00104B00504D55FEA887073
:100C700001D544F00204700504D55FEA487001D53F
:100C800044F00404300529D518F0700F26D008F080
:100C90007000402815D006DC102809D020280AD082
:100CA000302816D10AE050280ED0602811D10EE06D
:100CB00044F008040DE044F010040AE044F020047D
:100CC00007E044F0400404E044F0800401E044F410
:100CD00080742868816921F070018161296804208D
:100CE0004860002C05D0686A204368622846FFF7F8
:100CF0008FFEBDE8F09F70B5040003D094F820008B
:100D000010B104E0012070BD204600F081F8206899
:100D1000016841F00101016000F0B8FB05460526BD
:100D200004E000F0B3FB401B0A2811D8206840689B
:100D3000C007F6D02068016821F00201016000F0D0
:100D4000A5FB05460BE000F0A1FB401B0A2806D9D5
:100D5000606A40F40030606284F82060D2E7206866
:100D600040688007EFD4207E0128206801683DD0CC
:100D700021F080010160607E01282068016838D080
:100D800021F040010160A07E01282068016833D075
:100D900021F020010160E07E0128206801682ED04A
:100DA00041F010010160207F01282068016829D0EE
:100DB00021F008010160607F01282068016824D0CB
:100DC00021F004010160D4E902010843D4E90412CE
:100DD000114308436168491E08432168C861002027
:100DE0006062012084F82000002070BD41F0800185
:100DF000C0E741F04001C5E741F02001CAE721F01A
:100E00001001CFE741F00801D4E741F00401D9E730
:100E100010B586B0044614216846FFF79CFA1B49BA
:100E2000206888422FD11A480021026842F00072DF
:100E30000260006800F000700590154810380268E4
:100E400042F0080202600068022200F008000590EB
:100E50000320CDE90210CDE9000209200490694683
:100E60000C4800F011FA00221146142000F048FE50
:100E7000142000F037FE00221146152000F040FE3D
:100E8000152000F02FFE06B010BD000000640040E9
:100E900040380240000C02407047000010B58AB094
:100EA0006B4602AA0021FFF7B4FD9DF801009DF8F2
:100EB00000109DF8074000EB01239DF803009DF80A
:100EC000021000EB01229DF805009DF8041000EBD4
:100ED00001210648038042808180C4800122910262
:100EE000034800F0CEFA0AB010BD000074000020E4
:100EF000001C02407047000010B58AB06B4602AA81
:100F00000121FFF786FD9DF801009DF800109DF876
:100F1000074000EB01239DF803009DF8021000EB51
:100F200001229DF805009DF8041000EB0121064800
:100F3000038042808180C48001229102034800F036
:100F4000A0FA0AB010BD000074000020001C02408E
:100F50007047000070B5044690F82000012804D0C6
:100F6000606A40F40020606218E0022084F82000EB
:100F70002068016821F00101016000F087FA054650
:100F80000EE000BF00F082FA401B0A2808D9606A10
:100F900040F400306062052084F82000012070BD1C
:100FA00020684068C007EDD1606270BD704770472F
:100FB0007047704770477047704700002DE9F8434D
:100FC00004464FF00009CDF8009063484FF41651E5
:100FD000A56D0068B0FBF1F72E6894F85C1008204E
:100FE00000FA01F131420FD021680A6852070BD58F
:100FF0000A6822F004020A6094F85C108840A86035
:10100000606D40F00100606594F85C104FF00108DD
:1010100008FA01F0304208D021684969090604D570
:10102000A860606D40F00200606594F85C100420D8
:101030008840304208D021680968890704D5A86033
:10104000606D40F00400606594F85C1010208840EA
:10105000304218D021680968090714D5A8602068B3
:101060000168490304D50068000308D5A16C07E0B6
:101070000168C90503D4016821F008010160216CF1
:1010800009B12046884794F85C10202088403042FF
:1010900031D021680968C9062DD5A86094F83500BB
:1010A00005282068016806D0490347D50068000379
:1010B0001DD4616C1CE021F01601016020684169BB
:1010C00021F080014161206C08B9A06C20B120683A
:1010D000016821F00801016094F85C103F2088400D
:1010E000A86084F8358084F83490216D1FE0E16BAE
:1010F00009B120468847606D00282BD0606DC0077D
:1011000014D0052084F835002068016821F0010121
:1011100001600098401C0090B84203D82068006825
:10112000C007F6D184F8358084F83490E16C00294A
:1011300010D001B02046BDE8F04308470168C9055A
:10114000D5D4016821F01001016084F8358084F85D
:101150003490CCE7BDE8F8830C0000202DE9F04185
:10116000044600F093F906465CB1022084F835008D
:10117000002584F834502068016821F001010160E5
:101180000DE00120BDE8F08100F080F9801B05280A
:1011900005D920206065032084F83500F2E7206837
:1011A0000068C007F0D12268116820480140D4E9E6
:1011B00001031843D4E903363343184363691843E2
:1011C000A3691843E3691843236A18430843616A13
:1011D000042903D1D4E90B13194308431060206894
:1011E0004069666A20F0070130460E430127042853
:1011F0000CD1A06A0643E06A40B1204602F0BAFD75
:1012000020B14020606584F83570BAE720684661F7
:10121000204602F0D9FD94F85C203F219140816086
:10122000656584F835700020ACE700003F8010F061
:1012300070B5044600F02AF90546601C02D0044847
:101240000078044400F022F9401BA042FAD370BD9C
:1012500000000020044910B58988814203D101F0C3
:101260008BFE0249886010BD1C0000207400002025
:10127000044910B50A68024202D00860FFF7EAFF8D
:1012800010BD0000143C01402DE9F84FDFF8BCA16F
:101290000022012503264FF00F090AF1040BAAF1E1
:1012A000040E00BF0B6805FA02F42340A34270D17C
:1012B0000F7907F00307012F01D0022F16D187689D
:1012C0004FEA420806FA08FC27EA0C07D1F80CC0DE
:1012D0000CFA08FC4CEA070CC0F808C04768A743A2
:1012E0000C79C4F3001494403C4344600C79E4430B
:1012F000A4070AD0C4684FEA420C06FA0CF7BC43B4
:101300008F6807FA0CF72743C7600C7904F00304D1
:10131000022C12D1D40800EB840CDCF820405707D3
:10132000FF0E09FA07F824EA0804D1F8108008FA39
:1013300007F848EA0408CCF8208004684FEA420C19
:1013400006FA0CF7BC430F7907F0030707FA0CF70E
:10135000274307604C6814F4403F70D03C4C27682A
:1013600047F480472760246822F0030704F4804490
:101370000094384C07EB040CDCF8084897074FEA58
:10138000177809FA08F7BC43334FB84202D1002757
:1013900024E054E0314FB84201D101271EE0304F24
:1013A000B84201D1022719E02E4FB84201D10327DC
:1013B00014E02D4FB84201D104270FE02B4FB84263
:1013C00001D105270AE02A4FB84201D1062705E0DE
:1013D000284FB84201D1072700E0082707FA08F78D
:1013E0002743CCF80878DAF800405746D1F804C013
:1013F0009C435FEACC2C00D51C433C60DBF80040EA
:101400005F46D1F804C09C435FEA8C2C00D51C4396
:101410003C60DEF800407746D1F804C09C435FEAA8
:101420008C3C00D51C433C60084F083F3C68D1F819
:1014300004C09C435FEACC3C00D51C433C60521C7A
:10144000102AFFF42FAFBDE8F88F0000083C0140E0
:1014500044380240003001400000024000040240D5
:1014600000080240000C024000100240001402403C
:1014700000180240001C02400069084000D0012012
:1014800070470AB1816170470904FBE70148806831
:10149000704700000000002070B5040025D094F8CB
:1014A0003D00002520B984F83C50204600F04CFA5D
:1014B000242084F83D002068016821F001010160CA
:1014C0002068016841F4004101602068016821F44E
:1014D0000041016000F0E6FB4D4A6168914201D88D
:1014E0004C4900E04C49884201D2012070BD4B4973
:1014F0002368B0FBF1F15E6826F03F060E435E60A4
:101500006368934206D94FF4967359434FF47A7344
:10151000B1FBF3F12368491C1E6A26F03F063143F4
:1015200019626168914210D84900401EB0FBF1F287
:10153000521CC2F30B02042A01D2042022E0B0FBA9
:10154000F1F0401CC0F30B001CE0A268F2B301EB09
:10155000C10303EB0116431EB3FBF6F35B1C43F41C
:1015600080431B0549D092B301EBC10202EB01118C
:10157000401EB0FBF1F0401CC0F30B0040F4804073
:1015800040F400402168CA694CF6FF739A43104347
:10159000C861D4E9071001432068026822F0C00244
:1015A00011430160D4E9030101432068826848F2D5
:1015B000FF339A4311438160D4E905010843216850
:1015C000CA6822F0FF021043C86001E00EE016E096
:1015D0002068016841F0010101602564202084F841
:1015E0003D00256384F83E50002070BD01EB4106AC
:1015F000431EB3FBF6F35B1CB3E70120C2E701EB2C
:101600004101401EB0FBF1F0401CC0F30B00B7E7F6
:10161000A086010080841E0000093D0040420F00AA
:101620002DE9FF4F83B09A46DDE9119793460446B2
:10163000DDF84080FFF72AFF054694F83D0020289A
:1016400070D11923012271492046009502F0B9FC9E
:101650000028F5D194F83C00012863D0012084F8DB
:101660003C0020680168C90703D1016841F001010D
:1016700001602068016821F400610160222084F883
:101680003D00402084F83E0000262664C4F82480F3
:10169000A4F82A90608D20855D48E062CDE9007550
:1016A00053465A462046049902F0A2FB00287CD1FA
:1016B000208DD0B1012821D00228206824D0416992
:1016C00080690090208D032869D801282BD05149CA
:1016D00002283B464FF00002009559D0884620462C
:1016E00002F06FFC002860D13CE02068416981690C
:1016F0000091016841F40071016077E020680168A1
:1017000021F480610160F0E7016821F480610160EB
:101710002068016841F400610160206841698069C6
:10172000009063E06FE02A463946204602F0C9FC8B
:1017300098BB20680069616A08704EE02068016803
:1017400041F40071016020680069616A0870606A94
:10175000401C6062218D491E2185618D491E618575
:10176000216838E02068016821F480610160206808
:101770000069616A0870606A401C6062208D401ECA
:101780002085608D401E60853B46002241460095C5
:10179000204602F016FC00B9D0E706E0FFE72A4633
:1017A0003946204602F08DFC18B1012007B0BDE893
:1017B000F08F20680069616A0870606A401C60628E
:1017C000218D491E2185618D491E618521684A69E7
:1017D000D24352070AD409690170606A401C6062F2
:1017E000208D401E2085608D401E6085208D002844
:1017F0007FF468AF202084F83D0084F83E6084F8D0
:101800003C600020D2E70220D0E700000200100078
:101810000000FFFF040001002DE9FF4F83B09A464E
:10182000DDE9119793460446DDF84080FFF72EFE70
:10183000054694F83D0020287FD119230122404914
:101840002046009502F0BDFB002876D194F83C00BC
:10185000012872D0012084F83C0020680168C90783
:1018600003D1016841F0010101602068016821F4A1
:1018700000610160212084F83D00402084F83E0092
:1018800000262664C4F82480A4F82A90608D208560
:101890002C48E062CDE9007553465A46204604992B
:1018A00002F024FB70B930E02A463946204602F0A7
:1018B000E2FB58B1206C042804D12068016841F48F
:1018C00000710160012007B0BDE8F08F606A2168F7
:1018D00000780861606A401C6062218D491E89B2EF
:1018E0002185628D521E628522685369DB435B0746
:1018F0000BD469B100781061606A401C6062208D71
:10190000401E2085608D401E6085208D0028CBD133
:101910002A463946204602F088FB0028CAD154F8EE
:101920003D0B016841F400710160202004F81E099C
:10193000E67766770020C6E7FFE70220C3E70000EE
:10194000020010000000FFFF2DE9F04186B00446C0
:1019500014216846FEF7FFFC2F4A2168DFF8BC809F
:1019600000252E4803241226042708F1100891426E
:101970001BD1016841F0200101600068CDE90046FB
:1019800000F02000CDE90470CDE9025469462448F6
:10199000FFF77AFCD8F8001041F48001C8F8001075
:1019A000D8F8000000F4800031E01E4A91422FD1A7
:1019B000016841F004010160016801F00401059132
:1019C000016841F0010101600068CDE9025400F0B6
:1019D000010005905015CDE90006694604971248AC
:1019E000FFF752FC4FF48070CDE90006CDE90254B8
:1019F000694604970D48FFF747FCD8F8001041F4FA
:101A00000001C8F80010D8F8000000F400000590AC
:101A100006B0BDE8F08100000058004030380240B8
:101A200000140240005C0040000802400000024038
:101A300002488168027811448160704700000020EC
:101A40000B4810B5016841F400710160016841F470
:101A500080610160016841F480710160032000F041
:101A60006FF80F2000F006F800F024F8002010BDF9
:101A7000003C024070B50D4D04464FF47A71287851
:101A8000B1FBF0F00A490968B1FBF0F000F0D1FCBD
:101A900048B9102C07D200222146501E00F030F821
:101AA00000206C6070BD012070BD000000000020AF
:101AB0000C0000200A4808B5016841F4804101602B
:101AC000006800F4804000900548001F016841F064
:101AD00080510160006800F08050009008BD000057
:101AE00044380240002809DB00F01F020121914028
:101AF0004009800000F1E020C0F8001170470000AC
:101B0000F0B40E4B1B680C46C3F30223C3F1070568
:101B1000042D00D90425191D072901D2002300E056
:101B2000DB1E012606FA05F1491E214099409E4020
:101B3000761E16403143F0BC02F056BC0CED00E0BE
:101B4000064900F0070208684FF6FF03184040EA14
:101B50000220034A10430860704700000CED00E0CB
:101B60000000FA052DE9F0470E46050065D0DFF8C4
:101B70001481D8F80000F7B200F00700B04207D295
:101B800088F80070D8F8000000F00700B04254D187
:101B900028683D4C810712D5400703D5206840F4E2
:101BA000E05020602878000703D5206840F46040AA
:101BB00020602068A96820F0F000084320602878A1
:101BC000C0072DD0304968680839012812D0022892
:101BD00013D0032811D00968890700292DDA21685C
:101BE00021F0030101432160FFF750FC814641F2DF
:101BF000883A0EE009688903EFE709688901ECE794
:101C0000FFF744FCA0EB0901514502D90320BDE8D0
:101C1000F0872068696800F00C00B0EB810FEFD10D
:101C2000D8F80010404601F00701B14207D907700B
:101C3000006800F00700B04201D00120E7E72878F3
:101C4000400705D52068E96820F4E050084320608B
:101C50002878000706D52068296920F4604040EA0A
:101C6000C100206000F02EF82168084AC1F303117A
:101C7000515CC8400649086006480068FFF7FAFE54
:101C80000020C4E7003C0240083802404C440008F1
:101C90000C0000200400002001480068704700008C
:101CA0000C0000200448054900680968044AC1F393
:101CB0008221515CC84070470C0000200838024067
:101CC0005C440008154810B5006810F00C02144878
:101CD00013D01449042A0FD0082A0ED10F4C241F08
:101CE0002268236802F03F025B0207D52068C0F338
:101CF0008810A0FB010106E0084610BD2168C1F371
:101D00008811A1FB00010023FEF7AEFA2168C1F3A0
:101D10000141491C4900B0FBF1F010BD08380240F8
:101D20000024F400001BB7002DE9F84F04006ED02A
:101D30002078DFF84C93C007A9F104054AD009F1D7
:101D400004000168C1F38101012908D00068C0F3D3
:101D5000810002280AD1D9F80000400206D528687F
:101D6000800337D560680028E1D033E06068B0F5C3
:101D7000803F10D0B0F5A02F286810D020F480301C
:101D80002860286820F4802028606068A8B1FFF7E8
:101D90007DFB06460DE0286840F48030F4E740F40F
:101DA00080202860F7E700BFFFF770FB801B6428E6
:101DB00073D828688003F7D50CE0FFF767FB064669
:101DC00005E000BFFFF762FB801B6428F0D828689D
:101DD0008003F7D42078DFF8AC8280074FF0000A48
:101DE0003ED5A748001D016811F00C0F08D000680F
:101DF000C0F3810002280BD1D9F80000400207D4BB
:101E00002868800716D5E068012800D112E033E188
:101E1000E068B8B10120C8F80000FFF737FB0646BC
:101E200005E000BFFFF732FB801B0228C0D82868FE
:101E30008007F7D52868216920F0F80040EAC10042
:101E400028600DE0C8F800A0FFF720FB064604E07C
:101E5000FFF71CFB801B02281FD828688007F7D4D7
:101E60002078000722D5864F87486169703771B1A5
:101E700001210160FFF70AFB064604E0FFF706FBBD
:101E8000801B022809D838688007F7D50EE0C0F813
:101E900000A0FFF7FBFA064605E082E0FFF7F6FA3E
:101EA000801B02287DD838688007F7D42078400747
:101EB00068D5DFF8CCB100270BF13C0BDBF8000054
:101EC000C0000BD4DBF8001041F08051CBF80010BB
:101ED000DBF80000012700F0805000906B4E306866
:101EE000C00510D4306840F480703060FFF7CEFA3F
:101EF000009005E0FFF7CAFA0099401A022850D86E
:101F00003068C005F6D55E4EA0686C3601280FD04B
:101F10000528306810D020F001003060306820F0D3
:101F200004003060A068B8B1FFF7B0FA00900FE08D
:101F3000306840F00100F4E740F004003060F7E75B
:101F4000FFF7A4FA0099411A41F28830814266D81D
:101F500030688007F4D50EE0FFF798FA009007E0AC
:101F6000FFF794FA0099411A41F28830814256D81D
:101F700030688007F4D42FB1DBF8001021F08051D5
:101F8000CBF80010A069C8B33D49091D0968C1F329
:101F9000810102294AD00228504607D0C8F86000C3
:101FA00000E03CE0FFF772FA04463BE04746C8F821
:101FB0006000FFF76BFA064605E000BFFFF766FA20
:101FC000801B02282BD828688001F7D4D4E90701A8
:101FD0000843A16A2E4A490802EB0141626A41EABC
:101FE0008211084394F82C1040EA0161C9F80010EE
:101FF00001203866FFF74AFA044606E03EE000BFDB
:10200000FFF744FA001B022809D828688001F7D599
:1020100034E000BFFFF73AFA001B022802D9032080
:10202000BDE8F88F28688001F4D427E00128F7D0B4
:10203000D9F80000E26900F4800191421CD1226AC3
:1020400000F03F01914217D147F6C071626A01402A
:10205000B1EB821F10D1A26A4FF0FF3300F4403180
:1020600003EB5202B1EB024F06D194F82C1000F0B2
:102070007060B0EB016F01D00120D1E70020CFE705
:102080000438024000004742800E47420070004082
:102090000000FFFF70B5040009D0606A002540B160
:1020A00025616561A56294F8510040B10CE0012002
:1020B00070BD6068B0F5827FF4D0E561F2E784F826
:1020C0005050204600F044F8022084F85100206867
:1020D000016821F040010160A088218900F482702C
:1020E00001F404410843A18901F400610843217C03
:1020F00001F002010843217D01F001010843218B19
:1021000001F400710843217F01F03801084394F87D
:10211000201001F080010843218D01F40051084393
:1021200021680860A069042101EA104094F8241095
:1021300001F010010843216848602068C16921F45A
:102140000061C1616565012084F85100002070BD07
:102150002DE9F04186B0064614216846FEF7FBF8EB
:1021600035493068884264D134480024016841F41C
:1021700080510160006800F4805005902F481438A9
:10218000016841F002010160016801F0020105915E
:10219000016841F0010101600068022500F00100C2
:1021A00005901820CDE9000502AA03274FF0050885
:1021B00082E8900169462248FFF766F88020CDE961
:1021C000000502AA694682E890011E48FFF75CF804
:1021D0001E4D1D487F06E5E8020740204FF4806849
:1021E000A5E81101C00245F81449AC61C5E90740F2
:1021F00016486C62FEF7B2FF08B1FEF72DF9B56420
:10220000AE63124D1048603518382860C5E9017476
:10221000C5E903486C614FF44030AC61C5E9074043
:1022200028466C62FEF79AFF08B1FEF715F9F564CF
:10223000AE6306B0BDE8F081003001404438024092
:102240000004024000000240586402403C020020AA
:102250002DE9F84F044690F8500000270A9E1D46CD
:1022600092468B464FF0010901280ED0012084F8D8
:102270005000FFF70BF9804694F85100616801287F
:102280000CD0B1F5827F07D102E00220BDE8F88FC3
:10229000A16809B9042801D00227C2E0BBF1000FF0
:1022A00027D0BAF1000F24D01DB394F851000428B0
:1022B00002D0052084F8510000206065C4F838A0E1
:1022C000E587A587C4F830B0E586A58620646064FC
:1022D00020680168490603D4016841F040010160AB
:1022E000E068B0F5006F606805D0E8B3012D46D016
:1022F0007FE0012795E008B1012D39D1206B2168DD
:102300000088C860206B801C2063E08E401EE08641
:102310002EE02068816889070FD5E18E69B1B9F197
:10232000010F0AD1216B0988C160206B801C2063DA
:10233000E08E401EE0864FF0000920688168C907E2
:102340000CD0E18F51B1C068A16B0880A06B801CDC
:10235000A063E08F401EE0874FF00109FFF796F879
:10236000A0EB0800B04200E009E001D3701C50D19E
:10237000E08E0028CDD1E08F0028CAD13FE0206B4D
:10238000216800780873206B401C2063E08E401E9B
:10239000E0862EE02068816889070FD5E18E69B15B
:1023A000B9F1010F0AD1216B09780173206B401C30
:1023B0002063E08E401EE0864FF0000920688168AF
:1023C000C9070CD0E18F51B1C068A16B0870A06B38
:1023D000401CA063E08F401EE0874FF00109FFF72B
:1023E00055F8A0EB0800B04202D3701C01D010E0F9
:1023F0007EB1E08E0028CDD1E08F0028CAD14246C0
:102400003146204601F0DCFE28B10127202060651E
:1024100007E0032705E0A06818B92068C168806854
:102420000090012084F85100002084F850003846C4
:102430002CE710B5401EB0F1807F01D3012010BD04
:102440004FF0E02460610F21601701F0CDFF002004
:10245000A06107202061002010BD10B5040003D04A
:1024600094F83D0010B107E0012010BD002084F871
:102470003C00204600F01EF8022084F83D00211D9B
:10248000206800F0F5FA012084F8460084F83E0048
:1024900084F83F0084F8400084F8410084F842004A
:1024A00084F8430084F8440084F8450084F83D0033
:1024B000002010BD08B500680649884208D10648CA
:1024C000016841F400310160006800F400300090C0
:1024D00008BD0000004401404438024010B586B0F9
:1024E000044614216846FDF736FF0E4920688842ED
:1024F00015D10D480021026842F0200202600068F8
:1025000000F020000590402000900220CDE901015C
:102510000320CDE9031069460448FEF7B5FE06B076
:1025200010BD000000440140303802400014024059
:1025300070B5044690F83C0000260D4601280FD0E7
:10254000012084F83C006AB1042A1DD0082A2FD04B
:102550000C2A3FD00126002084F83C00304670BD94
:10256000022070BD206801F0B3FE2068816941F04F
:10257000080181612068816921F00401816120687E
:1025800081692A69114311E0206800F0D5FA2068BA
:10259000816941F4006181612068816921F4806171
:1025A0008161206881692A6941EA02218161D2E75B
:1025B000206801F0BDFE2068C16941F00801C161D9
:1025C0002068C16921F00401C1612068C1692A69DC
:1025D000114311E0206801F0DFFE2068C16941F479
:1025E0000061C1612068C16921F48061C161206816
:1025F000C1692A6941EA0221C161ACE710B5040052
:1026000003D094F83D0010B107E0012010BD002078
:1026100084F83C00204600F01EF8022084F83D00BB
:10262000211D206800F024FA012084F8460084F877
:102630003E0084F83F0084F8400084F8410084F8AC
:10264000420084F8430084F8440084F8450084F88C
:102650003D00002010BD7047FEE700007FB500245C
:1026600015480094019402941249039401604FF4B8
:102670008031C0E901140461047680F820400F49DC
:10268000C0E90A140125C561C46080F83040456185
:10269000FDF78DFF08B1FDF7DFFE1020CDE9000545
:1026A000694602940448FDF7D9FE002801D0FDF7E1
:1026B000D3FE7FBD00200140840000200100000FF8
:1026C0007FB50024154800940194029412490394A4
:1026D00001604FF48031C0E901140461047680F890
:1026E00020400F49C0E90A140125C561C46080F883
:1026F00030404561FDF75BFF08B1FDF7ADFE0820F6
:10270000CDE90005694602940448FDF7A7FE0028BC
:1027100001D0FDF7A1FE7FBD00220140CC000020CA
:102720000100000F0F4810B50D49016006214160FE
:1027300000214FF400328160C0E9031212014261AE
:10274000017641768176C17601774177FEF7D3FA3B
:10275000002803D0BDE81040FDF77EBE10BD00008C
:1027600000640040140100200D4808B5016841F4E0
:10277000800101600068002200F480000090114692
:102780003A20FFF7BDF93A20FFF7ACF900221146D5
:102790003B20FFF7B5F9BDE808403B20FFF7A2B9A1
:1027A000303802402DE9F04F87B014216846FDF71C
:1027B000D2FD57480026016841F00201016001681E
:1027C00001F002010591016841F001010160016819
:1027D00001F001010591016841F008010160016803
:1027E00001F008010591016841F0200101600168D4
:1027F00001F020010591016841F0040101600168C8
:1028000001F004010591016841F080010160016857
:1028100001F080010591016841F04001016000680C
:10282000DFF8F09000F0400005900122402148467A
:10283000FEF727FEDFF8E0A04FF48065002229466E
:102840005046FEF71EFEDFF8D4B001221021584694
:10285000FEF717FE4FF45048002241463048FEF77D
:1028600010FE012211462E48FEF70BFE01244020E7
:10287000CDE900040294694648460394FEF704FD3E
:1028800008204FF40417CDE9000769460294484632
:10289000FEF7FAFC0095CDE90146694650460396DD
:1028A000FEF7F2FC1020CDE90004022569465846E7
:1028B000CDE90245FEF7E8FC2020CDE90007694696
:1028C00002941848FEF7E0FCCDF80080CDE9014500
:1028D000694613480395FEF7D7FC6003CDE900066F
:1028E000694602950E48FEF7CFFC009469460C48F5
:1028F0000194CDE90245FEF7C7FC002211460920EC
:10290000FFF7FEF80920FFF7EDF807B0BDE8F08FFC
:102910003038024000180240001C02400000024013
:1029200000040240000802400D4810B50B49016048
:102930000C49416000214FF480428160C0E90312DC
:1029400041618161C1610162FEF7A6FD002803D0EB
:10295000BDE81040FDF780BD10BD000000580040EC
:102960003C010020A08601000D4810B50B49016014
:102970000C49416000214FF480428160C0E903129C
:1029800041618161C1610162FEF786FD002803D0CB
:10299000BDE81040FDF760BD10BD0000005C0040C8
:1029A00090010020801A0600104810B50E49016001
:1029B0004FF482714160002102228160C0E903125C
:1029C00001224261520282613822C0E9072141623C
:1029D00081620A21C162FFF75DFB002803D0BDE8D8
:1029E0001040FDF739BD10BD00300140E40100206A
:1029F00010B588B01C216846FDF7ADFC144813499A
:102A00000024C0E900144FF6FF71C0E902410461DF
:102A10008461FFF722FD08B1FDF71EFD0C48FFF7AA
:102A2000EDFD08B1FDF718FD6020CDE9000402942A
:102A30000022694606480494FFF77AFD08B1FDF7C5
:102A40000BFD0348FFF74AFD08B010BD00440140EC
:102A5000FC020020FEE7FEE770477047FEF7E8BF84
:102A60000248016841F470010160704788ED00E0A0
:102A7000F0B50268254C264D264E274F274B4FF0C8
:102A8000804CA04209D0604507D0A84205D0B04292
:102A900003D0B84201D0984204D122F0700E4A68A7
:102AA00042EA0E02A0421BD0604519D0A84217D0BE
:102AB000B04215D0B84213D0984211D0184DA84258
:102AC0000ED0184DA8420BD0174DA84208D0174D74
:102AD000A84205D0164DA84202D0164DA84203D1F7
:102AE00022F44075CA682A434D6922F080022A43C5
:102AF00002608A68C2620A688262A04201D098427B
:102B000001D10969016301214161F0BD000001406B
:102B10000004004000080040000C00400004014098
:102B200000400140004401400048014000180040BE
:102B3000001C004000200040F0B5026A22F01002A4
:102B40000262026A436884690D6824F4E64444EA38
:102B500005248D6822F0200242EA05120F4D104E26
:102B6000A84201D0B04206D1CF6822F0800242EAEA
:102B7000071222F04002A84201D0B04207D14D69AD
:102B800023F4406343EA85038D6943EA8503436088
:102B90008461496881630262F0BD00000000014069
:102BA00000040140FEE7000030B40021084B0A4653
:102BB0005FF0000003EBC004401CC0B262548028E8
:102BC000F8D3491CC9B20829F2D330BC00F0BCB814
:102BD000620300200F4810B5016821F08071016088
:102BE000016841F0807101600B48016821F001012A
:102BF0000160016841F0010101600021416000BFF6
:102C000000BF00BF406800F099FB044600F0FEFAE8
:102C1000204310BDFCED00E0001000E07CB505464F
:102C2000002016460C4600900190062269461220AC
:102C300000F0ECFC9DF801009DF80010000200B2CD
:102C4000084300EE100A0822F8EEC00A9FED3C0A85
:102C500060EE800AC5ED000A9DF803009DF80210A1
:102C6000000200B2084300EE900AF8EEE00A60EEBF
:102C7000800AC5ED010A9DF805009DF804100002C8
:102C800000B2084300EE900A69460020F8EEE00A20
:102C900020EE800A85ED020A00F09EFC9DF80000FF
:102CA0000F282ED19DF803009DF80210000200B2FB
:102CB000084300EE100AF8EEC00A9FED220A60EE0B
:102CC000800AC4ED000A9DF805009DF8041000027A
:102CD00000B2084300EE900AF8EEE00A60EE800AC7
:102CE000C4ED010A9DF807009DF80610000200B22D
:102CF000084300EE900AF8EEE00A20EE800A84ED28
:102D0000020A02226946222000F080FC9DF80000A1
:102D10009DF80110C00040EA5110B0F5806F01DB52
:102D2000A0F5006000EE100AB4EE001AF8EEC00A3A
:102D3000B3EE070A00EE810A86ED000A7CBD0000B2
:102D4000E7416B3A58A08B3A70B5A4B0174E0024F7
:102D50000DF10C0504F1B000C0B2002100F062F8E2
:102D60000021022000F05EF80021102000F05AF847
:102D70005FF0000006EBC001095D2954401CC0B2A1
:102D80008028F7D34FF4807080210095CDE90110A1
:102D900007480123402278210068FEF73DFD641CAE
:102DA000E4B2082CD6D324B070BD0000620300202A
:102DB000480000202DE9F84F0025DDE90A691F468B
:102DC00092468B468046082E00D1022500241CE046
:102DD000381B401EC1B20A2000F0CEFDBAFBF0F055
:102DE0000A21B0FBF1F201FB1200CDF8009080B196
:102DF0003030C2B205EB560101FB0480C0B233464D
:102E0000594600F0FFF8641CE4B2BC42E0D3BDE8D0
:102E1000F88F05EB560101FB0480C0B23346302227
:102E2000EEE7000013B5094884B004AC00684FF425
:102E3000807201230094CDE9013209B1402200E003
:102E400000227821FEF7E8FC06B010BD4800002003
:102E500070B500252C461121094800F0C5FE6D1CF7
:102E6000EDB20444C82DF6D300EE104ADFED050A9A
:102E70000548B8EE400A80EE801A80ED001A70BD59
:102E80008400002001007043700000202DE9F04311
:102E900087B0354D0E9E05F108042860A980226098
:102EA000A3800C3C314A2660136823F080731360C2
:102EB000136843F0807313602D4A136823F00103F5
:102EC0001360136843F0010313600026566000BFCF
:102ED00000BF00BF52680022FEF7D3FA3220FEF78F
:102EE000A7F9A98801222868FEF7CBFA3220FEF75D
:102EF0009FF9012703A88DF80C60CDE900070A2689
:102F000002963B4600221C212068FEF789FBDFF871
:102F1000648000250DF1140905EB450000EB080263
:102F2000012352788DF8102004AACDE900270296DB
:102F300018F800201C212068FEF76EFC962000F097
:102F40006FFECDF80090CDE90176012300221C210F
:102F50002068FEF765FB962000F062FE6D1C042DD4
:102F6000DADB07B0BDE8F08314000020FCED00E0E0
:102F7000001000E06444000800B585B00A22062174
:102F800003A88DE807001548012303221C210068CF
:102F9000FEF746FBBDF90C0000EE100A1148F8EEF2
:102FA000C00A9FED0F0A60EE800AC0ED000ABDF96D
:102FB0000E1000EE901AF8EEE00A60EE800AC0ED06
:102FC000010ABDF9101000EE901AF8EEE00A20EEAA
:102FD000800A80ED020A05B000BD0000100000204C
:102FE0009A99993E4403002000B587B000910021D2
:102FF00001910291CDE9031306AB6946FDF714FC7C
:1030000007B000BD2DE9FC4F1C460E4682468B469C
:103010000190082B0ED0600700D0012000EBD400F7
:10302000610810FB01F0C0B28146203AD0B2009096
:1030300000204AE00620F7E7082C12D00C2C17D00D
:10304000102C1AD0182C43D10098234900EBC00053
:1030500001EB8001002711F80850E80712D00B9A05
:1030600013E000981D4900EB400001EB4001F1E73F
:1030700000981B4900EB4000EAE71A49009801EB71
:103080000011E7E70B9828B300223146504600F0C4
:103090005DF8761C7F1C6D08FFB2F6B2082FDCD3FA
:1030A0000AF1010000F0FF0A082C0AD00199AAEBEE
:1030B0000100B0EB540F04D10BF108008A4600F078
:1030C000FF0B08F101005E46C0B280464845B3D30D
:1030D000BDE8FC8F0122D8E7FC50000870440008CE
:1030E000984600080C4B000810B5114C0022A1882E
:1030F0002068FEF7C6F9182000F00EFD012000F050
:1031000039FB422000F036FB002000F033FB0020AA
:1031100000F030FB002000F02DFBA1880122206888
:10312000FEF7AFF9BDE81040182000F0F5BC000034
:103130003000002030B1012807D100215FF0A70046
:10314000FFF770BE0021A620FAE7704730B5CC0823
:1031500001F0070301259D40EBB2064D05EBC005CC
:10316000C808285C0AB1184302E063EA0000C043C3
:10317000285530BD620300201CB527208DF80000C3
:1031800010208DF8010000208DF802008DF803005A
:10319000019008236A4640F2FF110248FFF724FF1E
:1031A0001CBD00001401002010B5174C0022A1889E
:1031B0002068FEF766F9182000F0AEFC012000F050
:1031C000D9FA432000F0D6FA002000F0D3FA00200C
:1031D00000F0D0FA5A2000F0CDFA5A2000F0CAFAD6
:1031E0005A2000F0C7FA5A2000F0C4FA5A2000F022
:1031F000C1FAA18801222068FEF743F9BDE810401A
:10320000182000F089BC0000300000202DE9F041BA
:10321000002000F021FA962000F0D0FC002000F001
:103220001BFA0446962000F0C9FCB621142000F0D9
:1032300075FA502000F0C2FC002000F00DFA962034
:1032400000F0BCFC002000F007FA962000F0B6FC6D
:103250000F2C02D0FF20BDE8F081DFF84C80002465
:1032600008F1120504EB440606EB08004178A85D5E
:1032700000F054FA962000F0A1FCA85D00F0ECF9F3
:103280000746962000F09AFC70194078B84204D0A6
:1032900004EB440028448078DDE7641CE4B2062C8B
:1032A000E0D30020D7E700004C00002010B558B153
:1032B000012810D10021C020FFF7B4FD0021A0207B
:1032C000BDE81040FFF7AEBD0021C820FFF7AAFD02
:1032D0000021A120F4E710BD10B5174C0022A188F1
:1032E0002068FEF7CEF8182000F016FC012000F050
:1032F00041FA432000F03EFA002000F03BFA0120A2
:1033000000F038FA002000F035FA002000F032FA20
:10331000002000F02FFA002000F02CFA002000F02E
:1033200029FAA18801222068FEF7ABF8BDE8104019
:10333000182000F0F1BB0000300000202DE9F04122
:10334000002000F0B7F9962000F038FC002000F0D3
:10335000B1F90446962000F031FCB6217E2000F041
:10336000F3F9502000F02AFC002000F0A3F9962089
:1033700000F024FC002000F09DF9962000F01EFCD7
:103380001E2C02D0FF20BDE8F081114D002400BFAB
:1033900004EB44067719A85D797800F0D5F99620FA
:1033A00000F00CFCA85D00F085F90646962000F0C0
:1033B00005FC7878B04204D004EB440028448078BF
:1033C000E1E7641CE4B2062CE2D30020DBE7000056
:1033D0004C00002010B5114C0022A1882068FEF797
:1033E00050F8182000F098FB012000F0C3F94D20A0
:1033F00000F0C0F9002000F0BDF9002000F0BAF99B
:10340000012000F0B7F9A18801222068FEF739F801
:10341000BDE81040182000F07FBB00003000002005
:1034200030B593B030216846FCF795FF14210CA805
:10343000FCF791FF1D480025016841F080510160B3
:10344000006800F0805011901948016841F48041F3
:1034500001600068022400F4804011900120039074
:1034600010200490009406940820CDE90750A8206D
:10347000CDE9090404200B906846FEF755FC08B11D
:1034800072B6FEE70CA90F2081E831004FF4A0507E
:103490000F904FF48050109005210CA8FEF762FBAE
:1034A000002801D072B6FEE713B030BD40380240AC
:1034B0000070004010B50821084800F095FB00EEB0
:1034C000100A0748B8EE400AD0ED000A20EE200AA4
:1034D000DFED040A20EE200A10BD0000CC00002021
:1034E000700000205D74214110B5154C0022A188A8
:1034F0002068FDF7C6FF012000F03CF9442000F0F1
:1035000039F9002000F036F9012000F033F9EE20FF
:1035100000F030F9002000F02DF9002000F02AF929
:10352000002000F027F9002000F024F9A1880122F2
:103530002068FDF7A6FFBDE81040182000F0ECBAA7
:10354000300000202DE9FC439846DDE9097516009E
:10355000894600F108043B46009506D42B22FFF76C
:1035600051FDE0B24346324605E02D22FFF74AFD09
:103570007242E0B24346CDE900754946FFF71AFCB6
:10358000BDE8FC83F0B501F003064FEAC2044FEA40
:10359000C3058BB08F0744EA460445EA460504D5C7
:1035A000D204CDE90024DA0403E05201CDE900247D
:1035B0005A01CDE90225CA08C1F38001CDE9041200
:1035C00001220021CDE906120E21099108926946D7
:1035D000FDF798F90BB0F0BD2DE9F0410A4C154606
:1035E0000E460746002201212046FDF74AFF2A46E3
:1035F0003146384600F0A6FA2046BDE8F0410122E7
:103600001146FDF73EBF000000040240FEB5104D1C
:1036100016460F460446002210212846FDF731FFCA
:1036200044F080008DF804004FF47A70009001237C
:1036300002AA01A90748FEF70BFE3246394620468A
:1036400000F080FA012210212846FDF71AFFFEBD86
:1036500000000240E401002030B5144D044685B05E
:10366000002201212846FDF70CFF44F080008DF870
:1036700008004FF47A74012304AA02A90C480094AC
:10368000FEF7E6FD55208DF80C00012301AA03A9E1
:1036900007480094FEF7DCFD012211462846FDF79D
:1036A000F0FE9DF8040005B030BD000000040240AB
:1036B000E401002030B5174D044685B000221021EA
:1036C0002846FDF7DEFE44F080008DF810004FF430
:1036D0007A74012303AA04A90F480094FEF7B8FDE9
:1036E00055208DF80400012303AA01A90A4800947B
:1036F000FEF7AEFD012302AA01A907480094FEF7D8
:10370000A7FD012210212846FDF7BBFE9DF8080009
:1037100005B030BD00000240E401002070B5094C46
:103720000D460646002201212046FDF7AAFE294645
:10373000304600F02DFA2046BDE8704001221146C7
:10374000FDF79FBE0004024070B5094C0D460646C9
:10375000002210212046FDF794FE2946304600F055
:1037600017FA2046BDE8704001221021FDF789BEFE
:1037700000000240F8B507460120ADF80000234ED6
:1037800000217170ADF80000214D35E0BDF800005A
:10379000A9883842286801D0012200E00022FDF704
:1037A00070FE1B4C0122103CA1882068FDF769FEC9
:1037B000082000F0B1F9A18800222068FDF761FE21
:1037C000082000F0A9F9A18801222068FDF759FE20
:1037D00004F1180081880068FDF74EFE20B1707872
:1037E000BDF8001008437070BDF800004FF6FF717F
:1037F00001EA4000ADF80000BDF80000FF28C5D97F
:10380000BDE8F840182000F087B900005003002000
:10381000380000201FB5374800903748082302467B
:103820004021FFF733FB4FF4005134488A00CDE9C3
:1038300000024B00CDE902010246811400F0A4F819
:103840002F4800F0EDF8FFF7C5F92E4C2E4E00BFC3
:10385000FFF7C0F92C4A2D490C32A1F10C00FFF7FB
:10386000DDF9F068A042F3D0294800F053F8FFF7E3
:10387000EFFA274F01244FF0FF0810250023CDE970
:1038800000871A4619461846FFF776FCCDE9005422
:1038900000210623B6F900200846FFF753FECDE9C4
:1038A00000540623B6F9022010210020FFF74AFE3B
:1038B000CDE900540623B6F9042020210020FFF7AB
:1038C00041FECDE900540623B6F906203021002040
:1038D000FFF738FEFFF7EEFDBDEEC00ACDE900545C
:1038E00010EE102A062300214020FFF72BFEFFF7E1
:1038F0002BFAC3E7900100200018024000040240A8
:103900003C0100200000D2C274000020F00700201B
:103910001401002010B50446FDF71CFB2068416926
:1039200041F0020141612068416941F010014161AB
:103930000F492068884209D100231A4619462046BB
:10394000FFF720FE00231A460C210BE009498842AC
:103950000DD100231A4670212046FFF713FE0023E5
:103960001A467C212046BDE81040FFF70BBE10BD73
:1039700000640040006800400246012000E050431F
:10398000491EC9B2FBD270472DE9F04106AC94E85C
:10399000E010204CD4F800E02EF0807EC4F800E067
:1039A000D4F800E04EF0807EC4F800E01A4CD4F861
:1039B00000E02EF0010EC4F800E0D4F800E04EF074
:1039C000010EC4F800E04FF0000EC4F804E000BFA0
:1039D00000BF00BF6468114C206004F10800A180A2
:1039E0000260838008300560868008300760A0F898
:1039F00004C0FFF779FBFFF777FBFFF775FBFFF7D5
:103A00006BFCFFF771FDFFF7E5FCBDE8F041FFF748
:103A1000CBBB0000FCED00E0001000E0280000201F
:103A20003C4910B508604FF47A70FDF701FC0021A5
:103A3000AE20FFF7F7F900210220FFF7F3F900218C
:103A40001020FFF7EFF900214020FFF7EBF90021EC
:103A5000B020FFF7E7F900218120FFF7E3F900210B
:103A6000CF20FFF7DFF90021A120FFF7DBF90021CC
:103A7000A620FFF7D7F90021A820FFF7D3F90021EE
:103A80003F20FFF7CFF90021AD20FFF7CBF9002150
:103A90008B20FFF7C7F900213320FFF7C3F900217E
:103AA000C820FFF7BFF90021D320FFF7BBF90021A1
:103AB0000846FFF7B7F90021D520FFF7B3F9002139
:103AC0008020FFF7AFF90021D920FFF7ABF90021E3
:103AD0001F20FFF7A7F90021DA20FFF7A3F9002143
:103AE0001220FFF79FF90021DB20FFF79BF900214F
:103AF0004020FFF797F9FFF757F80021AF20FFF7B5
:103B000091F90020FFF716FBBDE810400020FFF7F9
:103B1000CDBB00004800002031B5084C6568FEF7B9
:103B2000BBF80749B0FBF1F000994143081A009136
:103B30006168491B8142FBD338BD0000001000E0E2
:103B400040420F002DE9FF4140F0800017460D462E
:103B50008DF804004FF47A76012303AA01A90B48DB
:103B60000096FEF775FB55208DF80800002409E04B
:103B700001232A4602A905480096FEF769FB641C4A
:103B8000E4B26D1CBC42F3D3BDE8FF81E401002028
:103B900013B582B04FF47A74012301AA02A9064832
:103BA0000094FEF755FB012301AA03A902480094E3
:103BB000FEF74EFB1FBD0000E401002031B5084CAC
:103BC0006568FEF769F80749B0FBF1F000994143D9
:103BD000081A00916168491B8142FBD338BD00007F
:103BE000001000E040420F001FB504460120CDE95F
:103BF00000100020029069462046FCF72FFC08B117
:103C0000FCF72AFC2046FCF791FD0A212046FCF730
:103C100037FD2046FCF7C8FC04B080B210BD0000A0
:103C200031B5084C6568FEF737F80749B0FBF1F08D
:103C300000994143081A00916168491B8142FBD3F6
:103C400038BD0000001000E040420F00464910B5AA
:103C50004A6822F440324A604A6843681A434A601C
:103C600001684A6822F480724A6001684A68036900
:103C700042EA03224A6001684A6822F040724A60C0
:103C800001684A6883681A434A6001688A6822F4B6
:103C900000628A6001688A68C3681A438A60816A20
:103CA0006FF07062D14201688A6822F070628A60A7
:103CB00001688A680CD0836A1A438A6001688A683E
:103CC00022F040528A6001688A68C36A1A4301E0A0
:103CD00022F040528A6001688A6822F002028A60FB
:103CE00001688A68037E42EA43028A6090F82010E5
:103CF000002901684A680FD042F400624A600168F6
:103D00004A6822F460424A6001684A68174C436A74
:103D100004EB43331A4301E022F400624A60016875
:103D2000CA6A22F47002CA620168CA6A838B104CA4
:103D300004EB03531A43CA6201688A6822F40072D2
:103D40008A6001688A6890F8303042EA43228A60CB
:103D500001688A6822F480628A6001688A68406922
:103D600042EA8020886010BD0023014000E0FFFF90
:103D70000000F0FF10B5014600208B698A6A4FF001
:103D8000C07453B1B3F5005F15D072B1012A0CD0E5
:103D9000022A0AD0032A09D104E01AB1012A06D066
:103DA000022A03D1C96AC90100D5012010BDC96A20
:103DB000A142FAD010BD002AF7D0012AF2D0022A7F
:103DC000F3D0032AF3D010BD01681823CAB2103A09
:103DD000B2FBF3F2054B6FF30901032A9B5CC36549
:103DE00000D9091D81650846704700004444000859
:103DF0002DE9F84F0446006889460B9D01689846F6
:103E0000174641F4806101602068016841F48071C7
:103E1000016000954FF0011B0022594620460A9B85
:103E200000F0CFF84FF4007A40B120680068C00578
:103E300001D5C4F840A00320BDE8F88F216809F03F
:103E4000FE0008612B46284920460A9A00F06CF9CA
:103E5000F0BB20684169806900902A4620460A9993
:103E600000F009F940B1206C04283AD120680168BB
:103E700041F40071016034E0FEB2B8F1010F09D0E5
:103E80002168380A08612A4620460A9900F0F3F8AA
:103E90000028E8D1206806612A4620460A9900F0E9
:103EA000EAF80028DFD12068016841F480710160E0
:103EB00000950022594620460A9B00F082F800280F
:103EC000B3D1216809F0FF0040F00100086100E073
:103ED00007E02B46044920460A9A00F025F90028FD
:103EE000AAD00120A8E70000020001002DE9F84354
:103EF000044600680D46DDE90897016898461646B5
:103F000041F4807101604B4600224FF001112046C0
:103F1000009700F056F848B120680068C00502D547
:103F20004FF4007020640320BDE8F883216805F099
:103F3000FE0008613B464A461549204600F0F4F869
:103F400088B920684169806900903A464946204610
:103F500000F091F848B1206C042804D12068016871
:103F600041F4007101600120DEE7F5B2B8F1010F04
:103F700009D02168300A08613A464946204600F0D7
:103F80007AF80028E7D1206805610020CCE700001E
:103F90000200010001684A69D24352050FD46FF450
:103FA00080624A61002140F8301F202242738173F1
:103FB000026942F00402026101730120704700208F
:103FC00070472DE9F0471E4690460D460446C1F362
:103FD0000747DDF8209008E0701C06D0FDF756FA80
:103FE000A0EB0900B0420FD876B12068012F18D09D
:103FF000806925EA00000004000C14D0002141452E
:10400000EAD00020BDE8F087002044F8300F2021DE
:104010006173A073216941F02001216120730120A7
:10402000F0E74069E5E70121E9E770B516460D467E
:1040300004460DE02046FFF7ADFF08B1012070BD3A
:10404000681C05D0FDF722FA801BA84207D835B1BD
:1040500020684069C0434007ECD4002070BD0020B8
:1040600044F8300F20216173A073216941F02001D1
:1040700021612073E2E770B516460D4604460DE057
:104080002046FFF787FF08B1012070BD681C05D0EE
:10409000FDF7FCF9801BA84207D835B120684069BC
:1040A000C0430006ECD4002070BD002044F8300F5F
:1040B00020216173A073216941F0200121612073E7
:1040C000E2E72DE9F041002590460E460446202700
:1040D00017E04069C043C0060CD454F8301B6FF0A1
:1040E0001000486144F810596777A577206A20626C
:1040F000257717E0FDF7CAF9A0EB0800B04208D811
:104100003EB120684169C9434906E2D40020BDE8B8
:10411000F08144F8305F6773A573206940F0200098
:10412000206125730120F2E72DE9F0479A46914678
:104130000E46044600254FF02008C1F3074725E04E
:1041400020684069C043400514D42068016841F4E8
:104150000071016021686FF480604861256384F814
:104160003D8084F83E50206C40F00400206484F8C8
:104170003C501FE0B9F1FF3F08D0FDF787F9A0EBF5
:104180000A0149450CD8B9F1000F09D02068012F68
:1041900013D0806926EA00000004000C0BD0CFE7A2
:1041A00044F8305F84F80D80A573206940F020004A
:1041B000206125730120BDE8F0874069EAE700002F
:1041C00038B504461248134B0068B0FBF3F04FF4C7
:1041D0007A73584300906068B0F5827F0DD10B462A
:1041E000009200228021204600F016F870B1606D28
:1041F00040F020006065032038BD009830B1401EBB
:10420000009020688068C0430006F6D5002038BDC5
:104210000C00002000366E012DE9F8431E46914641
:1042200088460446089DFDF731F9401B351AFDF715
:104230002DF9074625480068C0F3CB30684338E0C5
:10424000701C37D0FDF722F9C01BA84203D215B16C
:10425000009860B32CE02068416821F0E0014160E3
:104260006068B0F5827F0BD1A068B0F5004F02D036
:10427000B0F5806F04D12068016821F04001016031
:10428000A06AB0F5005F09D12068016821F40051EF
:1042900001602068016841F400510160012084F848
:1042A0005100002084F850000320BDE8F883002569
:1042B000401E00902068816838EA010004D0002187
:1042C0004945BDD10020F0E70121F9E70C000020AD
:1042D000F0B5026A22F001020262036A4268846950
:1042E000124E24F073050C682C4323F002058B68F2
:1042F0002B430D4DA84201D0B04205D123F0080751
:10430000CB683B4323F00403A84201D0B04205D15F
:104310004D6922F4407215438A692A4342608461E0
:10432000496841630362F0BD0000014000040140A0
:10433000F0B5026A22F480720262026A4368C469BC
:1043400022F4007224F073050C68124E2C438D6821
:1043500042EA05220E4DA84201D0B04206D1CF68F4
:1043600022F4006242EA072222F48062A84201D0CD
:10437000B04207D14D6923F4405343EA05138D69D8
:1043800043EA05134360C4614968C1630262F0BD3A
:10439000000001400004014030B5026A22F480525E
:1043A0000262046A4268C3690D6823F4E64343EA83
:1043B00005238D6824F4005444EA0534084DA842CE
:1043C00002D0084DA84204D14D6922F4804242EA4D
:1043D00085124260C36149680164046230BD000017
:1043E00000000140000401400907090E002804DB19
:1043F00000F1E02080F80014704700F00F0000F199
:10440000E02080F8141D7047FDF71AFBFFF708F84D
:10441000FEF7C8F9FEF7A8F9FEF786FAFEF7A4FA48
:10442000FEF780F9FEF7C0FAFEF7E2FAFEF716F99A
:10443000FEF746F9FFF7EEF9FEE74FF04070E1EEC8
:10444000100A704700061016000610160000000043
:104450000000000001020304060708090000000034
:10446000010203040B080141090242C0030A0B04C4
:104470000000000000000000002F00000000070006
:10448000070000147F147F1400242A7F2A12006280
:10449000640813230036495522500000050300002C
:1044A00000001C224100000041221C000014083EB4
:1044B00008140008083E0808000000A0600000087A
:1044C00008080808000060600000002010080402CE
:1044D000003E5149453E0000427F4000004261518C
:1044E0004946002141454B31001814127F10002726
:1044F00045454539003C4A494930000171090503E9
:1045000000364949493600064949291E0000363619
:10451000000000005636000000081422410000147C
:104520001414141400004122140800020151090659
:1045300000324959513E007C1211127C007F4949DA
:104540004936003E41414122007F4141221C007F0B
:1045500049494941007F09090901003E4149497A19
:10456000007F0808087F0000417F41000020404193
:104570003F01007F08142241007F40404040007FFF
:10458000020C027F007F0408107F003E4141413E43
:10459000007F09090906003E4151215E007F09198B
:1045A00029460046494949310001017F0101003F88
:1045B0004040403F001F2040201F003F4038403F08
:1045C000006314081463000708700807006151496C
:1045D000454300007F41410000552A552A550000FF
:1045E00041417F000004020102040040404040407D
:1045F000000001020400002054545478007F484415
:10460000443800384444442000384444487F00384B
:104610005454541800087E0901020018A4A4A47C74
:10462000007F080404780000447D4000004080843E
:104630007D00007F102844000000417F4000007C86
:1046400004180478007C0804047800384444443892
:1046500000FC242424180018242418FC007C0804DE
:10466000040800485454542000043F444020003CB7
:104670004040207C001C2040201C003C4030403C3E
:10468000004428102844001CA0A0A07C00446454CE
:104690004C44141414141414000000000000000012
:1046A000000000000000FC0000000000020000000C
:1046B000000C020C020000000000000090D0BCD0F2
:1046C000BC900003000300001824FE448C00030289
:1046D000070201001824D8B04C8000030001020139
:1046E000C038E438E00001020201020208060000BE
:1046F0000000000000000000000000F804020000BC
:1047000000010204000204F800000004020100009D
:104710009060F86090000000010000002020FC2064
:10472000200000000100000000000000000008065A
:1047300000000000202020202000000000000000D9
:104740000000000000000002000000000080601C6B
:104750000200040300000000F8040404F800010251
:10476000020201000008FC00000000020302000039
:1047700018844424180003020202020008042424BE
:10478000D80001020202010040B088FC8000000055
:10479000000302003C242424C400010202020100A0
:1047A000F824242CC0000102020201000C04E41CC5
:1047B0000400000003000000D8242424D8000102D3
:1047C0000202010038444444F800000302020100E0
:1047D00000001000000000000200000000002000A7
:1047E00000000000060000000020508804020000C5
:1047F00000000102909090909000000000000000E6
:104800000002048850200002010000001804C424A3
:104810001800000002000000F804E494F80001020F
:104820000202020000E09CF080000203000003028C
:1048300004FC2424D800020302020100F80404044A
:104840000C0001020202010004FC0404F80002034F
:104850000202010004FC24740C00020302020300A3
:1048600004FC24740C00020302000000F00804445D
:10487000CC4000010202010004FC2020FC040203E1
:10488000000003020404FC0404000202030202000C
:10489000000404FC040406040403000004FC24D007
:1048A0000C0402030200030204FC040000000203E3
:1048B00002020203FC3CC03CFC00030003000300B6
:1048C00004FC30C4FC04020302000300F8040404E6
:1048D000F80001020202010004FC24241800020373
:1048E00002000000F8848404F800010202070500B9
:1048F00004FC2464980002030200030218242444E8
:104900008C000302020201000C04FC040C000002F3
:104910000302000004FC0000FC040001020201008C
:10492000047C80E01C040000030000001CE03CE06C
:104930001C00000300030000049C609C04000203B0
:1049400000030200041CE01C04000002030200003B
:104950000C84641C04000203020203000000FE0237
:104960000200000007040400000E30C00000000038
:1049700000010200000202FE000000040407000023
:10498000000402040000000000000000000000001D
:1049900000000808080808080000020000000000E5
:1049A000000000000040A0A0C000000102020302BD
:1049B00004FC2020C00000030202010000C02020EF
:1049C000600000010202020000C02024FC0000017F
:1049D0000202030200C0A0A0C00000010202020007
:1049E0000020F82424040002030202000040A0A0DA
:1049F000602000070A0A0A0404FC2020C000020309
:104A0000020003020020E400000000020302000094
:104A1000000020E4000008080807000004FC80E013
:104A200020200203020003020404FC000000020232
:104A300003020200E020E020C000030003000300A6
:104A400020E02020C00002030200030200C020205A
:104A5000C00000010202010020E02020C000080F79
:104A60000A02010000C02020E0000001020A0F0835
:104A700020E0402020000203020000000060A0A00F
:104A800020000002020203000020F82000000000C5
:104A90000102020020E00020E00000010202030207
:104AA00020E0208060200000030100006080E080A2
:104AB000600000030003000020608060200002030B
:104AC0000003020020E020806020080807010000A9
:104AD0000020A0602000000203020200000020DE8F
:104AE0000200000000070400000000FF00000000BA
:104AF000000F00000002DE2000000004070000009C
:104B00000201020404020000000000000000000096
:104B1000000000000000000000000000000000F89D
:104B200000000000000000333000000000100C0600
:104B3000100C0600000000000000000040C078409B
:104B4000C0784000043F04043F040400007088FC67
:104B500008300000001820FF211E0000F008F000BF
:104B6000E018000000211C031E211E0000F0088830
:104B7000700000001E2123241927211010160E009A
:104B8000000000000000000000000000000000E045
:104B9000180402000000000718204000000204185A
:104BA000E00000000040201807000000404080F0B6
:104BB000804040000202010F01020200000000F0EC
:104BC000000000000101011F0101010000000000C0
:104BD0000000000080B07000000000000000000035
:104BE00000000000000101010101010100000000BE
:104BF0000000000000303000000000000000000055
:104C000080601804006018060100000000E0100831
:104C10000810E000000F102020100F00001010F806
:104C2000000000000020203F202000000070080845
:104C300008887000003028242221300000300888C5
:104C4000884830000018202020110E000000C020ED
:104C500010F8000000070424243F240000F808880E
:104C6000880808000019212020110E0000E010889B
:104C700088180000000F112020110E0000380808CD
:104C8000C83808000000003F0000000000708808DD
:104C900008887000001C222121221C0000E010085E
:104CA0000810E0000000312222110F00000000C0B7
:104CB000C000000000000030300000000000008054
:104CC0000000000000008060000000000000804044
:104CD000201008000001020408102000404040405D
:104CE00040404000040404040404040000081020B0
:104CF00040800000002010080402010000704808F5
:104D00000808F0000000003036010000C030C8285C
:104D1000E810E0000718272423140B000000C03817
:104D2000E0000000203C23020227382008F8888891
:104D300088700000203F202020110E00C03008089D
:104D400008083800071820202010080008F8080874
:104D50000810E000203F202020100F0008F888886D
:104D6000E8081000203F20202320180008F8888839
:104D7000E8081000203F200003000000C0300808B1
:104D80000838000007182020221E020008F808003A
:104D90000008F808203F210101213F20000808F801
:104DA000080800000020203F202000000000080824
:104DB000F8080800C08080807F00000008F888C0E4
:104DC00028180800203F20012638200008F8080095
:104DD00000000000203F20202020300008F8F800CC
:104DE000F8F80800203F003F003F200008F830C0DE
:104DF0000008F808203F200007183F00E0100808CE
:104E00000810E0000F10202020100F0008F80808FC
:104E10000808F000203F210101010000E01008080F
:104E20000810E0000F18242438504F0008F8888834
:104E300088887000203F2000030C30200070880814
:104E4000080838000038202121221C00180808F822
:104E5000080818000000203F2000000008F80800A3
:104E60000008F808001F202020201F000878880074
:104E700000C83808000007380E010000F80800F8E4
:104E80000008F800033C0700073C0300081868808E
:104E90008068180820302C03032C30200838C80004
:104EA000C83808000000203F200000001008080853
:104EB000C83808002038262120201800000000FEF5
:104EC000020202000000007F40404000000C30C0A1
:104ED00000000000000000010638C00000020202CD
:104EE000FE000000004040407F000000000004027F
:104EF00002020400000000000000000000000000AA
:104F00000000000080808080808080800002020499
:104F10000000000000000000000000000000808091
:104F2000808000000019242222223F2008F80080FF
:104F300080000000003F112020110E0000000080C2
:104F400080800000000E1120202011000000008051
:104F50008088F800000E112020103F200000808083
:104F600080800000001F222222221300008080F097
:104F7000888888180020203F2020000000008080C2
:104F800080808000006B94949493600008F8008007
:104F900080800000203F210000203F200080989862
:104FA000000000000020203F2020000000000080C2
:104FB0009898000000C08080807F000008F8000002
:104FC00080808000203F24022D302000000808F857
:104FD000000000000020203F202000008080808012
:104FE00080808000203F20003F20003F80800080A4
:104FF00080800000203F210000203F2000008080B2
:1050000080800000001F202020201F008080008062
:105010008000000080FFA12020110E000000008011
:1050200080808000000E112020A0FF808080800002
:105030008080800020203F2120000100000080802F
:10504000808080000033242424241900008080E024
:10505000808000000000001F2020000080800000F1
:1050600000808000001F202020103F2080808000D2
:105070000080808000010E300806010080800080E2
:10508000008080800F300C030C300F000080800007
:10509000808080000020312E0E3120008080800032
:1050A0000080808080818E701806010000808080E2
:1050B000808080000021302C222130000000000080
:1050C000807C020200000000003F40400000000021
:1050D000FF00000000000000FF0000000002027C52
:1050E000800000000040403F000000000006010179
:1050F00002020404000000000000000000000000A4
:10510000000000000000000000000000000000009F
:10511000000000000000000000000000000000008F
:105120000000000000F0F0F00000000000000000AF
:1051300000017F010000000000000000001C1C1C9A
:105140000000000000008060301C8C60301C0C00EF
:10515000000000000000000000000000000000004F
:105160000000000000000000000000E0000000005F
:1051700000E000000086E69F86868686E69F860021
:1051800000011F01010101011F010100000080C099
:105190006020F820E0C00000000003070C18FF703A
:1051A000E18100000000070F10107F100F070000C2
:1051B0008060206080000000E02000000F30203080
:1051C0009F70DC371030C0000000100E030007187D
:1051D000101807000000C02020E0C0000000000000
:1051E00080E01F38E88703C43C040000070F181054
:1051F000100B070D1010080000808C4C38000000C8
:10520000000000000000000000000000000000009E
:10521000000000000000000000000000000000008E
:10522000000080E0300804000000000000FEFF01E4
:1052300000000000000000000000030F18204000E4
:1052400000040830E08000000000000000000000C2
:1052500001FFFE0000000000004020180F030000C6
:1052600000000000000000000000C000000000007E
:10527000004266663C18FF183C666642000000006B
:10528000000003000000000000000000000080009B
:1052900000000000001010101010FF10101010106F
:1052A00000000000000003000000000000000000FB
:1052B00000000000000000000000000000000000EE
:1052C0000000000000808C4C38000000000000004E
:1052D000000000000000000000000000001010109E
:1052E000101010101010100000000000000000004E
:1052F00000000000000000000000000000000000AE
:1053000000000000000000000000000000001C1C65
:105310001C00000000000000000000000000000071
:10532000E0380C000000000080701C03000000004A
:105330000060380E0100000000000000000080C086
:1053400060202060C080000000FEFF01000000001F
:1053500001FFFE000001070E181010180E070100D3
:105360000000808080C0E00000000000000000001D
:1053700000FFFF000000000000001010101F1F10B1
:10538000101000000080402020202060C08000001D
:1053900000030300804020381F070000001C1A197A
:1053A00018181818181F00000080C020202060C0A6
:1053B00080000000000303001010182FE780000099
:1053C00000070F10101010180F0700000000000059
:1053D0000000C0E0F000000000C0B088868180FFBF
:1053E000FF808000000000000010101F1F10100040
:1053F0000000E060606060606060000000003F10DE
:1054000008080818F0E0000000070B101010101C2E
:105410000F030000000080C040202020E0C00000FA
:1054200000FCFF211008080818F0E0000001070C3C
:1054300018101010080F03000000C0E060606060EA
:1054400060E06000000003000000E01807000000BA
:1054500000000000001F1F00000000000080C0606E
:105460002020202060C080000087EF2C18183030EA
:1054700068CF830000070F0810101010180F0700E6
:105480000000C0C020202020C0800000001F3F601E
:105490004040402010FFFE0000000C1C10101008BF
:1054A0000F030000000000000000000000000000EA
:1054B00000000000000E0E0E0000000000000000C2
:1054C000001C1C1C00000000000000000000000088
:1054D0000000000000000000000C0C0000000000B4
:1054E000000000000058380000000000000000002C
:1054F00000000080402010000000102844820100BD
:10550000000000000000000000000102040810007C
:1055100000000000000000000000000000848484FF
:1055200084848484848484000000000000000000DF
:10553000000000000000102040800000000000007B
:105540000000000000000182442810000000100844
:10555000040201000000000000C020201010101004
:1055600030E0C0000003030000F010080C07030047
:10557000000000001C1C1C0000000000000000C017
:10558000406020202040C00000FCFF01F00E03C15D
:10559000FE03807F0001070E08111110110904029B
:1055A0000000000080E0E000000000000000807CBF
:1055B0004340477FF880000010181F1000000000D3
:1055C000131F1C1020E0E02020202060C08000007D
:1055D00000FFFF10101010182FE78000101F1F1081
:1055E00010101010180F0700000080C0402020206D
:1055F0002060E00000FCFF0100000000000001004E
:105600000001070E181010100804030020E0E0202D
:1056100020202040C080000000FFFF0000000000AC
:1056200001FFFE00101F1F10101018080E070100C8
:1056300020E0E020202020202060800000FFFF10DC
:105640001010107C00000000101F1F101010101010
:105650001018060020E0E02020202020606080005C
:1056600000FFFF101010107C00000100101F1F1021
:105670000000000000000000000080C0602020202A
:1056800040E0000000FCFF0100004040C0C140407D
:105690000001070E181010100F0F000020E0E0208E
:1056A0000000000020E0E02000FFFF1010101010AC
:1056B00010FFFF00101F1F1000000000101F1F1020
:1056C0000000202020E0E02020200000000000005A
:1056D00000FFFF000000000000001010101F1F104E
:1056E0001010000000000000202020E0E02020201A
:1056F00000000000000000FFFF0000000060E080EC
:105700008080C07F3F00000020E0E020000020A05B
:105710006020200000FFFF30187CE3C00000000084
:10572000101F1F10000001131F1C181020E0E020A4
:10573000000000000000000000FFFF00000000006B
:1057400000000000101F1F1010101010101806008D
:1057500020E0E0E000000000E0E0E02000FF013F8A
:10576000FEC0E01E01FFFF00101F1000031F03001A
:10577000101F1F1020E0E0C0000000000020E0200B
:1057800000FF0003071C78E08000FF00101F1000DE
:1057900000000000030F1F00000080C06020206098
:1057A000C080000000FEFF010000000000FFFE00BE
:1057B0000001070E181010180C07010020E0E0206F
:1057C0002020202060C0800000FFFF20202020201B
:1057D000301F0F00101F1F1000000000000000000D
:1057E000000080C060202060C080000000FEFF013B
:1057F0000000000000FFFE000001070E1111133C25
:105800007C67210020E0E0202020202060C0800074
:1058100000FFFF101030F0D0080F0700101F1F10FE
:10582000000000030F1C10100080C060202020200A
:105830004040E00000070F0C1818303060E0810095
:10584000001F0C0810101010180F07008060202097
:1058500020E0E020202060800100000000FFFF0029
:105860000000000100000000101F1F1000000000D9
:1058700020E0E020000000000020E02000FFFF000A
:10588000000000000000FF0000070F1810101010AB
:10589000100807002060E0E02000000020E0602009
:1058A0000000077FF88000807C03000000000000FB
:1058B000071F1C070000000020E0E02000E0E020BF
:1058C0000020E0200007FFF8E01FFFFCE01F0000C1
:1058D0000000031F0300011F03000000002060E020
:1058E000A0000020E0602000000000038F7CF8C6CC
:1058F000010000000010181E130001171F181000EF
:105900002060E0E02000000020E0602000000107AF
:105910003EF8E0180700000000000010101F1F10E4
:105920001000000000806020202020A0E0E0200087
:1059300000000000C0F03E0F0300000000101C1F1C
:1059400017101010101806000000000000FC0404DE
:10595000040404000000000000FF0000000000003C
:1059600000000000007F404040404000000010E088
:10597000000000000000000000000000031C608028
:105980000000000000000000000000030C70800018
:1059900000000404040404FC0000000000000000F7
:1059A000000000FF00000000000040404040407F39
:1059B0000000000000000010080C040C081000009B
:1059C00000000000000000000000000000000000D7
:1059D00000000000000000000000000000000000C7
:1059E00000000000000000000000000000000000B7
:1059F00080808080808080808080808000000004A3
:105A00000408080000000000000000000000000082
:105A10000000000000000000000000000000000086
:105A2000000000000000000000000000000098D806
:105A300044642424FCF80000000F1F181010100804
:105A40001F1F10180020E0F0000000000000000000
:105A50000000FFFF180804040CF8F00000001F0FFE
:105A600018101010180F03000000000000000000C4
:105A70000000000000E0F8180404043C38000000B6
:105A800000030F0C101010100806000000000000AA
:105A900000000020E0F0000000E0F81C040404080E
:105AA000FFFF000000030F18101010081F0F080060
:105AB0000000000000000000000000000000E0F80E
:105AC000484444444C7870000000030F0C18101038
:105AD000100804000000000080C0602020E0C0002A
