:020000040800F2
:10000000D0530020E9020008F3300008652B0008F7
:10001000F130000805070008E53C0008000000007A
:10002000000000000000000000000000290200089D
:10003000D50800080000000085020008E935000826
:100040000303000803030008030300080303000878
:100050000303000803030008030300080303000868
:100060000303000803030008030300080303000858
:10007000F5070008010800080D0800081908000825
:100080000303000803030008D10500080303000868
:100090000907000815070008030300080303000808
:1000A00003030008B936000803030008030300082F
:1000B000C536000803030008030300080303000813
:1000C00003030008030300080303000803030008F8
:1000D000030300080303000803030008D93C0008D9
:1000E00003030008030300080303000803030008D8
:1000F00003030008030300080303000803030008C8
:1001000003030008030300080303000803030008B7
:100110007138000803030008030300080303000804
:100120002508000803030008030300080303000870
:100130000303000803030008030300080303000887
:100140000303000803030008030300080303000877
:100150000303000803030008030300080303000867
:100160000303000803030008030300080303000857
:100170000303000803030008030300080000000055
:10018000030300080303000800F002F800F03CF845
:100190000AA090E8000C82448344AAF10107DA45E2
:1001A00001D100F031F8AFF2090EBAE80F0013F0F8
:1001B000010F18BFFB1A43F001031847E852000073
:1001C00008530000103A24BF78C878C1FAD8520703
:1001D00024BF30C830C144BF04680C6070470000C1
:1001E0000023002400250026103A28BF78C1FBD840
:1001F000520728BF30C148BF0B6070471FB505F0DC
:1002000008F91FBD10B510BD00F061F91146FFF7E8
:10021000F5FF03F0D1FD00F07FF903B4FFF7F2FF23
:1002200003BC00F087F900002C4B19680868B0E89F
:10023000F04F80F30988BFF36F8F4FF0000080F319
:10024000118870470000000008480068006880F3CB
:1002500008884FF0000080F3148862B661B6BFF3DF
:100260004F8FBFF36F8F00DF00BF00BF08ED00E0CE
:10027000DFF80C00016841F470010160704700BFB5
:1002800088ED00E0EFF30980BFF36F8F134B1A681E
:100290001EF0100F08BF20ED108A20E9F04F10600B
:1002A00009B44FF0500080F31188BFF34F8FBFF3B4
:1002B0006F8F04F0EDFA4FF0000080F3118809BC55
:1002C00019680868B0E8F04F1EF0100F08BFB0ECD6
:1002D000108A80F30988BFF36F8F704718000020E1
:1002E000EFF3058070470000094880470948004740
:1002F000FEE7FEE7FEE7FEE7FEE7FEE7FEE7FEE7D6
:10030000FEE7FEE704480549054A064B7047000032
:10031000A936000889010008D04D0020D0530020E4
:10032000D04F0020D04F002053EA020C00F069802B
:100330002DE9F04B4FF00006002B1FBFB3FA83F5F9
:1003400003FA05F424FA05F65E4012BF1643B2FA2A
:1003500082F502FA05F4C5F120051EBF22FA05FC5C
:1003600044EA0C04203556EA044C4FEA144418BF02
:10037000641C4FF000084FF00009904271EB030C31
:1003800039D3002919BFB1FA81F701FA07F6B0FA9B
:1003900080F700FA07F6C7F120071EBF20FA07FC16
:1003A00046EA0C062037B6FBF4FCA7EB0507103F26
:1003B00007F01F0BCBF120060CFA0BFB2CFA06F60C
:1003C00044BFB3460026202FA4BF5E464FF0000B6B
:1003D0005BEA060C08BF4FF0010B19EB0B09ABFBF6
:1003E000027C48EB0608C01B06FB02CC0BFB03CCCF
:1003F00071EB0C01C1E70B46024641464846BDE899
:10040000F08B13B54FF000004FF00001AFF3008008
:10041000BDE81C40704710B5203AC0F00B80B1E831
:100420001850203AA0E81850B1E81850A0E8185029
:10043000BFF4F5AF5FEA027C24BFB1E81850A0E832
:10044000185044BF18C918C0BDE810405FEA827C4C
:1004500024BF51F8043B40F8043B08BF7047D20763
:1004600028BF31F8023B48BF11F8012B28BF20F804
:10047000023B48BF00F8012B70474FF0000200B567
:10048000134694469646203922BFA0E80C50A0E8B7
:100490000C50B1F12001BFF4F7AF090728BFA0E865
:1004A0000C5048BF0CC05DF804EB890028BF40F831
:1004B000042B08BF704748BF20F8022B11F0804F73
:1004C00018BF00F8012B704770477047704775469A
:1004D00000F02CF8AE4605006946534620F00700B0
:1004E000854618B020B5FFF70DFFBDE820404FF05E
:1004F00000064FF000074FF000084FF0000B21F00E
:100500000701AC46ACE8C009ACE8C009ACE8C009DA
:10051000ACE8C0098D46704710B50446AFF30080C3
:100520002046BDE81040FFF778BE00000048704745
:100530006C4D002001491820ABBEFEE726000200EA
:10054000704710B50146806B026C12F0500F05D059
:10055000026CD20626D500F071FA10BD016C41F490
:100560000071016401688A6812F0405F17D1027E51
:10057000AAB9CA6A12F4700F02D08A6852050ED462
:100580004A6822F020024A60016C21F48071016403
:10059000016CC90403D4016C41F00101016400F055
:1005A0004BFA10BD806BC26CBDE810400846104786
:1005B00010B5806B40210164416C41F0040141643D
:1005C00000F03CFA10BD10B5806B00F036FA10BD9B
:1005D000014800F034BA00004C030020464910B531
:1005E0004A6822F440324A604A6843681A434A60C3
:1005F00001684A6822F480724A6001684A680369A7
:1006000042EA03224A6001684A6822F040724A6066
:1006100001684A6883681A434A6001688A6822F45C
:1006200000628A6001688A68C3681A438A60816AC6
:100630006FF07062D14201688A6822F070628A604D
:1006400001688A680CD0836A1A438A6001688A68E4
:1006500022F040528A6001688A68C36A1A4301E046
:1006600022F040528A6001688A6822F002028A60A1
:1006700001688A68037E42EA43028A6090F820108B
:10068000002901684A680FD042F400624A6001689C
:100690004A6822F460424A6001684A68174C436A1B
:1006A00004EB43331A4301E022F400624A6001681C
:1006B000CA6A22F47002CA620168CA6A838B104C4B
:1006C00004EB03531A43CA6201688A6822F4007279
:1006D0008A6001688A6890F8303042EA43228A6072
:1006E00001688A6822F480628A6001688A684069C9
:1006F00042EA8020886010BD0023014000E0FFFF37
:100700000000F0FFFEE70000014800F0C2BC00005E
:10071000F4030020014800F0BCBC0000F4030020FA
:10072000F0B501F003064FEAC2044FEAC3058BB0EF
:100730008F0744EA460445EA460504D5D204CDE9CC
:100740000024DA0403E05201CDE900245A01CDE986
:100750000225CA08C1F38001CDE90412012200215B
:10076000CDE906120E2109910892694600F096FB28
:100770000BB0F0BD10B5044600F096FE206841694C
:1007800041F0020141612068416941F0100141617D
:100790000F492068884209D100231A46194620468D
:1007A000FFF7BEFF00231A460C210BE009498842DF
:1007B0000DD100231A4670212046FFF7B1FF002318
:1007C0001A467C212046BDE81040FFF7A9BF10BDA6
:1007D000006400400068004000B587B0009100212F
:1007E00001910291CDE9031306AB694600F0E8FAE6
:1007F00007B000BD014800F0E5BE0000AC050020D8
:10080000014800F0DFBE0000EC040020014800F0C9
:10081000D9BE00000C060020014800F0D3BE000045
:100820004C050020014800F0CDBE000094030020DC
:1008300001681823CAB2103AB2FBF3F2054B6FF30A
:100840000901032A9B5CC36500D9091D816508461F
:10085000704700006054000810B5014600208B6905
:100860008A6A4FF0C07453B1B3F5005F15D072B10E
:10087000012A0CD0022A0AD0032A09D104E01AB1B5
:10088000012A06D0022A03D1C96AC90100D5012074
:1008900010BDC96AA142FAD010BD002AF7D0012AC2
:1008A000F2D0022AF3D0032AF3D010BD30B5046889
:1008B000256825F480252560046863608368402BE3
:1008C000036803D099600068C26030BD9A60006818
:1008D000C16030BD704701B5009801E0401E009036
:1008E0000028FBD108BD72B6FEE7704778B500243A
:1008F000009490F83C20012A19D0012280F83C2075
:100900000A6807230568092A13D9EE680A3A02EB38
:10091000420293409E43EE600B788A680A3B03EBE9
:1009200043039A400368DD682A43DA6010E002203E
:1009300078BD2E6902EB420293409E432E610B78F4
:100940008A6803EB43039A4003681D692A431A61CE
:100950004A681F23072A13D205686E6B521E02EBEA
:10096000820293409E436E630B790A885B1E92B2AB
:1009700003EB83039A4003685D6B2A435A6327E0C5
:1009800005680D2A12D22E6BD21F02EB8202934011
:100990009E432E630B790A88DB1F92B203EB83031D
:1009A0009A4003681D6B2A431A6311E0EE6A0D3A00
:1009B00002EB820293409E43EE620B790A880D3B64
:1009C00092B203EB83039A400368DD6A2A43DA623A
:1009D000164B0568144A9D4206D10D68122D03D1AD
:1009E000556845F48005556005689D4218D10B682F
:1009F000102B01D0112B13D1536843F40003536023
:100A0000096810290CD10A490A4A0968B1FBF2F1B8
:100A100001EB8101490000E0491E00910029FBD152
:100A200080F83C40002078BD0023014000200140B8
:100A30001400002040420F0070477047704770B5A7
:100A4000044600680668456816F0020F05F02001AC
:100A50002AD049B3216CC90603D4216C41F400713A
:100A60002164816811F0405F17D1217EA9B9C16A64
:100A700011F4700F02D0816849050ED4416821F04D
:100A800020014160206C20F480702064206CC00440
:100A900003D4206C40F0010020642046FFF7CCFF17
:100AA00021686FF01200086016F0040F05F0800155
:100AB00032D089B3206CC00603D4206C40F40050BF
:100AC00020642068816811F4401F1ED1816B11F4ED
:100AD000401F02D08168490517D44168490514D4E4
:100AE000816811F0405F10D1217E71B9416821F019
:100AF00080014160206C20F480502064206CC0058F
:100B000003D4206C40F0010020642046FFF7EDFE86
:100B100021686FF00C00086016F0010F05F040012D
:100B20000FD071B120680068C0070AD0206C40F473
:100B300080302064204600F043F821686FF0010007
:100B4000086016F0200F05F080610ED000290CD04F
:100B5000606C40F00200606420686FF02005056062
:100B60002046FFF76BFF2068056070BD70B504007C
:100B70004FF0000503D0206C002610B107E00120E3
:100B800070BD204600F01EF8666484F83C60206C5E
:100B9000C00610D4206C20F4885040F0020020647D
:100BA0002046FFF71BFD6664206C20F0020040F039
:100BB0000100206400E0012584F83C60284670BDF7
:100BC0007047000070B586B0064614216846FFF7EE
:100BD00054FC2149306888423CD1204800250168F6
:100BE00041F480710160006800F4807005901B483A
:100BF0001438016841F0010101600068694600F0A5
:100C000001000590082000900320CDE9010514485B
:100C100000F04AFE144C1348C4E900050015A56015
:100C2000C4E90350400060618000A0614011C4E944
:100C300007052046656200F095FD08B1FFF753FEF9
:100C4000B463002205211220A66300F0C7FF122022
:100C500000F0B6FF06B070BD0020014044380240ED
:100C6000000002401064024094030020F8B50446DE
:100C700000200E46009094F83C10012907D0012175
:100C800084F83C1021688B68DB0702D011E0022059
:100C9000F8BD8B6843F001038B604049404B096805
:100CA000B1FBF3F101EB410100E0491E0091002985
:100CB000FBD121688B68DB0503D58B6823F4807337
:100CC0008B6021688B68DB075DD0236C40F2016587
:100CD000AB4343F4807323644968490505D5216C0F
:100CE00021F4005141F480512164216CC90404D5E0
:100CF000616C21F00601616400E0606484F83C00EE
:100D0000A16B2948274DC863A16B28480864A16BD3
:100D10002748C86421686FF0220008602068416895
:100D200041F0806141602068816841F48071816098
:100D30002168134632464C31A06B00F07DFD686897
:100D40001C49C006206806D0884224D1816811F071
:100D5000405F13D01FE08842F8D0174A904203D179
:100D6000D1F80423D206F1D0144A904213D1D1F81D
:100D7000041301F01F011029E8D30CE0816841F051
:100D80008041816007E0206C40F010002064606CBE
:100D900040F0010060640020F8BD00001400002055
:100DA00040420F000023014043050008C70500082A
:100DB000B10500080020014000210140002201404F
:100DC000F0B590F820500468A468012D05D0022DDC
:100DD00003D0416A41F480215DE014F0406F01D1FD
:100DE000E50055D5C4F30164022C03D9416A41F4EE
:100DF000000150E00125A5401D608D684FF4C073CF
:100E00009DB1CE6835434E6845EAC605066803EBDA
:100E10000417F5514FF4C275076805EB04150E6908
:100E20007E51097D012905D009E00E88CD6845EA8B
:100E30004655EBE701684E5946F480764E511179DC
:100E4000D579567941EA056195792D0445EA06255B
:100E500029434FF4C676056806EB0416A9511178AC
:100E6000D57841EA0561957852782D0445EA022249
:100E700011434FF4C475026805EB04155151006825
:100E800003EB0411425842F0010242500020F0BD31
:100E9000416A41F4001141620120F0BD10B590F8A3
:100EA0002020012A07D0022A05D0416A41F480217E
:100EB0004162012010BD3B48D0F8002242F00102FF
:100EC000C0F80022D0F8002222F47C52C0F80022A0
:100ED000D0F800224B6A42EA0322C0F800220A7DC1
:100EE00002F01F0301229A40D0F81C329343C0F84D
:100EF0001C32CB69B3B9D0F80C329343C0F80C3232
:100F00008C894B6864F31F434C6900EBC404C4F83C
:100F100040320C890B6864F31F434C6900EBC40436
:100F2000C4F84432CB69012B16D1D0F80C321343EC
:100F3000C0F80C320C884B6864F31F434C6900EB1B
:100F4000C404C4F840320C89CB6864F31F434C6975
:100F500000EBC404C4F844328B69002BD0F804328F
:100F60000ED01343C0F804320B69002BD0F81432B2
:100F700008D01343C0F81432096A012904D008E0EC
:100F80009343EFE79343F5E7D0F81C121143C0F801
:100F90001C12D0F8001221F00101C0F8001200204C
:100FA00010BD000000640040704730B590F820404C
:100FB000012C05D0022C03D0416A41F480215DE070
:100FC0000468002955D02469A40754D04FF4D8747C
:100FD000056804EB01142D5915F0040595600568AA
:100FE0002D594ED0ED08556005682C5904F00204C7
:100FF000D4604FF4DA74056804EB01142D5905F040
:101000000F05156105682D59C5F30725956105681C
:101010002C59240C54614FF4DC72046802EB011269
:10102000A4581C700468A458240A5C700468A4586E
:10103000240C9C700468A258120EDA704FF4DE7211
:10104000046802EB0112A4581C710468A458240A15
:101050005C710468A458240C9C710468A258120E98
:10106000DA71006881B1016941F02001016100205D
:1010700030BDE468A8E7416A41F4001141620120F3
:1010800030BD6D0D1560AFE7C16841F02001C16052
:10109000EDE72DE9F05F0546006800244669D0F8C9
:1010A00004908768D0F80CB0D0F810A0D0F8188061
:1010B000F10748D0F90714D001218160B80703D5A2
:1010C000284600F01EFA0CE0780702D54FF40064C1
:1010D00007E0380702D54FF4805402E0284600F0BC
:1010E0000FFAF80516D529684FF480708860B805A6
:1010F00003D5284600F007FA0CE0780502D544F441
:10110000005407E0380502D544F4804402E0284644
:1011100000F0F8F9F80316D529684FF4803088609C
:10112000B80303D5284600F0F0F90CE0780302D5A7
:1011300044F4004407E0380302D544F4803402E06C
:10114000284600F0E1F9300707D55FEACB6004D507
:101150002968102044F40074C86070074FF0080735
:1011600007D55FEA0B7004D52868C760284600F0F1
:1011700061F9B00706D52868C068800702D0284604
:1011800000F05AF9700607D55FEACA6004D52968ED
:10119000102044F480640861B00607D55FEA0A7045
:1011A00004D528680761284600F060F9F00606D5E6
:1011B00028680069800702D0284600F059F9B0037A
:1011C00008D55FEAC96005D529681020486028461F
:1011D00000F068F9F00307D55FEA097004D52868C4
:1011E0004760284600F092F9300446D55FEA49701E
:1011F00040D5F00504D55FEAC87001D044F0010481
:10120000B00504D55FEA887001D544F0020470058A
:1012100004D55FEA487001D544F00404300529D5AF
:1012200018F0700F26D008F07000402815D006DCAA
:10123000102809D020280AD0302816D10AE05028DA
:101240000ED0602811D10EE044F008040DE044F007
:1012500010040AE044F0200407E044F0400404E0F5
:1012600044F0800401E044F480742868816921F02E
:1012700070018161296804204860002C05D0686AEB
:10128000204368622846FFF78FFEBDE8F09F70B5E7
:10129000040003D094F8200010B104E0012070BDD8
:1012A000204600F081F82068016841F001010160EA
:1012B00000F0FCFB0546052604E000F0F7FB401BB0
:1012C0000A2811D820684068C007F6D02068016855
:1012D00021F00201016000F0E9FB05460BE000F09F
:1012E000E5FB401B0A2806D9606A40F400306062C2
:1012F00084F82060D2E7206840688007EFD4207E21
:101300000128206801683DD021F080010160607EE5
:1013100001282068016838D021F040010160A07EDA
:1013200001282068016833D021F020010160E07EAF
:101330000128206801682ED041F010010160207F53
:1013400001282068016829D021F008010160607F30
:1013500001282068016824D021F004010160D4E94B
:1013600002010843D4E90412114308436168491E8D
:1013700008432168C86100206062012084F82000D1
:10138000002070BD41F08001C0E741F04001C5E799
:1013900041F02001CAE721F01001CFE741F0080138
:1013A000D4E741F00401D9E710B586B00446142112
:1013B0006846FFF762F81C492068884231D11B4813
:1013C0000021026842F000720260006800F00070C4
:1013D000059016481038026842F002020260006868
:1013E00000F0020005904FF4407000900220CDE91B
:1013F0000101032003900920049069460C4800F085
:1014000053FA00220521142000F0E8FB142000F01C
:10141000D7FB00220521152000F0E0FB152000F08D
:10142000CFFB06B010BD0000006400404038024011
:10143000000402407047000000B589B007AB6A465F
:101440000021FFF7B2FD0098064A80B207A902F01A
:10145000DDFF0098044A80B207A902F0D7FF09B067
:1014600000BD0000A4430020B843002070470000E6
:1014700000B589B007AB6A460121FFF796FD0098D9
:10148000064A80B207A902F0C1FF0098044A80B260
:1014900007A902F0BBFF09B000BD0000A443002073
:1014A000B84300207047000070B5044690F8200053
:1014B000012804D0606A40F40020606218E0022035
:1014C00084F820002068016821F00101016000F02B
:1014D000EDFA05460EE000BF00F0E8FA401B0A28CE
:1014E00008D9606A40F400306062052084F820006A
:1014F000012070BD20684068C007EDD1606270BDFA
:1015000070477047704770477047704770472DE9C4
:10151000F0410446876D00F0C9FA064694F835009C
:101520000025022806D08020606584F83450012010
:10153000BDE8F0812068016821F016010160206893
:10154000416921F080014161206C08B9A06C20B193
:101550002068016821F0080101602068016821F01D
:10156000010101600CE000F0A1FA801B052807D9F9
:1015700020206065032084F8350084F83450D7E7D4
:1015800020680068C007EED194F85C103F208840C6
:10159000B860012084F8350084F834500020C7E793
:1015A00090F83510022903D0802141650120704751
:1015B000052180F835100068016821F00101016003
:1015C000002070472DE9F84304464FF00009CDF89C
:1015D000009063484FF41651A56D0068B0FBF1F719
:1015E0002E6894F85C10082000FA01F131420FD007
:1015F00021680A6852070BD50A6822F004020A60C3
:1016000094F85C108840A860606D40F0010060654F
:1016100094F85C104FF0010808FA01F0304208D04D
:1016200021684969090604D5A860606D40F0020090
:10163000606594F85C1004208840304208D021682E
:101640000968890704D5A860606D40F004006065F2
:1016500094F85C1010208840304218D02168096846
:10166000090714D5A86020680168490304D50068FB
:10167000000308D5A16C07E00168C90503D401681F
:1016800021F008010160216C09B12046884794F8D7
:101690005C1020208840304231D021680968C9069A
:1016A0002DD5A86094F8350005282068016806D07B
:1016B000490347D5006800031DD4616C1CE021F08C
:1016C000160101602068416921F080014161206CB0
:1016D00008B9A06C20B12068016821F00801016000
:1016E00094F85C103F208840A86084F8358084F826
:1016F0003490216D1FE0E16B09B120468847606D91
:1017000000282BD0606DC00714D0052084F8350068
:101710002068016821F0010101600098401C0090E0
:10172000B84203D820680068C007F6D184F8358035
:1017300084F83490E16C002910D001B02046BDE857
:10174000F04308470168C905D5D4016821F01001AC
:10175000016084F8358084F83490CCE7BDE8F883E4
:10176000140000202DE9F041044600F09FF90646E0
:101770005CB1022084F83500002584F834502068DC
:10178000016821F0010101600DE00120BDE8F08158
:1017900000F08CF9801B052805D920206065032006
:1017A00084F83500F2E720680068C007F0D12268AD
:1017B000116820480140D4E901031843D4E90336F5
:1017C0003343184363691843A3691843E369184313
:1017D000236A18430843616A042903D1D4E90B132F
:1017E00019430843106020684069666A20F00701C9
:1017F00030460E43012704280CD1A06A0643E06A54
:1018000040B12046FFF728F820B14020606584F8F9
:101810003570BAE7206846612046FFF709F894F86A
:101820005C203F2191408160656584F8357000201F
:10183000ACE700003F8010F02DE9F0410446866DD2
:1018400090F83400002501280DD0012084F83400E0
:1018500094F835700020012F07D084F83400022559
:101860002846BDE8F0810220FBE7022784F83570A6
:1018700060652046FFF71AF894F85C103F20884016
:10188000B0602068016841F016010160206C20B151
:101890002068016841F0080101602068016841F09A
:1018A00001010160DCE700002DE9F84FDFF8BCA181
:1018B0000022012503264FF00F090AF1040BAAF1BB
:1018C000040E00BF0B6805FA02F42340A34270D156
:1018D0000F7907F00307012F01D0022F16D1876877
:1018E0004FEA420806FA08FC27EA0C07D1F80CC0B8
:1018F0000CFA08FC4CEA070CC0F808C04768A7437C
:101900000C79C4F3001494403C4344600C79E443E4
:10191000A4070AD0C4684FEA420C06FA0CF7BC438D
:101920008F6807FA0CF72743C7600C7904F00304AB
:10193000022C12D1D40800EB840CDCF820405707AD
:10194000FF0E09FA07F824EA0804D1F8108008FA13
:1019500007F848EA0408CCF8208004684FEA420CF3
:1019600006FA0CF7BC430F7907F0030707FA0CF7E8
:10197000274307604C6814F4403F70D03C4C276804
:1019800047F480472760246822F0030704F480446A
:101990000094384C07EB040CDCF8084897074FEA32
:1019A000177809FA08F7BC43334FB84202D1002731
:1019B00024E054E0314FB84201D101271EE0304FFE
:1019C000B84201D1022719E02E4FB84201D10327B6
:1019D00014E02D4FB84201D104270FE02B4FB8423D
:1019E00001D105270AE02A4FB84201D1062705E0B8
:1019F000284FB84201D1072700E0082707FA08F767
:101A00002743CCF80878DAF800405746D1F804C0EC
:101A10009C435FEACC2C00D51C433C60DBF80040C3
:101A20005F46D1F804C09C435FEA8C2C00D51C4370
:101A30003C60DEF800407746D1F804C09C435FEA82
:101A40008C3C00D51C433C60084F083F3C68D1F8F3
:101A500004C09C435FEACC3C00D51C433C60521C54
:101A6000102AFFF42FAFBDE8F88F0000083C0140BA
:101A700044380240003001400000024000040240AF
:101A800000080240000C0240001002400014024016
:101A900000180240001C02400069084000D00120EC
:101AA00070470AB1816170470904FBE7014880680B
:101AB0007047000008000020024881680278114445
:101AC00081607047080000200B4810B5016841F4A0
:101AD00000710160016841F480610160016841F4B6
:101AE00080710160032000F099F80F2000F006F8E3
:101AF00000F04AF8002010BD003C024030B5054619
:101B00001C4887B00024016841F0010101600068B1
:101B100006A900F00100009001A800F02BF900F0E8
:101B200059F915494000B0FBF1F11548134A491E17
:101B3000026040F2E732C0E90324C0E90114846185
:101B400000F08AFB040012D10D4800F0CFFB040026
:101B50000DD1192000F034F8102D07D200222946AB
:101B6000192000F03BF80748056000E0012407B0A9
:101B7000204630BD4438024040420F000000014082
:101B80006C0600200C0000200C4882B0016841F473
:101B900080410160006800F4804000900748001F09
:101BA000016841F0805101600068002200F080501F
:101BB00000900F21901E02B000F010B8443802408F
:101BC000002809DB00F01F0201219140400980003C
:101BD00000F1E020C0F8001170470000F0B40E4B97
:101BE0001B680C46C3F30223C3F10705042D00D97B
:101BF0000425191D072901D2002300E0DB1E012660
:101C000006FA05F1491E214099409E40761E164075
:101C10003143F0BC02F074B80CED00E0064900F06E
:101C2000070208684FF6FF03184040EA0220034A03
:101C300010430860704700000CED00E00000FA055A
:101C40002DE9F0470E46050065D0DFF81481D8F87D
:101C50000000F7B200F00700B04207D288F8007029
:101C6000D8F8000000F00700B04254D128683D4C7D
:101C7000810712D5400703D5206840F4E05020606A
:101C80002878000703D5206840F460402060206871
:101C9000A96820F0F000084320602878C0072DD004
:101CA000304968680839012812D0022813D0032867
:101CB00011D00968890700292DDA216821F0030174
:101CC00001432160FFF7F2FE814641F2883A0EE0BF
:101CD00009688903EFE709688901ECE7FFF7E6FE89
:101CE000A0EB0901514502D90320BDE8F087206827
:101CF000696800F00C00B0EB810FEFD1D8F800104C
:101D0000404601F00701B14207D90770006800F0B2
:101D10000700B04201D00120E7E72878400705D549
:101D20002068E96820F4E050084320602878000724
:101D300006D52068296920F4604040EAC10020608F
:101D400000F058F82168084AC1F30311515CC840FB
:101D50000649086006480068FFF7D0FE0020C4E787
:101D6000003C02400838024068540008140000207B
:101D70000C0000200F2202600C4A136803F00303DA
:101D80004360136803F0F0038360136803F4E053C7
:101D9000C36012684FF4E05303EAD20202610448C0
:101DA000006800F007000860704700000838024033
:101DB000003C02400448054900680968044AC1F330
:101DC0008221515CC840704714000020083802404E
:101DD000785400080448054900680968044AC1F3BA
:101DE0004231515CC840704714000020083802405E
:101DF00078540008154810B5006810F00C0214481B
:101E000013D01449042A0FD0082A0ED10F4C241FD6
:101E10002268236802F03F025B0207D52068C0F306
:101E20008810A0FB010106E0084610BD2168C1F33F
:101E30008811A1FB00010023FEF776FA2168C1F3A7
:101E40000141491C4900B0FBF1F010BD08380240C7
:101E50000024F400001BB7002DE9F84F04006ED0F9
:101E60002078DFF84C93C007A9F104054AD009F1A6
:101E700004000168C1F38101012908D00068C0F3A2
:101E8000810002280AD1D9F80000400206D528684E
:101E9000800337D560680028E1D033E06068B0F592
:101EA000803F10D0B0F5A02F286810D020F48030EB
:101EB0002860286820F4802028606068A8B1FFF7B7
:101EC000F5FD06460DE0286840F48030F4E740F464
:101ED00080202860F7E700BFFFF7E8FD801B64283B
:101EE00073D828688003F7D50CE0FFF7DFFD0646BE
:101EF00005E000BFFFF7DAFD801B6428F0D82868F2
:101F00008003F7D42078DFF8AC8280074FF0000A16
:101F10003ED5A748001D016811F00C0F08D00068DD
:101F2000C0F3810002280BD1D9F80000400207D489
:101F30002868800716D5E068012800D112E033E157
:101F4000E068B8B10120C8F80000FFF7AFFD064611
:101F500005E000BFFFF7AAFD801B0228C0D8286853
:101F60008007F7D52868216920F0F80040EAC10011
:101F700028600DE0C8F800A0FFF798FD064604E0D1
:101F8000FFF794FD801B02281FD828688007F7D42C
:101F90002078000722D5864F87486169703771B174
:101FA00001210160FFF782FD064604E0FFF77EFD98
:101FB000801B022809D838688007F7D50EE0C0F8E2
:101FC00000A0FFF773FD064605E082E0FFF76EFD17
:101FD000801B02287DD838688007F7D42078400716
:101FE00068D5DFF8CCB100270BF13C0BDBF8000023
:101FF000C0000BD4DBF8001041F08051CBF800108A
:10200000DBF80000012700F0805000906B4E306834
:10201000C00510D4306840F480703060FFF746FD92
:10202000009005E0FFF742FD0099401A022850D8C1
:102030003068C005F6D55E4EA0686C3601280FD01A
:102040000528306810D020F001003060306820F0A2
:1020500004003060A068B8B1FFF728FD00900FE0E1
:10206000306840F00100F4E740F004003060F7E72A
:10207000FFF71CFD0099411A41F28830814266D871
:1020800030688007F4D50EE0FFF710FD009007E000
:10209000FFF70CFD0099411A41F28830814256D871
:1020A00030688007F4D42FB1DBF8001021F08051A4
:1020B000CBF80010A069C8B33D49091D0968C1F3F8
:1020C000810102294AD00228504607D0C8F8600092
:1020D00000E03CE0FFF7EAFC04463BE04746C8F876
:1020E0006000FFF7E3FC064605E000BFFFF7DEFCFB
:1020F000801B02282BD828688001F7D4D4E9070177
:102100000843A16A2E4A490802EB0141626A41EA8A
:102110008211084394F82C1040EA0161C9F80010BC
:1021200001203866FFF7C2FC044606E03EE000BF2F
:10213000FFF7BCFC001B022809D828688001F7D5EE
:1021400034E000BFFFF7B2FC001B022802D90320D5
:10215000BDE8F88F28688001F4D427E00128F7D083
:10216000D9F80000E26900F4800191421CD1226A92
:1021700000F03F01914217D147F6C071626A0140F9
:10218000B1EB821F10D1A26A4FF0FF3300F440314F
:1021900003EB5202B1EB024F06D194F82C1000F081
:1021A0007060B0EB016F01D00120D1E70020CFE7D4
:1021B0000438024000004742800E47420070004051
:1021C0000000FFFF7047704770B590F83C20012A6F
:1021D00032D0012480F83C40022280F83D20036880
:1021E0005A689D6822F070060A6832435A60134BA1
:1021F00002689A4214D0B2F1804F11D0104B9A422B
:102200000ED0104B9A420BD00F4B9A4208D00F4B76
:102210009A4205D00E4B9A4202D00E4B9A4204D1FC
:10222000496825F080031943916080F83D40002102
:1022300080F83C10084670BD022070BD00000140CF
:102240000004004000080040000C00400004014071
:10225000004001400018004010B5040003D094F87D
:102260003D0010B107E0012010BD002084F83C00C3
:10227000204600F01FF8022084F83D00211D206850
:1022800001F026FA012084F8460084F83E0084F824
:102290003F0084F8400084F8410084F8420084F84C
:1022A000430084F8440084F8450084F83D00002091
:1022B00010BD000008B50068B0F1804F12D10A4887
:1022C000016841F0010101600068002200F0010096
:1022D000009005211C20FFF781FCBDE808401C2070
:1022E000FFF76EBC08BD00004038024090F83D107A
:1022F000012901D001207047022180F83D100168BA
:10230000CA6842F00102CA6000681149884214D0CC
:10231000B0F1804F11D00F4988420ED00E4988424B
:102320000BD00E49884208D00D49884205D00D498E
:10233000884202D00C49884204D1816801F007012B
:10234000062903D0016841F00101016000207047B7
:10235000000001400004004000080040000C004064
:1023600000040140004001400018004070B50446E0
:1023700090F83C000025012817D0012684F83C6025
:10238000022084F83D002068826822F0770222F45F
:102390007F4282600868502838D00DDC20284FD05A
:1023A00005DC90B3102811D14AE0022070BD30281E
:1023B00046D040280AD13BE060282FD070280DD0AD
:1023C000B0F5805F03D0B0F5005F12D0012584F82E
:1023D0003D60002084F83C00284670BDCB68D1E900
:1023E0000121206801F0D8F92068816841F0770167
:1023F00009E0CB68D1E90121206801F0CDF920681E
:10240000816841F480418160E1E719E0CA68496868
:10241000206801F0D3F95021206806E0CA684968B5
:10242000206801F0DCF96021206801F0BFF9CEE7F7
:10243000CA684968206801F0C1F940212068F4E7C2
:10244000226801461046F0E7704770B50446006800
:1024500001694FF00005C943890715D4C168C94314
:10246000890711D4E91E0161012020772068806965
:102470008007204602D0FFF7E7FF04E000F098F85D
:10248000204600F096F8257720680169C94349077E
:1024900017D4C168C943490713D46FF0040101611F
:1024A000022020772068806910F4407F204602D007
:1024B000FFF7CAFF04E000F07BF8204600F079F84F
:1024C000257720680169C943090716D4C168C94343
:1024D000090712D46FF008010161042020772068F9
:1024E000C0698007204602D0FFF7AEFF04E000F08D
:1024F0005FF8204600F05DF8257720680169C94340
:10250000C90617D4C168C943C90613D46FF01001B6
:102510000161082020772068C06910F4407F2046C0
:1025200002D0FFF791FF04E000F042F8204600F0EF
:1025300040F8257720680169C943C90708D1C168F7
:10254000C943C90704D1891E0161204600F032F851
:1025500020680169C943090609D4C168C94309064D
:1025600005D46FF0800101612046FFF72BFE206843
:102570000169C943490609D4C168C943490605D45C
:102580006FF040010161204600F01EF820680169EB
:10259000C94389060BD4C168C943890607D46FF0C3
:1025A000200101612046BDE87040FFF70CBE70BD00
:1025B0007047704700680349884201D1FFF77CBA31
:1025C00070470000000001407047704710B5044696
:1025D0000068406994F83D10C0F3C010212911D162
:1025E00080B12068143050E8001F21F0800140E8DD
:1025F0000012002AF5D1606B08B1FEF788FF204673
:1026000001F002FA2068406994F83E10C0F380108F
:10261000222911D180B12068143050E8001F21F028
:10262000400140E80012002AF5D1A06B08B1FEF786
:102630006EFF204601F0C1F9002010BD7047000078
:10264000F8B5016804460868CA684B6910F00F0FB6
:102650004FF0000559D003F0010602F4907737439C
:1026600065D0C10705D0D10503D5216C41F001012A
:102670002164410705D5D90703D0216C41F002013F
:102680002164810705D5D90703D0216C41F00401ED
:102690002164010707D502F02001314303D0216CEA
:1026A00041F008012164216C00293AD0800604D54C
:1026B000900602D5204601F0C1F920684069216CDE
:1026C000C0F38010090700D460B3204601F075F90B
:1026D00020684069400621D52068143050E8001F6A
:1026E00021F0400140E80012002AF5D1A06BA8B10A
:1026F0006C490165A06BFEF753FF002811D0A06B59
:10270000016D01B0BDE8F040084783060FD5930680
:102710000DD52046BDE8F84001F090B92046FFF7FE
:102720008DFFF8BD2046FFF789FF2564F8BD266BB5
:102730002023012E79D1C60677D5D60675D508682F
:10274000486800904869400640D5A16B0868406819
:102750000004000CEAD0A28D8242E7D9E085C86966
:10276000B0F5807F2DD020680C3050E8001F21F498
:10277000807140E80012002AF5D12068143050E83A
:10278000001F21F0010140E80012002AF5D1206865
:10279000143050E8001F21F0400140E80012002AE8
:1027A000F5D184F83E30256320680C3050E8001FD6
:1027B00021F0100140E80012002AF5D1A06BFEF7CD
:1027C000A6FEA08DE18D401A81B229E0A08DE18D99
:1027D000401A81B2E08D0028A8D00029A6D0206838
:1027E0000C3050E8002F22F4907240E80026002EB2
:1027F000F5D12068143050E8002F22F0010240E8A3
:102800000026002EF5D184F83E30256320680C3078
:1028100050E8002F22F0100240E80023002BF5D1F1
:102820002046FFF7D2FEF8BDFFE705062BD51506BB
:1028300029D594F83D002128F5D1A068B0F5805F36
:1028400001D12069B0B1206A411C21622168007861
:102850004860E08C401E0004000CE084E3D1206856
:10286000C16821F08001C1602068C16841F0400169
:10287000C160D8E7206A0088C0F308004860206A79
:10288000801C2062E5E74006CDD55006CBD5CA684E
:10289000204622F04002CA6084F83D3000F061F921
:1028A000C1E70000C538000870B5040004D094F8F2
:1028B0003D00002510B106E0012070BD84F83C50B9
:1028C000204600F023F8242084F83D002068C168E9
:1028D00021F40051C160204601F010F9206801691F
:1028E00021F4904101612068416921F02A01416190
:1028F0002068C16841F40051C1602564202084F83B
:102900003D0084F83E00002070BD00002DE9F04F2E
:1029100087B0044614216846FDF7AFFD6248614B5D
:102920002268614910380226032700254FF0400B2A
:102930004FF480694FF0006A9A425CD10A6842F411
:1029400000220A60096801F400210591016841F044
:1029500001010160016801F001010591016841F088
:102960000401016000684FF0080800F004000096C0
:10297000CDE904800397CDE9016569464B48FEF730
:1029800093FF02AA694682E8A001CDE90096484873
:10299000FEF78AFF484E474857463060C6E901A512
:1029A000C6E903597561B561F561356230467562F6
:1029B000FEF7D8FE08B1FDF796FFA663B4633E4E5E
:1029C0003C4860363030C6E903597561B561F56140
:1029D0003562756286E881083046FEF7C3FE08B1AD
:1029E000FDF781FF6663002205213420B463FFF701
:1029F000F5F8342050E0314B9A424FD10A6842F446
:102A000080220A60096801F480210591016841F083
:102A1000020101600068029500F0020005904FF489
:102A20004060CDE900060720CDE9037069462448DF
:102A3000FEF73AFF204E1F48C03618383060C6E90E
:102A400001A5C6E903597561B561F5613562D046E6
:102A50004F4630467562FEF785FE08B1FDF743FF2D
:102A6000A663B463174E1348C6E903577561B56191
:102A7000F56135621830756286E801093046FEF767
:102A800071FE08B1FDF72FFF6663002205212720A4
:102A9000B463FFF7A3F82720FFF792F807B0BDE86B
:102AA000F08F0000004C004040380240000002401F
:102AB0000008024040600240EC0400200048004052
:102AC000000402400C06002090F83E30202B0ED16E
:102AD00059B152B190F83C30012B08D0012380F855
:102AE0003C300023036301F08FB8012070470220BF
:102AF000704790F83E30202B0ED159B152B190F86A
:102B00003C30012B08D0012380F83C3000230363C4
:102B100001F0C4B801207047022070470D4910B57C
:102B2000884215D10C48F7EE000A032290ED030A03
:102B3000AB230A4930EE200A80ED030A104601F06B
:102B4000EFF80C22BDE810400321024800F06ABFF4
:102B500010BD0000A8040020A00000200C450020AB
:102B600070477047FEE70000F0B585B01421684655
:102B7000FDF783FCC3200124CDE9000402200025D9
:102B8000CDE90205164E69463046FEF78DFE154F1B
:102B900069463846FEF788FE012202213846FEF7D4
:102BA00080FF012211463846FEF77BFF3020CDE939
:102BB0000005694602943046FEF776FE0122102198
:102BC0003046FEF76EFF002202213846FEF769FF0D
:102BD000012211463846FEF764FF05B0F0BD000043
:102BE00000040240001002402DE9F041784C2DED28
:102BF000048B607821286ED3764E00259FED768A6F
:102C000005EB450000EBC5002044A278C178914255
:102C100061D101795139092920D2DFE801F005207D
:102C20003E5DCF748ACFB70050F8051F3160406811
:102C300070600020F3EE000A36F9101000EE101A52
:102C400004EB8001401CB8EEC00AC0B2032820EE9D
:102C5000080A20EE200A81ED0C0AEDD3AEE050F810
:102C6000051FB1604068F0605A4900200831DFED6F
:102C70005B0A00BF31F9102000EE102A04EB80023D
:102C8000401CB8EEC00AC0B2032820EE080A20EEAD
:102C9000200A82ED0F0AEDD390E050F8051F316154
:102CA000406870614B4900201031DFED4D0A00BFD4
:102CB00031F9102000EE102A04EB8002401CB8EE1F
:102CC000C00AC0B2032820EE080A20EE200A82EDD6
:102CD000090AEDD372E076E050F8051FB161406853
:102CE000F0613C4A0020183232F9101000EE101A40
:102CF00004EB8001401CB8EEC00AC0B2032881ED8D
:102D0000120AF1D35AE050F8051F316200EE101A92
:102D100040687062B8EEC00ADFED320A84ED150A31
:102D200000EE100AB8EEC00A80EE201A84ED161AE2
:102D300044E050F8051FF162406830632A48254A94
:102D400091FBF0F128329FED299B1768DFED298A6E
:102D500097FBF0F100FB117002F094F953EC192B82
:102D600002F038F800EE107A41EC190BF8EEC00AC8
:102D700080EEA80A10EE100A02F0DAFA53EC192BD2
:102D800001F080FF01F04CFFA06617E050F8051F2E
:102D90003163406870630F490020303131F91020F1
:102DA00000EE102A04EB8002401CB8EEC00AC0B24C
:102DB000042820EE080A82ED1D0AEFD36D1CEDB247
:102DC000092DFFF41DAFBDEC048BBDE8F0810000C0
:102DD000E84C0020B8000020000000380000FA4451
:102DE000000034430000C8428096980000000000B4
:102DF000006AF8408096184B1FB5002116480091D4
:102E000001910291134A0391026001244FF4803230
:102E10000461C0E90121047680F820100F4AC0E95E
:102E20000A21C461C16080F830404461FDF79EFE14
:102E300008B1FDF758FD0320CDE9000407200290FA
:102E400069460548FDF752FD002801D0FDF74BFD0E
:102E50001FBD0000002001404C0300200100000FB6
:102E60000F4810B50D4901600621416000214FF463
:102E700000328160C0E9031212014261017641769D
:102E80008176C17601774177FEF701FA002803D0F9
:102E9000BDE81040FDF727BD10BD000000640040F4
:102EA000F40300201D4808B5016841F400110160D9
:102EB000016801F400110091016841F48001016092
:102EC0000068002200F48000009005210C20FEF72D
:102ED00085FE0C20FEF774FE002205210D20FEF772
:102EE0007DFE0D20FEF76CFE002205210E20FEF770
:102EF00075FE0E20FEF764FE002205210F20FEF76E
:102F00006DFE0F20FEF75CFE002205213820FEF743
:102F100065FEBDE808403820FEF752BE303802405A
:102F200010B58EB01C220B496846FDF774FA0021DB
:102F3000684601F017F8084C06491C2220601C3135
:102F400007A8FDF768FA002107A801F00BF86060F8
:102F50000EB010BD2854000800000020F0B587B066
:102F600014216846FDF789FA28480024016841F0D9
:102F700080010160016801F080010591016841F064
:102F800001010160016801F001010591016841F052
:102F900002010160016801F002010591016841F040
:102FA00004010160016801F004010591016841F02C
:102FB000100101600068164E00F01000059000221C
:102FC000F0213046FEF76DFD124F002203213846F6
:102FD000FEF767FD302001258DE8310069460E4877
:102FE000FEF762FCF0200090CDE9015469463046BE
:102FF0000394FEF759FC03200090CDE90154694683
:1030000038460394FEF750FC07B0F0BD303802405C
:1030100000040240001002400000024010B586B0DB
:1030200000241648009401940294039404944FF0F1
:103030008041059401605321C0E9011442F20F71EF
:10304000C0E903148461FFF707F908B1FDF74BFCF1
:103050004FF48050009069460848FFF787F908B19F
:10306000FDF741FC049404A904480594FFF7ACF86B
:10307000002801D0FDF737FC06B010BD1C0400206D
:103080000C4810B50A4901604FF4E131416000215C
:1030900081600C22C160C0E904128161C161FFF747
:1030A00003FC002803D0BDE81040FDF71CBC10BD98
:1030B000004C0040640400200C4810B50A4901602F
:1030C0004FF4E1314160002181600C22C160C0E910
:1030D00004128161C161FFF7E7FB002803D0BDE85E
:1030E0001040FDF700BC10BD00480040A8040020BF
:1030F000FEE7FEE71FB50FA10522D1E90001CDE9EA
:10310000020102A9302000F07FF805226946102054
:1031100000F014F8002069460A5CA52A03D1401C7F
:10312000C0B20528F8D3052802D0012004B010BD94
:103130000020FBE7A5A5A5A5A50000002DE9F0410D
:10314000DFF83C8015460F46044600220121404628
:10315000FEF7A7FC204600F009FA0646002405E029
:10316000002000F003FA3855641CE4B2AC42F7D3F7
:10317000012211464046FEF794FC3046BDE8F0813E
:103180000010024070B50A4D044600220121284675
:10319000FEF787FC204600F0E9F9002000F0E6F990
:1031A0000446012211462846FEF77BFC204670BDEE
:1031B0000010024070B5134D04460022022128463B
:1031C000FEF76FFC20222146A02000F01DF801220E
:1031D00002212846FEF765FC0720FFF7D3FF0446CF
:1031E0000146272000F034F8E00605D5FF21E12054
:1031F00000F02EF8102070BDA00601D5202070BD73
:10320000FF2070BD001002402DE9F041DFF83C8046
:1032100016460D460446002201214046FEF741FCB9
:10322000204600F0A3F90746002405E015F8010B3D
:1032300000F09CF9641CE4B2B442F7D301221146B9
:103240004046FEF72EFC3846BDE8F08100100240F3
:1032500070B50B4D0E460446002201212846FEF7AC
:1032600020FC204600F082F90446304600F07EF94A
:10327000012211462846FEF714FC204670BD0000CE
:1032800000100240A0B1D0ED101AC0ED111A90ED5F
:103290000F1A80ED101AC0ED060A80ED070A30EE15
:1032A000C00A80ED0F0A017829B10A293BD078E0E5
:1032B0009FED3D0A7047D0ED010A60EE801AC0ED27
:1032C000091AD0ED0A0A90ED022A42EE000A30EE09
:1032D000410AC0ED0A0A90ED0D2A80ED0E2A90ED0C
:1032E0000C2A80ED0D2A80ED0C0A90ED031A21EED8
:1032F000001A80ED0B1A90ED050AF4EEC00AF1EE0B
:1033000010FA09DCB1EE400AF4EEC00AF1EE10FA50
:1033100002D390ED0A0A01E080ED0A0A31EE800A3C
:1033200030EE010A2BE070EE410A90ED012A20EE0A
:10333000822A80ED092AD0ED020A60EE800AC0EDF3
:103340000A0AD0ED0D2A72EE200AC0ED0E2AD0ED49
:103350000C2AC0ED0D2AF0EE002A01EE620A30EED2
:10336000210A80ED0C0A90ED031A21EE000A80ED8F
:103370000B0A30EE800AD0ED080A30EE200A80ED0C
:10338000080AD0ED040AB4EEE00AF1EE10FA06DC09
:10339000F1EE600AB4EEE00AF1EE10FA01D2C0EDEF
:1033A000080A90ED080A70470000000040B3D0ED15
:1033B000101A524AC0ED111A90ED0F1A80ED101A32
:1033C000C0ED060A80ED070A30EEC00A10EE101AB2
:1033D00080ED0F0ADFED4A0A914203D330EE200A56
:1033E00080ED0F0A10EE101A464A914203DB30EED0
:1033F000600A80ED0F0A017829B10A293CD079E0F2
:103400009FED410A704790ED010AD0ED0F0A60EE82
:10341000201AC0ED091A90ED0A0A90ED022A02EE78
:10342000200A70EEC10A80ED0A0A90ED0D2A80EDA7
:103430000E2A90ED0C2A80ED0D2AC0ED0C0A90EDBD
:10344000031A21EE201A80ED0B1AD0ED050AB4EE16
:10345000E00AF1EE10FA06DCF1EE600AB4EEE00AE2
:10346000F1EE10FA01D2C0ED0A0A90ED0A0A31EE2F
:10347000800A30EE010A2BE070EE410A90ED012A3D
:1034800060EE820AC0ED090A90ED022A22EE002ABF
:1034900080ED0A2AD0ED0D2A70EE820AC0ED0E2AC8
:1034A000D0ED0C2AC0ED0D2AF0EE002A01EE620AE2
:1034B00030EE210A80ED0C0A90ED031A21EE000A8D
:1034C00080ED0B0A30EE800AD0ED080A30EE200ABB
:1034D00080ED080AD0ED040AB4EEE00AF1EE10FA2D
:1034E00006DCF1EE600AB4EEE00AF1EE10FA01D269
:1034F000C0ED080A90ED080A7047000000F07FC593
:1035000000F8FF4500F07F4500000000002819D0BA
:1035100000F8041BA0EC050A9FED0B0A80ED080AD9
:1035200080ED070A80ED060A80ED020A80ED050AAB
:1035300080ED040A80ED030A80ED0B0A80ED0A0A93
:1035400080ED090A70470000000000009FED060AA8
:1035500080ED000A80ED010A80ED020A80ED030A89
:1035600001824282704700000000000070B5154ED5
:1035700004460025200601D5012200E0002240215A
:103580003046FEF78EFA6006040E01228021304696
:10359000FEF787FAFF20FDF79EF920213046FEF75F
:1035A0007BFA08B144F00104002280213046FEF786
:1035B00078FAFF20FDF78FF96D1CADB2082DD9D335
:1035C000204670BD0004024000F09EFC00F012FC9A
:1035D000012000F0BBFCF9E700F0AEFF00F060FF57
:1035E000032000F0B3FCF9E710B5502080F31188F8
:1035F000BFF34F8FBFF36F8F01F04AFA18B1044940
:103600004FF080500860002080F3118810BD00004A
:1036100004ED00E030B593B030216846FCF72DFF93
:1036200014210CA8FCF729FF1D480025016841F072
:1036300080510160006800F08050119019480168C5
:1036400041F4804101600068022400F48040119040
:103650000120039010200490009406940820CDE9E6
:103660000750A820CDE9090404200B906846FEF716
:10367000F3FB08B172B6FEE70CA90F2081E8310018
:103680004FF4A0500F904FF48050109005210CA8DB
:10369000FEF7D6FA002801D072B6FEE713B030BDAF
:1036A00040380240007000400248016841F4700157
:1036B0000160704788ED00E00148FEF7C6BE0000DB
:1036C0006C0600200148FEF7C0BE00001C0400206C
:1036D000F0B50268254C264D264E274F274B4FF05C
:1036E000804CA04209D0604507D0A84205D0B04226
:1036F00003D0B84201D0984204D122F0700E4A683B
:1037000042EA0E02A0421BD0604519D0A84217D051
:10371000B04215D0B84213D0984211D0184DA842EB
:103720000ED0184DA8420BD0174DA84208D0174D07
:10373000A84205D0164DA84202D0164DA84203D18A
:1037400022F44075CA682A434D6922F080022A4358
:1037500002608A68C2620A688262A04201D098420E
:1037600001D10969016301214161F0BD00000140FF
:103770000004004000080040000C0040000401402C
:103780000040014000440140004801400018004052
:10379000001C00400020004010B5846842EA03226B
:1037A00024F47F440A432243826010BD826822F0E1
:1037B00070020A4342F007018160704710B5036A46
:1037C000046A24F001040462846924F0F00444EAE9
:1037D000021423F00A020A438461026210BD10B58C
:1037E000036A23F0100303628369046A23F47043BD
:1037F00043EA023224F0A00343EA0111826101622C
:1038000010BD000010B5184C002202212046FEF722
:1038100048F9052215493020FFF7F6FC1349052227
:10382000491D2A20FFF7F0FC01212120FFF710FDA0
:1038300001212220FFF70CFD1A212420FFF708FDAB
:1038400028212520FFF704FD0F212620FFF700FD8A
:103850000E212020FFF7FCFC20460122BDE810408D
:103860000221FEF71EB9000000100240805400083B
:1038700038B5114800680168104CC1F3001189B1D6
:10388000016841680091016840680B48FEF79EFEA0
:103890000B4800684068C0F121006070FFF7A4F990
:1038A000012020702122E11C0348FFF70DF9BDE83B
:1038B00038400148FEF7C4BE64040020E84C0020F4
:1038C000EC04002010B5806B0021C185C184FEF797
:1038D000B5FE10BD70B5846B2068406994F83D104A
:1038E000C0F3C0100025212904D118B1E584204679
:1038F00000F08AF82068406994F83E10C0F3801008
:10390000222904D118B1E585204600F056F8206C34
:1039100040F0100020642046FEF790FE70BD10B508
:103920000146806B09680968C9052FD40021C1854B
:1039300001680C3151E8002F22F4807241E8002325
:10394000002BF5D10168143151E8002F22F001025B
:1039500041E80023002BF5D10168143151E8002F14
:1039600022F0400241E80023002BF5D1202180F80D
:103970003E10016B012909D101680C3151E8002F7B
:1039800022F0100241E80023002BF5D1016B012940
:1039900002D0FFF7C3F810BD818DFEF716FE10BDF3
:1039A00010B5806B016B012902D0FFF7D9F810BD6B
:1039B000818D4908FEF709FE10BD01680C3151E800
:1039C000002F22F4907241E80023002BF5D101680A
:1039D000143151E8002F22F0010241E80023002BAE
:1039E000F5D1016B012909D101680C3151E8002F93
:1039F00022F0100241E80023002BF5D1202180F8AD
:103A00003E1000210163704701680C3151E8002F1E
:103A100022F0C00241E80023002BF5D1202180F8DC
:103A20003D107047012000EB420082B2014902487C
:103A3000FFF75FB818450020A804002008B590F8EB
:103A40003E10222901D0022008BD82684FF4805325
:103A50009A4201D1016921B1816A9A421BD04AB1CF
:103A60000AE00268816A5268C2F308020A80816A29
:103A7000891C08E0026972B10268526802F07F0294
:103A80000A70816A491C8162C18D491E0904090CB2
:103A9000C18503D019E002685268F1E70168CA687D
:103AA00022F02002CA600168CA6822F48072CA60EB
:103AB00001684A6922F001024A61202180F83E1023
:103AC000016B012903D0FFF729F8002008BD002170
:103AD000016301680C3151E8002F22F0100241E827
:103AE0000023002BF5D101680A68D20602D50A68C6
:103AF00049680091818DFEF768FDE6E770B50446E0
:103B000000680169E26821F44051114301612169B3
:103B1000A068E26908436169114308432168CA68E3
:103B200049F20C639A430243CA6020684169A26962
:103B300021F440711143416131492068884202D02B
:103B40003049884202D1FEF745F901E0FEF732F92B
:103B5000E2690023192164253226B2F5004F62681C
:103B600028D0A0FB0101930F9200FCF7DDFB01467A
:103B7000B0FBF5F06FF01802504301EB800006EB4C
:103B80000010B0FBF5F000F0F002B1FBF5F002EB35
:103B90000012B1FBF5F06FF01803584301EB800001
:103BA00006EB0010B0FBF5F000F00F0021681044A8
:103BB000886070BDA0FB010192185B41FCF7B4FB6B
:103BC0000146B0FBF5F00201B1FBF5F06FF0180310
:103BD000584301EB800006EBC000B0FBF5F000F0AD
:103BE000F80002EB4002B1FBF5F0584301EB800016
:103BF00006EBC000B0FBF5F000F00700D6E70000D0
:103C0000001001400014014038B581628285002512
:103C1000134604460564222084F83E00A26B1C482B
:103C2000D063A26B1B481064A26B1B48D064A06BCE
:103C30000A4605652168A06B091DFDF7FDFD20689A
:103C400001684068009084F83C50206948B12068C1
:103C50000C3050E8001F41F4807140E80012002A47
:103C6000F5D12068143050E8001F41F0010140E810
:103C70000012002AF5D12068143050E8001F41F0EE
:103C8000400140E80012002AF5D1002038BD0000B4
:103C90001F390008A1390008D538000881628285E3
:103CA000C28500210164222280F83E2080F83C1069
:103CB000016921B10168CA6842F48072CA60016872
:103CC0004A6942F001024A610068C16841F020017E
:103CD000C1600020704700000148FEF7B1BC000041
:103CE000A8040020FEE700210A464318491C89B2B7
:103CF000DA702129F9D35521817002704270704722
:103D00000907090E002804DB00F1E02080F8001408
:103D1000704700F00F0000F1E02080F8141D70479C
:103D2000F0B503281ED1002001260F4C06EBC20679
:103D300005E0275C9F4201D185B202E0401C86422B
:103D4000F7DC00200CE000232E18371901EB800669
:103D500097F801C05B1C06F800C0042BF8DB401C80
:103D60009042F0DBF0BD00001845002005480649F0
:103D700090ED0B0A81ED000A90ED0A0A81ED010A2F
:103D800070470000E84C0020F000002010B5084803
:103D9000FFF7A9FF07480068C16841F01001C16042
:103DA00003492122BDE81040C91C0248FEF78CBE21
:103DB000E84C002064040020FDF786FEFFF72AFC93
:103DC000FFF7CCF8FFF76EF8FFF74AF8FFF774F942
:103DD000FFF756F9FFF710F8FFF720F9FFF7A0F803
:103DE00000F0BBF8FEE701460020842900D0C81C83
:103DF000704700002DE9F0413B48B1EE080A3B490D
:103E0000D0ED000A3B4C3C4D80EE801AFDEEC10A1D
:103E100010EE900A40B2C0F1660043B23448CB7055
:103E2000D0ED000A80EE801ABDEEC10A10EE100A35
:103E3000C0F18E0042B20A715A202070002027186B
:103E40002E5C401C7E700428F9DB2C4D00202718C6
:103E50002E5C401C7E710428F9DB00261333272BCF
:103E600001D2667201E0C87860721332272A01D24B
:103E7000A67201E00879A0721C4D103D6868A0F19F
:103E80006501F92900D2E672642801D8FF21E172A8
:103E90000127A0F5AF70FA2800D8E772DFF860803C
:103EA00020214046FDF7F8FD287010214046FDF71F
:103EB000F3FD6870297851B1267350B166736A209A
:103EC000A0730C48FFF776F9202804D007E0277389
:103ED000F3E76773F3E79FED0B0A85ED020ABDE890
:103EE000F041FFF743BF0000B8430020B0000020BE
:103EF000A4430020EC440020F0000020F400002047
:103F000000000240A0C2224910B5FEF72DFEFFF7C7
:103F1000F1F820B10A48B7EE000A80ED030AFFF776
:103F200071FC0C2203210748FFF77CFDFFF72EFFF1
:103F300003490122BDE81040091D0348FCF796BE65
:103F4000A0000020A80400204C03002010B500B9F8
:103F5000012000F039FC002010BD10B500F05AFC23
:103F6000002010BD7FB50D4604464169B0F9080038
:103F700081B1A16971B1FFF736FFD4E905128DE86F
:103F80000700D4E900102B46226900F056FD03908B
:103F900004B070BDFFF727FF03A9CDE90001208A17
:103FA0002B4682B2D4E9001000F01AFD012801D09E
:103FB0000020EDE70398EBE72DE9F041184C0F46A0
:103FC0000546E6682068001D00F036FB38B9206819
:103FD00090F82C1001208840216981432161681CE0
:103FE00007D137B12168BDE8F0410E48091D00F046
:103FF00067BB20683544B5424560216805D2A06B97
:10400000BDE8F041091D00F043BB606B091D00F0E5
:104010003FFBA06A854200D2A562BDE8F0810000A6
:1040200018000020900700202DE9F041054600F01F
:1040300053FB2E4CA068401CA06020682C4F10B190
:10404000606940B32DE02560A068012829D10026D1
:1040500006EB860007EB800000F00CFB761C072EB9
:10406000F6D323488C3000F005FB2148A03000F047
:1040700001FB1F48B43000F0FDFA1D48C83000F0C5
:10408000F9FA1B48DC3000F0F5FA19488C3060630F
:104090001430A06305E02068E96AC06A884200D84D
:1040A0002560606A401C6062E96A012022698840DC
:1040B0001043206101EB810007EB8000291D00F017
:1040C000FFFA00F029FB606900280CD02068E96A3B
:1040D000C06A884207D207494FF080500860BFF39A
:1040E0004F8FBFF36F8FBDE8F081000018000020F4
:1040F000B406002004ED00E010B5044690F851002D
:1041000058B101280CD002280FD0502080F311881C
:10411000BFF34F8FBFF36F8FFEE7206B00F010FBF4
:104120002046BDE8104000F00BBB10BD10484FF416
:104130007051420706D0C01D0D4920F00700411AFA
:10414000C1F570510B4A00230144C2E9000308394C
:10415000183A21F0070111604B600B600B1AC0E99F
:10416000001393604FF000405360506170470000AF
:10417000A40700206C000020144E154CA6F1C807BF
:104180004FF08058DFF84C9012E000BF00F0A4FA26
:10419000F068C568281D00F04FFAA068401EA060B6
:1041A0006068401E606000F0B7FA2846FFF7A4FF81
:1041B00060680028EAD138680128F9D9C9F8008078
:1041C000BFF34F8FBFF36F8FF2E700007C07002033
:1041D0001800002004ED00E02DE9F0479A46DDE9E3
:1041E000098481466FF00303206B03EB82021044C5
:1041F000089E20F00707780707D0502080F3118829
:10420000BFF34F8FBFF36F8FFEE7002561B1002032
:1042100023180A5C83F834200A5C12B1401C102871
:10422000F6D384F8435001E084F83450072E00D3CD
:104230000626E662C4E91165201D00F026FA04F1A5
:10424000180000F022FA2461C6F107006462A06140
:10425000E56484F8505052464946384600F0C0F8AC
:104260002060B8F1000F01D0C8F80040BDE8F08729
:1042700030B5114900E011460A688242FBD34B6811
:104280005C18844203D1406818444860084643687B
:104290001C18944209D1084C183C2468A24209D049
:1042A00052681A4442600A6812680260814200D073
:1042B000086030BD0460F9E76C0000200648416BDF
:1042C000096829B1416BC968C9684968816270474A
:1042D0004FF0FF31FAE7000018000020084840685E
:1042E000401C4FF0500080F3118804D0BFF34F8F73
:1042F000BFF36F8FFEE7BFF34F8FBFF36F8FFEE704
:10430000740000202DE9F0410546002700F0B8FABE
:10431000324E306808B9FFF709FF706905424ED187
:10432000C5B3083568070ED005F00700C0F10800D6
:104330000544680707D0502080F31188BFF34F8FE2
:10434000BFF36F8FFEE72DB37068854237D82348DF
:10435000183001460C6801E020460C466168A9420D
:1043600002D221680029F7D131688C4227D0076832
:104370002168016060680837411B10290FD9601956
:10438000420708D0502080F31188BFF34F8FBFF34E
:104390006F8FFEE713E041606560FFF769FF6168BA
:1043A0007068401A7060B268904200D2B060706964
:1043B00001430020C4E90001F068401CF06000F0F7
:1043C000CDFB780707D0502080F31188BFF34F8FC3
:1043D000BFF36F8FFEE73846BDE8F0815400002040
:1043E00010B5031F4FF080741C601B1F21F00101EA
:1043F0001960191F044B0B6014390A60091F6FF014
:10440000020244380A6010BDDD420008538A83422C
:1044100026D148780B7800EB032000EE100AB8EEA6
:10442000400A82ED000AC8788B7800EB032000B2C6
:1044300000EE100AB8EEC00A82ED010A48790B7945
:1044400000EB032000B200EE100AB8EEC00A82EDC5
:10445000020AC87900EE100AB8EE400A82ED030A9B
:1044600070477CB5060A8DF800608DF80100080AD7
:10447000DDE906458DF80200100A8DF804008DF87C
:104480000520180A8DF806008DF803108DF8073006
:1044900008236A4621462846FCF79EF97CBD0000A9
:1044A0007CB5204DDFED200A05F1280095ED000ACE
:1044B000FEF77CFF1D4C05F11406DFED1D0A84EDAF
:1044C000040A96ED000A05F1B800FEF76FFF84EDCF
:1044D000050A95ED010AD4ED040A05F17000B1EE6C
:1044E000400AFEF7CFFEBDEEC00A05F5807084EDF0
:1044F000060A96ED010AD4ED050AFEF7C3FEBDEEED
:10450000C00A0C4A4FF4007110EE100A0023E0615B
:10451000CDE90012218B1A4609B200B2FFF7A1FFC4
:104520007CBD0000A44300200030754580000020C1
:1045300000606A45F403002010B534489FED320A4C
:104540002DED048B80ED000A9FED310A80ED020A0B
:104550009FED300A80ED010A80ED030A2E48FCF73A
:1045600009F940F20222941E21462C48FEF7EEFF84
:104570002A48621C21461430FEF7E8FFDFED288A46
:104580009FED289A9FED288A2448B0EE682AF0EE25
:10459000491AB2EE041AF0EE480AB7EE000A0021FA
:1045A0002830FEF7B3FF1D48B0EE682AF0EE491A36
:1045B000B0EE481ADFED1D0AB3EE0E0A002170308E
:1045C000FEF7A4FF1548B0EE682AF0EE491AB2EEE5
:1045D000041AF0EE480AB7EE000A0021B830FEF7E0
:1045E00095FFB0EE682AF0EE491AB0EE481ABDEC1D
:1045F000048BF6EE000A0021BDE810409FED0C0A86
:104600000C48FEF783BF000000A07045800000202A
:104610000090974500007AC3F4030020A4430020D3
:1046200000803B4500401C4600000000CDCCCC3D46
:1046300000004842A4440020D0E9013201699A6098
:10464000D0E901235A604A68824201D182684A60F7
:10465000002202610868401E086008687047000078
:10466000034B036003F15400086080201060704722
:10467000F800002000F108014FF0FF32C0E90112FC
:10468000C160016100210160704700210161704734
:1046900030B50B685A1C02D000F1080202E0026932
:1046A00004E02246546825689D42FAD953684B605D
:1046B00099608A60516008610168491C016030BDE1
:1046C00042684A6093688B609368596091600861A2
:1046D0000168491C01607047502080F31188BFF3C6
:1046E0004F8FBFF36F8F0A494868401C486001280C
:1046F0000CD10848006810F0FF0F07D0502080F35D
:104700001188BFF34F8FBFF36F8FFEE77047000034
:104710007400002004ED00E00849486828B1401EFC
:10472000486001D180F311887047502080F31188D0
:10473000BFF34F8FBFF36F8FFEE7000074000020C0
:1047400070B500282AD0164DA0F108046068696988
:10475000084207D1502080F31188BFF34F8FBFF379
:104760006F8FFEE722683AB1502080F31188BFF3C3
:104770004F8FBFF36F8FFEE78843606000F080F8D3
:1047800060686968084468602046FFF771FD286921
:10479000401C2861BDE8704000F0E0B970BD000029
:1047A000540000204FF0E0200021016181610549A3
:1047B0004FF47A720968B1FBF2F1491E4161072199
:1047C000016170471400002010B5020014D00F489A
:1047D000006B38B1502080F31188BFF34F8FBFF3C7
:1047E0006F8FFEE700F04CF800211046FFF7E4FB66
:1047F00000F0B4F9002807D105494FF08050086057
:10480000BFF34F8FBFF36F8F10BD00001800002063
:1048100004ED00E010B586B00024039405AA04A9B5
:1048200003A80494FFF71CFFDDE903010094CDE920
:10483000011000230EA11048059A00F0FEF80F4960
:104840000028C86211D0502080F31188BFF34F8F29
:10485000BFF36F8F4FF0FF30886201204861CC605A
:1048600006B0BDE8104000F041B806B010BD000031
:1048700049444C4500000000794100081800002020
:104880000248016B491C01637047000018000020BA
:104890001448016B11B10121C16170470021C16150
:1048A0000169B1FA81F1C1F11F0101EB81020E49E9
:1048B00051F822306BB101EB820101F108034A6823
:1048C00052684A609A4201D152684A60D1680160D8
:1048D0007047502080F31188BFF34F8FBFF36F8F65
:1048E000FEE7000018000020B40600201CB5374881
:1048F0000168374A914207D1502080F31188BFF3F5
:104900004F8FBFF36F8FFEE700683149491E884221
:1049100007D1502080F31188BFF34F8FBFF36F8F03
:10492000FEE72C4908780190FF20087008788DF880
:1049300000009DF800009DF8002000F0F00090427B
:1049400007D0502080F31188BFF34F8FBFF36F8FD4
:10495000FEE79DF80000204C00F05000207007207A
:10496000A06005E09DF8002052008DF80020401E58
:104970009DF800201206F5D4A060032807D050202F
:1049800080F31188BFF34F8FBFF36F8FFEE74FF4B3
:104990004070A060019808700C482030016841F414
:1049A00070010160016841F070410160FFF7FAFE9B
:1049B00000206060FBF75CFC0848016841F0404162
:1049C0000160FBF741FC00201CBD000000ED00E091
:1049D00071C20F4100E400E07400002034EF00E0F9
:1049E0002DE9FF5F8346DDE90E87994616468A4624
:1049F0009000FFF787FC05001CD05420FFF782FCD5
:104A0000040014D00020256384F85100CDE9024051
:104A1000CDE900874B46324651465846FFF7DCFB4E
:104A20002046FFF701FB012004B0BDE8F09F2846B7
:104A3000FFF786FE4FF0FF30F6E7F0B585B0DDE911
:104A40000B640A9DA6B1DCB15427009726630226A9
:104A500084F85160002604AFCDE90246CDE9005745
:104A6000FFF7BAFB2046FFF7DFFA049805B0F0BD68
:104A7000502080F31188BFF34F8FBFF36F8FFEE795
:104A8000502080F31188BFF34F8FBFF36F8FFEE785
:104A90002DE9F0412F4C0026206B28B1A069401C65
:104AA000A0613046BDE8F081E5686D1CE56013D17A
:104AB000606B006838B1502080F31188BFF34F8FCE
:104AC000BFF36F8FFEE7606BA16B6163A063206A29
:104AD000401C2062FFF7F2FBA06ADFF87C80854271
:104AE00009D3606B0068A0B1606BC068C768786864
:104AF000854211D2A0622068C06A00EB800158F89C
:104B00002100012800D90126E0690028C9D001262A
:104B1000C7E74FF0FF30EDE7381DFFF78DFDB86AAE
:104B200018B107F11800FFF787FDF96A0120226923
:104B300088401043206101EB810108EB8100391DA1
:104B4000FFF7BEFDF86A2168C96A8842C9D3012609
:104B5000C7E7000018000020B40600202DE9F04748
:104B60002C4D00242746286B38B1FFF7B5FD286B84
:104B7000401E2863286B40B146E0502080F3118826
:104B8000BFF34F8FBFF36F8FFEE7A968224E01205E
:104B9000D1B3A6F1B40980463068E8B1F068C468C2
:104BA00004F11800FFF748FD201DFFF745FDE06AFE
:104BB0002A6908FA00F11143296100EB800109EB31
:104BC0008100211DFFF77CFDE06A2968C96A8842DF
:104BD000E2D3C5F81C80DFE70CB1FFF76FFBAC69CF
:104BE00044B14646FFF754FF00B1EE61641EF9D1AF
:104BF0000020A861E86938B1084901273807086032
:104C0000BFF34F8FBFF36F8FFFF786FD3846BDE8C8
:104C1000F0870000180000206807002004ED00E085
:104C200021F00042A2F16052B2F5801F01F0004372
:104C300028BFD2F17F6C0BD95FEA001C43EAC202A5
:104C400042EB507018BF704728BF20F0010070473A
:104C5000B2F5801FBCBF184670474FEA410C1CF5E7
:104C6000001F02D2084600F0D9BB70B500F021FA4F
:104C700000000089FFF7F6BF4FF00040A0F580006C
:104C80007047000010B591EA030F48BF83F000435E
:104C900000F16C82841A71EB030C05D2121943EBFC
:104CA0000C03001B61EB0C01DFF824E14FEA115407
:104CB000A4EB135C1EEA430F18BF9EEA445F73D057
:104CC00023EA0E03DCF1200E21EA045143F48013A1
:104CD00032D322FA0CFE10EB0E0023FA0CFE41EB4D
:104CE0000E01CCF1200E03FA0EFE10EB0E0051F176
:104CF0000001B1F5801FCCF1200E32D201EB04513E
:104D000012FA0EF2BDE8104058BF7047401C38BF81
:104D10005FEA420218BF7047002814BF20F001006C
:104D200041F100014FEA410313F5001F38BF7047FE
:104D3000A1F1C04100F00BBA012A43EB0302ACF130
:104D4000200CDCF11F0E32BF4FF0000E23FA0CF3E3
:104D500010EB030041EB0451B4EB115FD0D0A1EB99
:104D6000045101F5801149085FEA300001EB04515C
:104D70000ED350F1000038BF12FA0EFE08D1BDE884
:104D80001040C9E7401C38BF5FEA4202CAD1C3E7FE
:104D9000BDE810404FEA410313F5001F38BF7047CC
:104DA000A1F1C04100F0D3B99EEA445F08D011EAF6
:104DB0005E0FBDE8104004BF01F0004100207047C5
:104DC000BDE8104070B500F074F900BF64FBBE3E52
:104DD0000000E0FF2DE9C04130B4DFF8A0C23CEA9A
:104DE000111418BF3CEA131400F0EC8081EA0305AB
:104DF0001CEA111444EAD57418BF1CEA131500F01C
:104E0000C780A4EB05044FF0004545EAC12145EAFF
:104E1000C32341EA505143EA525304F17F7499424B
:104E200004F500344FEAC0204FEAC22208BF904286
:104E300000F09C804FEA13650FF24016765D4FEA52
:104E4000134506FB05F7C7F1807706FB07F74FEA26
:104E5000D737A7FB03687642C8F58038A7FB06CE94
:104E600038BFA8F1010807FB08E64FF0000EA6FBCB
:104E7000028CE6FB03CEDCF1000CCEF1004E38BF15
:104E8000AEF1010EA6FB0C584FF000074FF00005E5
:104E9000E6FB0E87A1FB08C6A0FB07CE16EB0E06AD
:104EA00045F10005E1FB076515F1E04E7EBFA4F575
:104EB00080345FEA46066D4116F1800745F1000532
:104EC0004FEA17274FEA066647EA0567A6F1DE466E
:104ED000B6F1805F4FEA15251FD9384624F0010C42
:104EE00005EBC471BCF1FE6F01EB0C1102D8F0BCF4
:104EF000BDE8008124425CBF01F5801E9EEAC47FAC
:104F000002D4F0BCBDE80081244238D4F0BCA1F149
:104F1000C041BDE8004100F01AB94FEAD22242EA8E
:104F200043524FEAD323A7FB02864FEAD02040EA40
:104F3000415007FB03661EEA0E0F4FEAD12105FB25
:104F4000026658BFA6EB0056B6EB00564FEA520E6B
:104F50004EEAC37E18EB0E0E56EB530EBDD518EB82
:104F600002085E417F1C55F10005B6E74FF480153D
:104F70004FF000074FF000064FF00008ADE7F0BC1F
:104F80004FF0000001F1C04101F00041BDE8008197
:104F900011EA0C1F0CEA131500D00CE013EA0C1FE9
:104FA00000F025804FF00000F0BC81EA030101F021
:104FB0000041BDE80081F0BCBDE8004181EA030189
:104FC00000F0C5B8F0BCBDE8004170B500F071F864
:104FD000097EFC3E00F007B881EA03014FF00000B3
:104FE00001F00041704781EA030100F0B0B8F0BC65
:104FF000BDE800414FF0000021497047FFFDFBF97B
:10500000F7F5F4F2F0EEEDEBE9E8E6E4E3E1E0DEFB
:10501000DDDBDAD8D7D5D4D3D1D0CFCDCCCBCAC86D
:10502000C7C6C5C4C2C1C0BFBEBDBCBBBAB9B8B794
:10503000B6B5B4B3B2B1B0AFAEADACABAAA9A8A887
:10504000A7A6A5A4A3A3A2A1A09F9F9E9D9C9C9B55
:105050009A99999897979695959493939291919000
:105060008F8F8E8E8D8C8C8B8B8A89898888878791
:105070008685858484838382828181800000FF0706
:105080000000F87F10F0004248BF4042B0FA80F3C1
:1050900010FA03F10AD0C3F11D0303F580634FEA50
:1050A000415002EB035202EBD12170474FF0000058
:1050B00070470EF1020E2EF0030E5EF8046B3642BE
:1050C00005D4012A43EB030515F5001F12D801286A
:1050D00041EB010C1CF5001F0CD80ED14FEAD17C1E
:1050E00015F5001F0CEB4C0C0CF1020C08BF4CEB3F
:1050F000D37C04E04FF0080C01E04FEAD37C0CEBCA
:105100004C0526FA05F606F00706B6F1040C06D2A1
:105110000EEB860CBDE870404CF0010C6047DFE8F8
:105120000CF0090B02024FF000414FF00000A1F516
:10513000002170BD19461046012851EB010418BF2B
:10514000D4F5001484BF002001F0004170BD0808B0
:10515000A0F500114FEA31017047000010B591EA47
:10516000030F48BF83F000433FF594AD841A71EB01
:10517000030C07D212198CF0004C43EB0C03001BFC
:1051800061EB0C01DFF8A4E14FEA1154A4EB135CCE
:105190001EEA430F18BF9EEA445F00F0B08023EA86
:1051A0006E03524221EA0451C3EB6E0338BF5B1E0B
:1051B000DCF1200E25D322FA0CFE10EB0E0043FA90
:1051C0000CFE41EB0E01CCF1200E03FA0EFE10EBAB
:1051D0000E0051F10001CCF1200E29D412FA0EF28A
:1051E00001EB0451BDE8104058BF7047401C1CBF84
:1051F000B2F1004F704700280CBF491C20F001009D
:10520000704712EB020E43EB030218BF4FF0010E82
:105210004EEA4202ACF1200CDCF11E0E54D943FAE6
:105220000CFE10EB0E0051F1FF31CCF11E0ED5D566
:105230000EF1010E12FA0EFE404141EB010101EBAD
:10524000445C5FEA5C5C10D910EBDE7001EB04514A
:1052500038BFBEF1004FBDE8104018BF70470028AE
:105260000CBF491C20F00100704730D24FEAD42C0B
:1052700011F5001124F400641BD0B1FA81F20B3A4D
:10528000A41AA41ED2F12003914030FA03F319436B
:10529000904001EBCC71002C01EB0451BDE81040B3
:1052A000A8BF704701F1C0414FF0000001F000417C
:1052B0007047B0FA80F310FA03F100D110BDE41A80
:1052C000173C4805C90AE4E701EB045110BD491039
:1052D00001EB0451BDE810404FEA300002E04FF00E
:1052E000000170474A0008BF0042F8D0B2F5001F25
:1052F00028BF704701F000414FF0000070479EEA60
:10530000445F07D011EA5E0FBDE8104004BF0021E2
:1053100000207047BDE8104070B5FFF7CAFE00BF1F
:1053200040DFF63E83F00041104670470000E0FF8A
:1053300043004FEAD30C4FEA3C0C43401FBF4007E9
:105340000CF1605113F0FE4F70471CF0006F03D159
:1053500000200CF0004170470CF0004343EA50700D
:1053600010B540EACC0000F00EF800BF000000923B
:105370004FEA0001FFF7EBBE4FF000414FF0000095
:10538000A1F5002170470EF1020E2EF0030E5EF81B
:10539000044B244204D44FEA4102B2F17F4F11D8AA
:1053A0004FEA4003B3F17F4F0CD80ED14FEAD07CC7
:1053B000B2F17F4F0CEB4C0C0CF1020C08BF4CEB24
:1053C000D17C04E04FF0080C01E04FEAD17C0CEBFB
:1053D0004C0324FA03F404F00704B4F1040C06D2DD
:1053E0000EEB840CBDE810404CF0010C6047DFE888
:1053F0000CF0070802024FF00040A0F5800010BD3D
:105400000846420018BFD2F1807288BF00F0004009
:1054100010BD4FF04070E1EE100A7047FF2141EAE5
:10542000D050C0057047000094540008D9350008DA
:1054300000000000000000008000000000000000EC
:10544000000000008C540008C9350008FDFF000072
:1054500000000000800000000000000000000000CC
:1054600000061016000610160000000000000000E4
:1054700001020304060708090000000001020304FA
:105480003443101001344310100100006D65737334
:1054900061676500737072696E675F6D6F746F72BC
:1054A00000000000C454000800000020F8000000C4
:1054B000C4010008BC550008F8000020D8520000C4
:1054C000E0010008000000000000000001000000F2
:1054D00010000000000000000024F40000000000A4
:1054E00000000000000000000000000000000000BC
:1054F00000000000000000000000000000000000AC
:10550000000000000000000000000000000000009B
:10551000000000000000000000000000000000008B
:10552000000000000000000000000000000000007B
:10553000000000000000000000000000AAAAAAAAC3
:10554000000000000000000000000000000000005B
:10555000000000000000000000000000000000004B
:105560000000000001010000000000000000000039
:1055700000000000FFFEFDFCFBFA00000000000040
:10558000000000000000000000000000000000001B
:10559000000000000000000000000000000000000B
:1055A00000000000000000000000000000000000FB
:0C55B000000000000000000000000000EF
:040000050800018965
:00000001FF
